{
	"data": {
		"bytecode": {
			"linkReferences": {},
			"object": "60806040526040518060400160405280600581526020017f2e6a736f6e000000000000000000000000000000000000000000000000000000815250600c908051906020019062000051929190620002f6565b5066038d7ea4c68000600e5561270f600f55600a601055600160115560646012556361aec0206013556000601460006101000a81548160ff0219169083151502179055506000601460016101000a81548160ff021916908315150217905550348015620000bd57600080fd5b50604051620056de380380620056de8339818101604052810190620000e3919062000543565b82828160009080519060200190620000fd929190620002f6565b50806001908051906020019062000116929190620002f6565b505050620001396200012d6200015360201b60201c565b6200015b60201b60201c565b6200014a816200022160201b60201c565b505050620006e4565b600033905090565b6000600a60009054906101000a900473ffffffffffffffffffffffffffffffffffffffff16905081600a60006101000a81548173ffffffffffffffffffffffffffffffffffffffff021916908373ffffffffffffffffffffffffffffffffffffffff1602179055508173ffffffffffffffffffffffffffffffffffffffff168173ffffffffffffffffffffffffffffffffffffffff167f8be0079c531659141344cd1fd0a4f28419497f9722a3daafe3b4186f6b6457e060405160405180910390a35050565b620002316200015360201b60201c565b73ffffffffffffffffffffffffffffffffffffffff1662000257620002cc60201b60201c565b73ffffffffffffffffffffffffffffffffffffffff1614620002b0576040517f08c379a0000000000000000000000000000000000000000000000000000000008152600401620002a7906200065d565b60405180910390fd5b80600d9080519060200190620002c8929190620002f6565b5050565b6000600a60009054906101000a900473ffffffffffffffffffffffffffffffffffffffff16905090565b8280546200030490620006ae565b90600052602060002090601f01602090048101928262000328576000855562000374565b82601f106200034357805160ff191683800117855562000374565b8280016001018555821562000374579182015b828111156200037357825182559160200191906001019062000356565b5b50905062000383919062000387565b5090565b5b80821115620003a257600081600090555060010162000388565b5090565b6000604051905090565b600080fd5b600080fd5b600080fd5b600080fd5b6000601f19601f8301169050919050565b7f4e487b7100000000000000000000000000000000000000000000000000000000600052604160045260246000fd5b6200040f82620003c4565b810181811067ffffffffffffffff82111715620004315762000430620003d5565b5b80604052505050565b600062000446620003a6565b905062000454828262000404565b919050565b600067ffffffffffffffff821115620004775762000476620003d5565b5b6200048282620003c4565b9050602081019050919050565b60005b83811015620004af57808201518184015260208101905062000492565b83811115620004bf576000848401525b50505050565b6000620004dc620004d68462000459565b6200043a565b905082815260208101848484011115620004fb57620004fa620003bf565b5b620005088482856200048f565b509392505050565b600082601f830112620005285762000527620003ba565b5b81516200053a848260208601620004c5565b91505092915050565b6000806000606084860312156200055f576200055e620003b0565b5b600084015167ffffffffffffffff81111562000580576200057f620003b5565b5b6200058e8682870162000510565b935050602084015167ffffffffffffffff811115620005b257620005b1620003b5565b5b620005c08682870162000510565b925050604084015167ffffffffffffffff811115620005e457620005e3620003b5565b5b620005f28682870162000510565b9150509250925092565b600082825260208201905092915050565b7f4f776e61626c653a2063616c6c6572206973206e6f7420746865206f776e6572600082015250565b600062000645602083620005fc565b915062000652826200060d565b602082019050919050565b60006020820190508181036000830152620006788162000636565b9050919050565b7f4e487b7100000000000000000000000000000000000000000000000000000000600052602260045260246000fd5b60006002820490506001821680620006c757607f821691505b60208210811415620006de57620006dd6200067f565b5b50919050565b614fea80620006f46000396000f3fe6080604052600436106102885760003560e01c80636f9fb98a1161015a578063a475b5dd116100c1578063d0eb26b01161007a578063d0eb26b0146109a2578063da3ef23f146109cb578063e985e9c5146109f4578063eced387314610a31578063f2c4ce1e14610a5c578063f2fde38b14610a8557610288565b8063a475b5dd146108a4578063b88d4fde146108bb578063b8fc1051146108e4578063ba7d2c761461090f578063c66828621461093a578063c87b56dd1461096557610288565b806383a076be1161011357806383a076be146107b55780638da5cb5b146107de57806395d89b4114610809578063a035b1fe14610834578063a0712d681461085f578063a22cb4651461087b57610288565b80636f9fb98a146106b757806370a08231146106e2578063714c53981461071f578063715018a61461074a5780637f00c7a614610761578063831e60de1461078a57610288565b80632f745c59116101fe5780634f6ccce7116101b75780634f6ccce71461059557806351830227146105d257806355f804b3146105fd5780635c975abb146106265780636352211e146106515780636f8b44b01461068e57610288565b80632f745c591461049457806332cb6b0c146104d15780633ccfd60b146104fc57806342842e0e14610506578063438b63001461052f57806344a0d68a1461056c57610288565b8063095ea7b311610250578063095ea7b3146103865780630e54a883146103af57806318160ddd146103d857806318cae2691461040357806323b872dd146104405780632e09282e1461046957610288565b806301ffc9a71461028d57806302329a29146102ca57806306fdde03146102f3578063081812fc1461031e578063081c8c441461035b575b600080fd5b34801561029957600080fd5b506102b460048036038101906102af91906136f6565b610aae565b6040516102c1919061373e565b60405180910390f35b3480156102d657600080fd5b506102f160048036038101906102ec9190613785565b610b28565b005b3480156102ff57600080fd5b50610308610bc1565b604051610315919061384b565b60405180910390f35b34801561032a57600080fd5b50610345600480360381019061034091906138a3565b610c53565b6040516103529190613911565b60405180910390f35b34801561036757600080fd5b50610370610cd8565b60405161037d919061384b565b60405180910390f35b34801561039257600080fd5b506103ad60048036038101906103a89190613958565b610d66565b005b3480156103bb57600080fd5b506103d660048036038101906103d191906138a3565b610e7e565b005b3480156103e457600080fd5b506103ed610f04565b6040516103fa91906139a7565b60405180910390f35b34801561040f57600080fd5b5061042a600480360381019061042591906139c2565b610f11565b60405161043791906139a7565b60405180910390f35b34801561044c57600080fd5b50610467600480360381019061046291906139ef565b610f29565b005b34801561047557600080fd5b5061047e610f89565b60405161048b91906139a7565b60405180910390f35b3480156104a057600080fd5b506104bb60048036038101906104b69190613958565b610f8f565b6040516104c891906139a7565b60405180910390f35b3480156104dd57600080fd5b506104e6611034565b6040516104f391906139a7565b60405180910390f35b61050461103a565b005b34801561051257600080fd5b5061052d600480360381019061052891906139ef565b61112f565b005b34801561053b57600080fd5b50610556600480360381019061055191906139c2565b61114f565b6040516105639190613b00565b60405180910390f35b34801561057857600080fd5b50610593600480360381019061058e91906138a3565b6111fd565b005b3480156105a157600080fd5b506105bc60048036038101906105b791906138a3565b611283565b6040516105c991906139a7565b60405180910390f35b3480156105de57600080fd5b506105e76112f4565b6040516105f4919061373e565b60405180910390f35b34801561060957600080fd5b50610624600480360381019061061f9190613c57565b611307565b005b34801561063257600080fd5b5061063b61139d565b604051610648919061373e565b60405180910390f35b34801561065d57600080fd5b50610678600480360381019061067391906138a3565b6113b0565b6040516106859190613911565b60405180910390f35b34801561069a57600080fd5b506106b560048036038101906106b091906138a3565b611462565b005b3480156106c357600080fd5b506106cc6114e8565b6040516106d991906139a7565b60405180910390f35b3480156106ee57600080fd5b50610709600480360381019061070491906139c2565b61156c565b60405161071691906139a7565b60405180910390f35b34801561072b57600080fd5b50610734611624565b604051610741919061384b565b60405180910390f35b34801561075657600080fd5b5061075f611732565b005b34801561076d57600080fd5b50610788600480360381019061078391906138a3565b6117ba565b005b34801561079657600080fd5b5061079f611840565b6040516107ac91906139a7565b60405180910390f35b3480156107c157600080fd5b506107dc60048036038101906107d79190613ca0565b61184a565b005b3480156107ea57600080fd5b506107f36119f6565b6040516108009190613911565b60405180910390f35b34801561081557600080fd5b5061081e611a20565b60405161082b919061384b565b60405180910390f35b34801561084057600080fd5b50610849611ab2565b60405161085691906139a7565b60405180910390f35b610879600480360381019061087491906138a3565b611ab8565b005b34801561088757600080fd5b506108a2600480360381019061089d9190613ce0565b611c88565b005b3480156108b057600080fd5b506108b9611c9e565b005b3480156108c757600080fd5b506108e260048036038101906108dd9190613dc1565b611d37565b005b3480156108f057600080fd5b506108f9611d99565b60405161090691906139a7565b60405180910390f35b34801561091b57600080fd5b50610924611d9f565b60405161093191906139a7565b60405180910390f35b34801561094657600080fd5b5061094f611da5565b60405161095c919061384b565b60405180910390f35b34801561097157600080fd5b5061098c600480360381019061098791906138a3565b611e33565b604051610999919061384b565b60405180910390f35b3480156109ae57600080fd5b506109c960048036038101906109c491906138a3565b611f84565b005b3480156109d757600080fd5b506109f260048036038101906109ed9190613c57565b61200a565b005b348015610a0057600080fd5b50610a1b6004803603810190610a169190613e44565b6120a0565b604051610a28919061373e565b60405180910390f35b348015610a3d57600080fd5b50610a46612134565b604051610a5391906139a7565b60405180910390f35b348015610a6857600080fd5b50610a836004803603810190610a7e9190613c57565b61213a565b005b348015610a9157600080fd5b50610aac6004803603810190610aa791906139c2565b6121d0565b005b60007f780e9d63000000000000000000000000000000000000000000000000000000007bffffffffffffffffffffffffffffffffffffffffffffffffffffffff1916827bffffffffffffffffffffffffffffffffffffffffffffffffffffffff19161480610b215750610b20826122c8565b5b9050919050565b610b306123aa565b73ffffffffffffffffffffffffffffffffffffffff16610b4e6119f6565b73ffffffffffffffffffffffffffffffffffffffff1614610ba4576040517f08c379a0000000000000000000000000000000000000000000000000000000008152600401610b9b90613ed0565b60405180910390fd5b80601460006101000a81548160ff02191690831515021790555050565b606060008054610bd090613f1f565b80601f0160208091040260200160405190810160405280929190818152602001828054610bfc90613f1f565b8015610c495780601f10610c1e57610100808354040283529160200191610c49565b820191906000526020600020905b815481529060010190602001808311610c2c57829003601f168201915b5050505050905090565b6000610c5e826123b2565b610c9d576040517f08c379a0000000000000000000000000000000000000000000000000000000008152600401610c9490613fc3565b60405180910390fd5b6004600083815260200190815260200160002060009054906101000a900473ffffffffffffffffffffffffffffffffffffffff169050919050565b600d8054610ce590613f1f565b80601f0160208091040260200160405190810160405280929190818152602001828054610d1190613f1f565b8015610d5e5780601f10610d3357610100808354040283529160200191610d5e565b820191906000526020600020905b815481529060010190602001808311610d4157829003601f168201915b505050505081565b6000610d71826113b0565b90508073ffffffffffffffffffffffffffffffffffffffff168373ffffffffffffffffffffffffffffffffffffffff161415610de2576040517f08c379a0000000000000000000000000000000000000000000000000000000008152600401610dd990614055565b60405180910390fd5b8073ffffffffffffffffffffffffffffffffffffffff16610e016123aa565b73ffffffffffffffffffffffffffffffffffffffff161480610e305750610e2f81610e2a6123aa565b6120a0565b5b610e6f576040517f08c379a0000000000000000000000000000000000000000000000000000000008152600401610e66906140e7565b60405180910390fd5b610e79838361241e565b505050565b610e866123aa565b73ffffffffffffffffffffffffffffffffffffffff16610ea46119f6565b73ffffffffffffffffffffffffffffffffffffffff1614610efa576040517f08c379a0000000000000000000000000000000000000000000000000000000008152600401610ef190613ed0565b60405180910390fd5b8060138190555050565b6000600880549050905090565b60156020528060005260406000206000915090505481565b610f3a610f346123aa565b826124d7565b610f79576040517f08c379a0000000000000000000000000000000000000000000000000000000008152600401610f7090614179565b60405180910390fd5b610f848383836125b5565b505050565b60115481565b6000610f9a8361156c565b8210610fdb576040517f08c379a0000000000000000000000000000000000000000000000000000000008152600401610fd29061420b565b60405180910390fd5b600660008473ffffffffffffffffffffffffffffffffffffffff1673ffffffffffffffffffffffffffffffffffffffff168152602001908152602001600020600083815260200190815260200160002054905092915050565b600f5481565b6110426123aa565b73ffffffffffffffffffffffffffffffffffffffff166110606119f6565b73ffffffffffffffffffffffffffffffffffffffff16146110b6576040517f08c379a00000000000000000000000000000000000000000000000000000000081526004016110ad90613ed0565b60405180910390fd5b60003373ffffffffffffffffffffffffffffffffffffffff16476040516110dc9061425c565b60006040518083038185875af1925050503d8060008114611119576040519150601f19603f3d011682016040523d82523d6000602084013e61111e565b606091505b505090508061112c57600080fd5b50565b61114a83838360405180602001604052806000815250611d37565b505050565b6060600061115c8361156c565b905060008167ffffffffffffffff81111561117a57611179613b2c565b5b6040519080825280602002602001820160405280156111a85781602001602082028036833780820191505090505b50905060005b828110156111f2576111c08582610f8f565b8282815181106111d3576111d2614271565b5b60200260200101818152505080806111ea906142cf565b9150506111ae565b508092505050919050565b6112056123aa565b73ffffffffffffffffffffffffffffffffffffffff166112236119f6565b73ffffffffffffffffffffffffffffffffffffffff1614611279576040517f08c379a000000000000000000000000000000000000000000000000000000000815260040161127090613ed0565b60405180910390fd5b80600e8190555050565b600061128d610f04565b82106112ce576040517f08c379a00000000000000000000000000000000000000000000000000000000081526004016112c59061438a565b60405180910390fd5b600882815481106112e2576112e1614271565b5b90600052602060002001549050919050565b601460019054906101000a900460ff1681565b61130f6123aa565b73ffffffffffffffffffffffffffffffffffffffff1661132d6119f6565b73ffffffffffffffffffffffffffffffffffffffff1614611383576040517f08c379a000000000000000000000000000000000000000000000000000000000815260040161137a90613ed0565b60405180910390fd5b80600b90805190602001906113999291906135e7565b5050565b601460009054906101000a900460ff1681565b6000806002600084815260200190815260200160002060009054906101000a900473ffffffffffffffffffffffffffffffffffffffff169050600073ffffffffffffffffffffffffffffffffffffffff168173ffffffffffffffffffffffffffffffffffffffff161415611459576040517f08c379a00000000000000000000000000000000000000000000000000000000081526004016114509061441c565b60405180910390fd5b80915050919050565b61146a6123aa565b73ffffffffffffffffffffffffffffffffffffffff166114886119f6565b73ffffffffffffffffffffffffffffffffffffffff16146114de576040517f08c379a00000000000000000000000000000000000000000000000000000000081526004016114d590613ed0565b60405180910390fd5b80600f8190555050565b60006114f26123aa565b73ffffffffffffffffffffffffffffffffffffffff166115106119f6565b73ffffffffffffffffffffffffffffffffffffffff1614611566576040517f08c379a000000000000000000000000000000000000000000000000000000000815260040161155d90613ed0565b60405180910390fd5b47905090565b60008073ffffffffffffffffffffffffffffffffffffffff168273ffffffffffffffffffffffffffffffffffffffff1614156115dd576040517f08c379a00000000000000000000000000000000000000000000000000000000081526004016115d4906144ae565b60405180910390fd5b600360008373ffffffffffffffffffffffffffffffffffffffff1673ffffffffffffffffffffffffffffffffffffffff168152602001908152602001600020549050919050565b606061162e6123aa565b73ffffffffffffffffffffffffffffffffffffffff1661164c6119f6565b73ffffffffffffffffffffffffffffffffffffffff16146116a2576040517f08c379a000000000000000000000000000000000000000000000000000000000815260040161169990613ed0565b60405180910390fd5b600b80546116af90613f1f565b80601f01602080910402602001604051908101604052809291908181526020018280546116db90613f1f565b80156117285780601f106116fd57610100808354040283529160200191611728565b820191906000526020600020905b81548152906001019060200180831161170b57829003601f168201915b5050505050905090565b61173a6123aa565b73ffffffffffffffffffffffffffffffffffffffff166117586119f6565b73ffffffffffffffffffffffffffffffffffffffff16146117ae576040517f08c379a00000000000000000000000000000000000000000000000000000000081526004016117a590613ed0565b60405180910390fd5b6117b86000612811565b565b6117c26123aa565b73ffffffffffffffffffffffffffffffffffffffff166117e06119f6565b73ffffffffffffffffffffffffffffffffffffffff1614611836576040517f08c379a000000000000000000000000000000000000000000000000000000000815260040161182d90613ed0565b60405180910390fd5b8060108190555050565b6000600e54905090565b6118526123aa565b73ffffffffffffffffffffffffffffffffffffffff166118706119f6565b73ffffffffffffffffffffffffffffffffffffffff16146118c6576040517f08c379a00000000000000000000000000000000000000000000000000000000081526004016118bd90613ed0565b60405180910390fd5b60008211611909576040517f08c379a00000000000000000000000000000000000000000000000000000000081526004016119009061451a565b60405180910390fd5b6000611913610f04565b9050600f548382611924919061453a565b1115611965576040517f08c379a000000000000000000000000000000000000000000000000000000000815260040161195c906145dc565b60405180910390fd5b6000600190505b8381116119f057601560008473ffffffffffffffffffffffffffffffffffffffff1673ffffffffffffffffffffffffffffffffffffffff16815260200190815260200160002060008154809291906119c3906142cf565b91905055506119dd8382846119d8919061453a565b6128d7565b80806119e8906142cf565b91505061196c565b50505050565b6000600a60009054906101000a900473ffffffffffffffffffffffffffffffffffffffff16905090565b606060018054611a2f90613f1f565b80601f0160208091040260200160405190810160405280929190818152602001828054611a5b90613f1f565b8015611aa85780601f10611a7d57610100808354040283529160200191611aa8565b820191906000526020600020905b815481529060010190602001808311611a8b57829003601f168201915b5050505050905090565b600e5481565b601460009054906101000a900460ff1615611b08576040517f08c379a0000000000000000000000000000000000000000000000000000000008152600401611aff90614648565b60405180910390fd5b8060008111611b4c576040517f08c379a0000000000000000000000000000000000000000000000000000000008152600401611b439061451a565b60405180910390fd5b6000611b56610f04565b90506000601560003373ffffffffffffffffffffffffffffffffffffffff1673ffffffffffffffffffffffffffffffffffffffff168152602001908152602001600020549050611ba681856128f5565b600f548483611bb5919061453a565b1115611bf6576040517f08c379a0000000000000000000000000000000000000000000000000000000008152600401611bed906145dc565b60405180910390fd5b6000600190505b848111611c8157601560003373ffffffffffffffffffffffffffffffffffffffff1673ffffffffffffffffffffffffffffffffffffffff1681526020019081526020016000206000815480929190611c54906142cf565b9190505550611c6e338285611c69919061453a565b6128d7565b8080611c79906142cf565b915050611bfd565b5050505050565b611c9a611c936123aa565b83836129de565b5050565b611ca66123aa565b73ffffffffffffffffffffffffffffffffffffffff16611cc46119f6565b73ffffffffffffffffffffffffffffffffffffffff1614611d1a576040517f08c379a0000000000000000000000000000000000000000000000000000000008152600401611d1190613ed0565b60405180910390fd5b6001601460016101000a81548160ff021916908315150217905550565b611d48611d426123aa565b836124d7565b611d87576040517f08c379a0000000000000000000000000000000000000000000000000000000008152600401611d7e90614179565b60405180910390fd5b611d9384848484612b4b565b50505050565b60105481565b60125481565b600c8054611db290613f1f565b80601f0160208091040260200160405190810160405280929190818152602001828054611dde90613f1f565b8015611e2b5780601f10611e0057610100808354040283529160200191611e2b565b820191906000526020600020905b815481529060010190602001808311611e0e57829003601f168201915b505050505081565b6060611e3e826123b2565b611e7d576040517f08c379a0000000000000000000000000000000000000000000000000000000008152600401611e74906146da565b60405180910390fd5b601460019054906101000a900460ff16611f2357600d8054611e9e90613f1f565b80601f0160208091040260200160405190810160405280929190818152602001828054611eca90613f1f565b8015611f175780601f10611eec57610100808354040283529160200191611f17565b820191906000526020600020905b815481529060010190602001808311611efa57829003601f168201915b50505050509050611f7f565b6000611f2d612ba7565b90506000815111611f4d5760405180602001604052806000815250611f7b565b80611f5784612c39565b600c604051602001611f6b939291906147ca565b6040516020818303038152906040525b9150505b919050565b611f8c6123aa565b73ffffffffffffffffffffffffffffffffffffffff16611faa6119f6565b73ffffffffffffffffffffffffffffffffffffffff1614612000576040517f08c379a0000000000000000000000000000000000000000000000000000000008152600401611ff790613ed0565b60405180910390fd5b8060128190555050565b6120126123aa565b73ffffffffffffffffffffffffffffffffffffffff166120306119f6565b73ffffffffffffffffffffffffffffffffffffffff1614612086576040517f08c379a000000000000000000000000000000000000000000000000000000000815260040161207d90613ed0565b60405180910390fd5b80600c908051906020019061209c9291906135e7565b5050565b6000600560008473ffffffffffffffffffffffffffffffffffffffff1673ffffffffffffffffffffffffffffffffffffffff16815260200190815260200160002060008373ffffffffffffffffffffffffffffffffffffffff1673ffffffffffffffffffffffffffffffffffffffff16815260200190815260200160002060009054906101000a900460ff16905092915050565b60135481565b6121426123aa565b73ffffffffffffffffffffffffffffffffffffffff166121606119f6565b73ffffffffffffffffffffffffffffffffffffffff16146121b6576040517f08c379a00000000000000000000000000000000000000000000000000000000081526004016121ad90613ed0565b60405180910390fd5b80600d90805190602001906121cc9291906135e7565b5050565b6121d86123aa565b73ffffffffffffffffffffffffffffffffffffffff166121f66119f6565b73ffffffffffffffffffffffffffffffffffffffff161461224c576040517f08c379a000000000000000000000000000000000000000000000000000000000815260040161224390613ed0565b60405180910390fd5b600073ffffffffffffffffffffffffffffffffffffffff168173ffffffffffffffffffffffffffffffffffffffff1614156122bc576040517f08c379a00000000000000000000000000000000000000000000000000000000081526004016122b39061486d565b60405180910390fd5b6122c581612811565b50565b60007f80ac58cd000000000000000000000000000000000000000000000000000000007bffffffffffffffffffffffffffffffffffffffffffffffffffffffff1916827bffffffffffffffffffffffffffffffffffffffffffffffffffffffff1916148061239357507f5b5e139f000000000000000000000000000000000000000000000000000000007bffffffffffffffffffffffffffffffffffffffffffffffffffffffff1916827bffffffffffffffffffffffffffffffffffffffffffffffffffffffff1916145b806123a357506123a282612d9a565b5b9050919050565b600033905090565b60008073ffffffffffffffffffffffffffffffffffffffff166002600084815260200190815260200160002060009054906101000a900473ffffffffffffffffffffffffffffffffffffffff1673ffffffffffffffffffffffffffffffffffffffff1614159050919050565b816004600083815260200190815260200160002060006101000a81548173ffffffffffffffffffffffffffffffffffffffff021916908373ffffffffffffffffffffffffffffffffffffffff160217905550808273ffffffffffffffffffffffffffffffffffffffff16612491836113b0565b73ffffffffffffffffffffffffffffffffffffffff167f8c5be1e5ebec7d5bd14f71427d1e84f3dd0314c0f7b2291e5b200ac8c7c3b92560405160405180910390a45050565b60006124e2826123b2565b612521576040517f08c379a0000000000000000000000000000000000000000000000000000000008152600401612518906148ff565b60405180910390fd5b600061252c836113b0565b90508073ffffffffffffffffffffffffffffffffffffffff168473ffffffffffffffffffffffffffffffffffffffff16148061259b57508373ffffffffffffffffffffffffffffffffffffffff1661258384610c53565b73ffffffffffffffffffffffffffffffffffffffff16145b806125ac57506125ab81856120a0565b5b91505092915050565b8273ffffffffffffffffffffffffffffffffffffffff166125d5826113b0565b73ffffffffffffffffffffffffffffffffffffffff161461262b576040517f08c379a000000000000000000000000000000000000000000000000000000000815260040161262290614991565b60405180910390fd5b600073ffffffffffffffffffffffffffffffffffffffff168273ffffffffffffffffffffffffffffffffffffffff16141561269b576040517f08c379a000000000000000000000000000000000000000000000000000000000815260040161269290614a23565b60405180910390fd5b6126a6838383612e04565b6126b160008261241e565b6001600360008573ffffffffffffffffffffffffffffffffffffffff1673ffffffffffffffffffffffffffffffffffffffff16815260200190815260200160002060008282546127019190614a43565b925050819055506001600360008473ffffffffffffffffffffffffffffffffffffffff1673ffffffffffffffffffffffffffffffffffffffff1681526020019081526020016000206000828254612758919061453a565b92505081905550816002600083815260200190815260200160002060006101000a81548173ffffffffffffffffffffffffffffffffffffffff021916908373ffffffffffffffffffffffffffffffffffffffff160217905550808273ffffffffffffffffffffffffffffffffffffffff168473ffffffffffffffffffffffffffffffffffffffff167fddf252ad1be2c89b69c2b068fc378daa952ba7f163c4a11628f55a4df523b3ef60405160405180910390a4505050565b6000600a60009054906101000a900473ffffffffffffffffffffffffffffffffffffffff16905081600a60006101000a81548173ffffffffffffffffffffffffffffffffffffffff021916908373ffffffffffffffffffffffffffffffffffffffff1602179055508173ffffffffffffffffffffffffffffffffffffffff168173ffffffffffffffffffffffffffffffffffffffff167f8be0079c531659141344cd1fd0a4f28419497f9722a3daafe3b4186f6b6457e060405160405180910390a35050565b6128f1828260405180602001604052806000815250612f18565b5050565b6012548183612904919061453a565b1115612945576040517f08c379a000000000000000000000000000000000000000000000000000000000815260040161293c90614ac3565b60405180910390fd5b80600e546129539190614ae3565b341015612995576040517f08c379a000000000000000000000000000000000000000000000000000000000815260040161298c90614b89565b60405180910390fd5b6010548111156129da576040517f08c379a00000000000000000000000000000000000000000000000000000000081526004016129d190614c1b565b60405180910390fd5b5050565b8173ffffffffffffffffffffffffffffffffffffffff168373ffffffffffffffffffffffffffffffffffffffff161415612a4d576040517f08c379a0000000000000000000000000000000000000000000000000000000008152600401612a4490614c87565b60405180910390fd5b80600560008573ffffffffffffffffffffffffffffffffffffffff1673ffffffffffffffffffffffffffffffffffffffff16815260200190815260200160002060008473ffffffffffffffffffffffffffffffffffffffff1673ffffffffffffffffffffffffffffffffffffffff16815260200190815260200160002060006101000a81548160ff0219169083151502179055508173ffffffffffffffffffffffffffffffffffffffff168373ffffffffffffffffffffffffffffffffffffffff167f17307eab39ab6107e8899845ad3d59bd9653f200f220920489ca2b5937696c3183604051612b3e919061373e565b60405180910390a3505050565b612b568484846125b5565b612b6284848484612f73565b612ba1576040517f08c379a0000000000000000000000000000000000000000000000000000000008152600401612b9890614d19565b60405180910390fd5b50505050565b6060600b8054612bb690613f1f565b80601f0160208091040260200160405190810160405280929190818152602001828054612be290613f1f565b8015612c2f5780601f10612c0457610100808354040283529160200191612c2f565b820191906000526020600020905b815481529060010190602001808311612c1257829003601f168201915b5050505050905090565b60606000821415612c81576040518060400160405280600181526020017f30000000000000000000000000000000000000000000000000000000000000008152509050612d95565b600082905060005b60008214612cb3578080612c9c906142cf565b915050600a82612cac9190614d68565b9150612c89565b60008167ffffffffffffffff811115612ccf57612cce613b2c565b5b6040519080825280601f01601f191660200182016040528015612d015781602001600182028036833780820191505090505b5090505b60008514612d8e57600182612d1a9190614a43565b9150600a85612d299190614d99565b6030612d35919061453a565b60f81b818381518110612d4b57612d4a614271565b5b60200101907effffffffffffffffffffffffffffffffffffffffffffffffffffffffffffff1916908160001a905350600a85612d879190614d68565b9450612d05565b8093505050505b919050565b60007f01ffc9a7000000000000000000000000000000000000000000000000000000007bffffffffffffffffffffffffffffffffffffffffffffffffffffffff1916827bffffffffffffffffffffffffffffffffffffffffffffffffffffffff1916149050919050565b612e0f8383836130fb565b600073ffffffffffffffffffffffffffffffffffffffff168373ffffffffffffffffffffffffffffffffffffffff161415612e5257612e4d81613100565b612e91565b8173ffffffffffffffffffffffffffffffffffffffff168373ffffffffffffffffffffffffffffffffffffffff1614612e9057612e8f8382613149565b5b5b600073ffffffffffffffffffffffffffffffffffffffff168273ffffffffffffffffffffffffffffffffffffffff161415612ed457612ecf816132b6565b612f13565b8273ffffffffffffffffffffffffffffffffffffffff168273ffffffffffffffffffffffffffffffffffffffff1614612f1257612f118282613387565b5b5b505050565b612f228383613406565b612f2f6000848484612f73565b612f6e576040517f08c379a0000000000000000000000000000000000000000000000000000000008152600401612f6590614d19565b60405180910390fd5b505050565b6000612f948473ffffffffffffffffffffffffffffffffffffffff166135d4565b156130ee578373ffffffffffffffffffffffffffffffffffffffff1663150b7a02612fbd6123aa565b8786866040518563ffffffff1660e01b8152600401612fdf9493929190614e1f565b6020604051808303816000875af192505050801561301b57506040513d601f19601f820116820180604052508101906130189190614e80565b60015b61309e573d806000811461304b576040519150601f19603f3d011682016040523d82523d6000602084013e613050565b606091505b50600081511415613096576040517f08c379a000000000000000000000000000000000000000000000000000000000815260040161308d90614d19565b60405180910390fd5b805181602001fd5b63150b7a0260e01b7bffffffffffffffffffffffffffffffffffffffffffffffffffffffff1916817bffffffffffffffffffffffffffffffffffffffffffffffffffffffff1916149150506130f3565b600190505b949350505050565b505050565b6008805490506009600083815260200190815260200160002081905550600881908060018154018082558091505060019003906000526020600020016000909190919091505550565b600060016131568461156c565b6131609190614a43565b9050600060076000848152602001908152602001600020549050818114613245576000600660008673ffffffffffffffffffffffffffffffffffffffff1673ffffffffffffffffffffffffffffffffffffffff168152602001908152602001600020600084815260200190815260200160002054905080600660008773ffffffffffffffffffffffffffffffffffffffff1673ffffffffffffffffffffffffffffffffffffffff168152602001908152602001600020600084815260200190815260200160002081905550816007600083815260200190815260200160002081905550505b6007600084815260200190815260200160002060009055600660008573ffffffffffffffffffffffffffffffffffffffff1673ffffffffffffffffffffffffffffffffffffffff16815260200190815260200160002060008381526020019081526020016000206000905550505050565b600060016008805490506132ca9190614a43565b90506000600960008481526020019081526020016000205490506000600883815481106132fa576132f9614271565b5b90600052602060002001549050806008838154811061331c5761331b614271565b5b90600052602060002001819055508160096000838152602001908152602001600020819055506009600085815260200190815260200160002060009055600880548061336b5761336a614ead565b5b6001900381819060005260206000200160009055905550505050565b60006133928361156c565b905081600660008573ffffffffffffffffffffffffffffffffffffffff1673ffffffffffffffffffffffffffffffffffffffff168152602001908152602001600020600083815260200190815260200160002081905550806007600084815260200190815260200160002081905550505050565b600073ffffffffffffffffffffffffffffffffffffffff168273ffffffffffffffffffffffffffffffffffffffff161415613476576040517f08c379a000000000000000000000000000000000000000000000000000000000815260040161346d90614f28565b60405180910390fd5b61347f816123b2565b156134bf576040517f08c379a00000000000000000000000000000000000000000000000000000000081526004016134b690614f94565b60405180910390fd5b6134cb60008383612e04565b6001600360008473ffffffffffffffffffffffffffffffffffffffff1673ffffffffffffffffffffffffffffffffffffffff168152602001908152602001600020600082825461351b919061453a565b92505081905550816002600083815260200190815260200160002060006101000a81548173ffffffffffffffffffffffffffffffffffffffff021916908373ffffffffffffffffffffffffffffffffffffffff160217905550808273ffffffffffffffffffffffffffffffffffffffff16600073ffffffffffffffffffffffffffffffffffffffff167fddf252ad1be2c89b69c2b068fc378daa952ba7f163c4a11628f55a4df523b3ef60405160405180910390a45050565b600080823b905060008111915050919050565b8280546135f390613f1f565b90600052602060002090601f016020900481019282613615576000855561365c565b82601f1061362e57805160ff191683800117855561365c565b8280016001018555821561365c579182015b8281111561365b578251825591602001919060010190613640565b5b509050613669919061366d565b5090565b5b8082111561368657600081600090555060010161366e565b5090565b6000604051905090565b600080fd5b600080fd5b60007fffffffff0000000000000000000000000000000000000000000000000000000082169050919050565b6136d38161369e565b81146136de57600080fd5b50565b6000813590506136f0816136ca565b92915050565b60006020828403121561370c5761370b613694565b5b600061371a848285016136e1565b91505092915050565b60008115159050919050565b61373881613723565b82525050565b6000602082019050613753600083018461372f565b92915050565b61376281613723565b811461376d57600080fd5b50565b60008135905061377f81613759565b92915050565b60006020828403121561379b5761379a613694565b5b60006137a984828501613770565b91505092915050565b600081519050919050565b600082825260208201905092915050565b60005b838110156137ec5780820151818401526020810190506137d1565b838111156137fb576000848401525b50505050565b6000601f19601f8301169050919050565b600061381d826137b2565b61382781856137bd565b93506138378185602086016137ce565b61384081613801565b840191505092915050565b600060208201905081810360008301526138658184613812565b905092915050565b6000819050919050565b6138808161386d565b811461388b57600080fd5b50565b60008135905061389d81613877565b92915050565b6000602082840312156138b9576138b8613694565b5b60006138c78482850161388e565b91505092915050565b600073ffffffffffffffffffffffffffffffffffffffff82169050919050565b60006138fb826138d0565b9050919050565b61390b816138f0565b82525050565b60006020820190506139266000830184613902565b92915050565b613935816138f0565b811461394057600080fd5b50565b6000813590506139528161392c565b92915050565b6000806040838503121561396f5761396e613694565b5b600061397d85828601613943565b925050602061398e8582860161388e565b9150509250929050565b6139a18161386d565b82525050565b60006020820190506139bc6000830184613998565b92915050565b6000602082840312156139d8576139d7613694565b5b60006139e684828501613943565b91505092915050565b600080600060608486031215613a0857613a07613694565b5b6000613a1686828701613943565b9350506020613a2786828701613943565b9250506040613a388682870161388e565b9150509250925092565b600081519050919050565b600082825260208201905092915050565b6000819050602082019050919050565b613a778161386d565b82525050565b6000613a898383613a6e565b60208301905092915050565b6000602082019050919050565b6000613aad82613a42565b613ab78185613a4d565b9350613ac283613a5e565b8060005b83811015613af3578151613ada8882613a7d565b9750613ae583613a95565b925050600181019050613ac6565b5085935050505092915050565b60006020820190508181036000830152613b1a8184613aa2565b905092915050565b600080fd5b600080fd5b7f4e487b7100000000000000000000000000000000000000000000000000000000600052604160045260246000fd5b613b6482613801565b810181811067ffffffffffffffff82111715613b8357613b82613b2c565b5b80604052505050565b6000613b9661368a565b9050613ba28282613b5b565b919050565b600067ffffffffffffffff821115613bc257613bc1613b2c565b5b613bcb82613801565b9050602081019050919050565b82818337600083830152505050565b6000613bfa613bf584613ba7565b613b8c565b905082815260208101848484011115613c1657613c15613b27565b5b613c21848285613bd8565b509392505050565b600082601f830112613c3e57613c3d613b22565b5b8135613c4e848260208601613be7565b91505092915050565b600060208284031215613c6d57613c6c613694565b5b600082013567ffffffffffffffff811115613c8b57613c8a613699565b5b613c9784828501613c29565b91505092915050565b60008060408385031215613cb757613cb6613694565b5b6000613cc58582860161388e565b9250506020613cd685828601613943565b9150509250929050565b60008060408385031215613cf757613cf6613694565b5b6000613d0585828601613943565b9250506020613d1685828601613770565b9150509250929050565b600067ffffffffffffffff821115613d3b57613d3a613b2c565b5b613d4482613801565b9050602081019050919050565b6000613d64613d5f84613d20565b613b8c565b905082815260208101848484011115613d8057613d7f613b27565b5b613d8b848285613bd8565b509392505050565b600082601f830112613da857613da7613b22565b5b8135613db8848260208601613d51565b91505092915050565b60008060008060808587031215613ddb57613dda613694565b5b6000613de987828801613943565b9450506020613dfa87828801613943565b9350506040613e0b8782880161388e565b925050606085013567ffffffffffffffff811115613e2c57613e2b613699565b5b613e3887828801613d93565b91505092959194509250565b60008060408385031215613e5b57613e5a613694565b5b6000613e6985828601613943565b9250506020613e7a85828601613943565b9150509250929050565b7f4f776e61626c653a2063616c6c6572206973206e6f7420746865206f776e6572600082015250565b6000613eba6020836137bd565b9150613ec582613e84565b602082019050919050565b60006020820190508181036000830152613ee981613ead565b9050919050565b7f4e487b7100000000000000000000000000000000000000000000000000000000600052602260045260246000fd5b60006002820490506001821680613f3757607f821691505b60208210811415613f4b57613f4a613ef0565b5b50919050565b7f4552433732313a20617070726f76656420717565727920666f72206e6f6e657860008201527f697374656e7420746f6b656e0000000000000000000000000000000000000000602082015250565b6000613fad602c836137bd565b9150613fb882613f51565b604082019050919050565b60006020820190508181036000830152613fdc81613fa0565b9050919050565b7f4552433732313a20617070726f76616c20746f2063757272656e74206f776e6560008201527f7200000000000000000000000000000000000000000000000000000000000000602082015250565b600061403f6021836137bd565b915061404a82613fe3565b604082019050919050565b6000602082019050818103600083015261406e81614032565b9050919050565b7f4552433732313a20617070726f76652063616c6c6572206973206e6f74206f7760008201527f6e6572206e6f7220617070726f76656420666f7220616c6c0000000000000000602082015250565b60006140d16038836137bd565b91506140dc82614075565b604082019050919050565b60006020820190508181036000830152614100816140c4565b9050919050565b7f4552433732313a207472616e736665722063616c6c6572206973206e6f74206f60008201527f776e6572206e6f7220617070726f766564000000000000000000000000000000602082015250565b60006141636031836137bd565b915061416e82614107565b604082019050919050565b6000602082019050818103600083015261419281614156565b9050919050565b7f455243373231456e756d657261626c653a206f776e657220696e646578206f7560008201527f74206f6620626f756e6473000000000000000000000000000000000000000000602082015250565b60006141f5602b836137bd565b915061420082614199565b604082019050919050565b60006020820190508181036000830152614224816141e8565b9050919050565b600081905092915050565b50565b600061424660008361422b565b915061425182614236565b600082019050919050565b600061426782614239565b9150819050919050565b7f4e487b7100000000000000000000000000000000000000000000000000000000600052603260045260246000fd5b7f4e487b7100000000000000000000000000000000000000000000000000000000600052601160045260246000fd5b60006142da8261386d565b91507fffffffffffffffffffffffffffffffffffffffffffffffffffffffffffffffff82141561430d5761430c6142a0565b5b600182019050919050565b7f455243373231456e756d657261626c653a20676c6f62616c20696e646578206f60008201527f7574206f6620626f756e64730000000000000000000000000000000000000000602082015250565b6000614374602c836137bd565b915061437f82614318565b604082019050919050565b600060208201905081810360008301526143a381614367565b9050919050565b7f4552433732313a206f776e657220717565727920666f72206e6f6e657869737460008201527f656e7420746f6b656e0000000000000000000000000000000000000000000000602082015250565b60006144066029836137bd565b9150614411826143aa565b604082019050919050565b60006020820190508181036000830152614435816143f9565b9050919050565b7f4552433732313a2062616c616e636520717565727920666f7220746865207a6560008201527f726f206164647265737300000000000000000000000000000000000000000000602082015250565b6000614498602a836137bd565b91506144a38261443c565b604082019050919050565b600060208201905081810360008301526144c78161448b565b9050919050565b7f6e65656420746f206d696e74206174206c656173742031204e46540000000000600082015250565b6000614504601b836137bd565b915061450f826144ce565b602082019050919050565b60006020820190508181036000830152614533816144f7565b9050919050565b60006145458261386d565b91506145508361386d565b9250827fffffffffffffffffffffffffffffffffffffffffffffffffffffffffffffffff03821115614585576145846142a0565b5b828201905092915050565b7f6d6178204e4654206c696d697420657863656564656400000000000000000000600082015250565b60006145c66016836137bd565b91506145d182614590565b602082019050919050565b600060208201905081810360008301526145f5816145b9565b9050919050565b7f74686520636f6e74726163742069732070617573656400000000000000000000600082015250565b60006146326016836137bd565b915061463d826145fc565b602082019050919050565b6000602082019050818103600083015261466181614625565b9050919050565b7f4552433732314d657461646174613a2055524920717565727920666f72206e6f60008201527f6e6578697374656e7420746f6b656e0000000000000000000000000000000000602082015250565b60006146c4602f836137bd565b91506146cf82614668565b604082019050919050565b600060208201905081810360008301526146f3816146b7565b9050919050565b600081905092915050565b6000614710826137b2565b61471a81856146fa565b935061472a8185602086016137ce565b80840191505092915050565b60008190508160005260206000209050919050565b6000815461475881613f1f565b61476281866146fa565b9450600182166000811461477d576001811461478e576147c1565b60ff198316865281860193506147c1565b61479785614736565b60005b838110156147b95781548189015260018201915060208101905061479a565b838801955050505b50505092915050565b60006147d68286614705565b91506147e28285614705565b91506147ee828461474b565b9150819050949350505050565b7f4f776e61626c653a206e6577206f776e657220697320746865207a65726f206160008201527f6464726573730000000000000000000000000000000000000000000000000000602082015250565b60006148576026836137bd565b9150614862826147fb565b604082019050919050565b600060208201905081810360008301526148868161484a565b9050919050565b7f4552433732313a206f70657261746f7220717565727920666f72206e6f6e657860008201527f697374656e7420746f6b656e0000000000000000000000000000000000000000602082015250565b60006148e9602c836137bd565b91506148f48261488d565b604082019050919050565b60006020820190508181036000830152614918816148dc565b9050919050565b7f4552433732313a207472616e73666572206f6620746f6b656e2074686174206960008201527f73206e6f74206f776e0000000000000000000000000000000000000000000000602082015250565b600061497b6029836137bd565b91506149868261491f565b604082019050919050565b600060208201905081810360008301526149aa8161496e565b9050919050565b7f4552433732313a207472616e7366657220746f20746865207a65726f2061646460008201527f7265737300000000000000000000000000000000000000000000000000000000602082015250565b6000614a0d6024836137bd565b9150614a18826149b1565b604082019050919050565b60006020820190508181036000830152614a3c81614a00565b9050919050565b6000614a4e8261386d565b9150614a598361386d565b925082821015614a6c57614a6b6142a0565b5b828203905092915050565b7f6d6178204e465420706572206164647265737320657863656564656400000000600082015250565b6000614aad601c836137bd565b9150614ab882614a77565b602082019050919050565b60006020820190508181036000830152614adc81614aa0565b9050919050565b6000614aee8261386d565b9150614af98361386d565b9250817fffffffffffffffffffffffffffffffffffffffffffffffffffffffffffffffff0483118215151615614b3257614b316142a0565b5b828202905092915050565b7f696e73756666696369656e742066756e64730000000000000000000000000000600082015250565b6000614b736012836137bd565b9150614b7e82614b3d565b602082019050919050565b60006020820190508181036000830152614ba281614b66565b9050919050565b7f6d6178206d696e7420616d6f756e7420706572207472616e73616374696f6e2060008201527f6578636565646564000000000000000000000000000000000000000000000000602082015250565b6000614c056028836137bd565b9150614c1082614ba9565b604082019050919050565b60006020820190508181036000830152614c3481614bf8565b9050919050565b7f4552433732313a20617070726f766520746f2063616c6c657200000000000000600082015250565b6000614c716019836137bd565b9150614c7c82614c3b565b602082019050919050565b60006020820190508181036000830152614ca081614c64565b9050919050565b7f4552433732313a207472616e7366657220746f206e6f6e20455243373231526560008201527f63656976657220696d706c656d656e7465720000000000000000000000000000602082015250565b6000614d036032836137bd565b9150614d0e82614ca7565b604082019050919050565b60006020820190508181036000830152614d3281614cf6565b9050919050565b7f4e487b7100000000000000000000000000000000000000000000000000000000600052601260045260246000fd5b6000614d738261386d565b9150614d7e8361386d565b925082614d8e57614d8d614d39565b5b828204905092915050565b6000614da48261386d565b9150614daf8361386d565b925082614dbf57614dbe614d39565b5b828206905092915050565b600081519050919050565b600082825260208201905092915050565b6000614df182614dca565b614dfb8185614dd5565b9350614e0b8185602086016137ce565b614e1481613801565b840191505092915050565b6000608082019050614e346000830187613902565b614e416020830186613902565b614e4e6040830185613998565b8181036060830152614e608184614de6565b905095945050505050565b600081519050614e7a816136ca565b92915050565b600060208284031215614e9657614e95613694565b5b6000614ea484828501614e6b565b91505092915050565b7f4e487b7100000000000000000000000000000000000000000000000000000000600052603160045260246000fd5b7f4552433732313a206d696e7420746f20746865207a65726f2061646472657373600082015250565b6000614f126020836137bd565b9150614f1d82614edc565b602082019050919050565b60006020820190508181036000830152614f4181614f05565b9050919050565b7f4552433732313a20746f6b656e20616c7265616479206d696e74656400000000600082015250565b6000614f7e601c836137bd565b9150614f8982614f48565b602082019050919050565b60006020820190508181036000830152614fad81614f71565b905091905056fea26469706673582212203b30779c6ff3dc3635868ff91fe98776b2ae25c6d879bd827462c6fd348cae2564736f6c634300080b0033",
			"opcodes": "PUSH1 0x80 PUSH1 0x40 MSTORE PUSH1 0x40 MLOAD DUP1 PUSH1 0x40 ADD PUSH1 0x40 MSTORE DUP1 PUSH1 0x5 DUP2 MSTORE PUSH1 0x20 ADD PUSH32 0x2E6A736F6E000000000000000000000000000000000000000000000000000000 DUP2 MSTORE POP PUSH1 0xC SWAP1 DUP1 MLOAD SWAP1 PUSH1 0x20 ADD SWAP1 PUSH3 0x51 SWAP3 SWAP2 SWAP1 PUSH3 0x2F6 JUMP JUMPDEST POP PUSH7 0x38D7EA4C68000 PUSH1 0xE SSTORE PUSH2 0x270F PUSH1 0xF SSTORE PUSH1 0xA PUSH1 0x10 SSTORE PUSH1 0x1 PUSH1 0x11 SSTORE PUSH1 0x64 PUSH1 0x12 SSTORE PUSH4 0x61AEC020 PUSH1 0x13 SSTORE PUSH1 0x0 PUSH1 0x14 PUSH1 0x0 PUSH2 0x100 EXP DUP2 SLOAD DUP2 PUSH1 0xFF MUL NOT AND SWAP1 DUP4 ISZERO ISZERO MUL OR SWAP1 SSTORE POP PUSH1 0x0 PUSH1 0x14 PUSH1 0x1 PUSH2 0x100 EXP DUP2 SLOAD DUP2 PUSH1 0xFF MUL NOT AND SWAP1 DUP4 ISZERO ISZERO MUL OR SWAP1 SSTORE POP CALLVALUE DUP1 ISZERO PUSH3 0xBD JUMPI PUSH1 0x0 DUP1 REVERT JUMPDEST POP PUSH1 0x40 MLOAD PUSH3 0x56DE CODESIZE SUB DUP1 PUSH3 0x56DE DUP4 CODECOPY DUP2 DUP2 ADD PUSH1 0x40 MSTORE DUP2 ADD SWAP1 PUSH3 0xE3 SWAP2 SWAP1 PUSH3 0x543 JUMP JUMPDEST DUP3 DUP3 DUP2 PUSH1 0x0 SWAP1 DUP1 MLOAD SWAP1 PUSH1 0x20 ADD SWAP1 PUSH3 0xFD SWAP3 SWAP2 SWAP1 PUSH3 0x2F6 JUMP JUMPDEST POP DUP1 PUSH1 0x1 SWAP1 DUP1 MLOAD SWAP1 PUSH1 0x20 ADD SWAP1 PUSH3 0x116 SWAP3 SWAP2 SWAP1 PUSH3 0x2F6 JUMP JUMPDEST POP POP POP PUSH3 0x139 PUSH3 0x12D PUSH3 0x153 PUSH1 0x20 SHL PUSH1 0x20 SHR JUMP JUMPDEST PUSH3 0x15B PUSH1 0x20 SHL PUSH1 0x20 SHR JUMP JUMPDEST PUSH3 0x14A DUP2 PUSH3 0x221 PUSH1 0x20 SHL PUSH1 0x20 SHR JUMP JUMPDEST POP POP POP PUSH3 0x6E4 JUMP JUMPDEST PUSH1 0x0 CALLER SWAP1 POP SWAP1 JUMP JUMPDEST PUSH1 0x0 PUSH1 0xA PUSH1 0x0 SWAP1 SLOAD SWAP1 PUSH2 0x100 EXP SWAP1 DIV PUSH20 0xFFFFFFFFFFFFFFFFFFFFFFFFFFFFFFFFFFFFFFFF AND SWAP1 POP DUP2 PUSH1 0xA PUSH1 0x0 PUSH2 0x100 EXP DUP2 SLOAD DUP2 PUSH20 0xFFFFFFFFFFFFFFFFFFFFFFFFFFFFFFFFFFFFFFFF MUL NOT AND SWAP1 DUP4 PUSH20 0xFFFFFFFFFFFFFFFFFFFFFFFFFFFFFFFFFFFFFFFF AND MUL OR SWAP1 SSTORE POP DUP2 PUSH20 0xFFFFFFFFFFFFFFFFFFFFFFFFFFFFFFFFFFFFFFFF AND DUP2 PUSH20 0xFFFFFFFFFFFFFFFFFFFFFFFFFFFFFFFFFFFFFFFF AND PUSH32 0x8BE0079C531659141344CD1FD0A4F28419497F9722A3DAAFE3B4186F6B6457E0 PUSH1 0x40 MLOAD PUSH1 0x40 MLOAD DUP1 SWAP2 SUB SWAP1 LOG3 POP POP JUMP JUMPDEST PUSH3 0x231 PUSH3 0x153 PUSH1 0x20 SHL PUSH1 0x20 SHR JUMP JUMPDEST PUSH20 0xFFFFFFFFFFFFFFFFFFFFFFFFFFFFFFFFFFFFFFFF AND PUSH3 0x257 PUSH3 0x2CC PUSH1 0x20 SHL PUSH1 0x20 SHR JUMP JUMPDEST PUSH20 0xFFFFFFFFFFFFFFFFFFFFFFFFFFFFFFFFFFFFFFFF AND EQ PUSH3 0x2B0 JUMPI PUSH1 0x40 MLOAD PUSH32 0x8C379A000000000000000000000000000000000000000000000000000000000 DUP2 MSTORE PUSH1 0x4 ADD PUSH3 0x2A7 SWAP1 PUSH3 0x65D JUMP JUMPDEST PUSH1 0x40 MLOAD DUP1 SWAP2 SUB SWAP1 REVERT JUMPDEST DUP1 PUSH1 0xD SWAP1 DUP1 MLOAD SWAP1 PUSH1 0x20 ADD SWAP1 PUSH3 0x2C8 SWAP3 SWAP2 SWAP1 PUSH3 0x2F6 JUMP JUMPDEST POP POP JUMP JUMPDEST PUSH1 0x0 PUSH1 0xA PUSH1 0x0 SWAP1 SLOAD SWAP1 PUSH2 0x100 EXP SWAP1 DIV PUSH20 0xFFFFFFFFFFFFFFFFFFFFFFFFFFFFFFFFFFFFFFFF AND SWAP1 POP SWAP1 JUMP JUMPDEST DUP3 DUP1 SLOAD PUSH3 0x304 SWAP1 PUSH3 0x6AE JUMP JUMPDEST SWAP1 PUSH1 0x0 MSTORE PUSH1 0x20 PUSH1 0x0 KECCAK256 SWAP1 PUSH1 0x1F ADD PUSH1 0x20 SWAP1 DIV DUP2 ADD SWAP3 DUP3 PUSH3 0x328 JUMPI PUSH1 0x0 DUP6 SSTORE PUSH3 0x374 JUMP JUMPDEST DUP3 PUSH1 0x1F LT PUSH3 0x343 JUMPI DUP1 MLOAD PUSH1 0xFF NOT AND DUP4 DUP1 ADD OR DUP6 SSTORE PUSH3 0x374 JUMP JUMPDEST DUP3 DUP1 ADD PUSH1 0x1 ADD DUP6 SSTORE DUP3 ISZERO PUSH3 0x374 JUMPI SWAP2 DUP3 ADD JUMPDEST DUP3 DUP2 GT ISZERO PUSH3 0x373 JUMPI DUP3 MLOAD DUP3 SSTORE SWAP2 PUSH1 0x20 ADD SWAP2 SWAP1 PUSH1 0x1 ADD SWAP1 PUSH3 0x356 JUMP JUMPDEST JUMPDEST POP SWAP1 POP PUSH3 0x383 SWAP2 SWAP1 PUSH3 0x387 JUMP JUMPDEST POP SWAP1 JUMP JUMPDEST JUMPDEST DUP1 DUP3 GT ISZERO PUSH3 0x3A2 JUMPI PUSH1 0x0 DUP2 PUSH1 0x0 SWAP1 SSTORE POP PUSH1 0x1 ADD PUSH3 0x388 JUMP JUMPDEST POP SWAP1 JUMP JUMPDEST PUSH1 0x0 PUSH1 0x40 MLOAD SWAP1 POP SWAP1 JUMP JUMPDEST PUSH1 0x0 DUP1 REVERT JUMPDEST PUSH1 0x0 DUP1 REVERT JUMPDEST PUSH1 0x0 DUP1 REVERT JUMPDEST PUSH1 0x0 DUP1 REVERT JUMPDEST PUSH1 0x0 PUSH1 0x1F NOT PUSH1 0x1F DUP4 ADD AND SWAP1 POP SWAP2 SWAP1 POP JUMP JUMPDEST PUSH32 0x4E487B7100000000000000000000000000000000000000000000000000000000 PUSH1 0x0 MSTORE PUSH1 0x41 PUSH1 0x4 MSTORE PUSH1 0x24 PUSH1 0x0 REVERT JUMPDEST PUSH3 0x40F DUP3 PUSH3 0x3C4 JUMP JUMPDEST DUP2 ADD DUP2 DUP2 LT PUSH8 0xFFFFFFFFFFFFFFFF DUP3 GT OR ISZERO PUSH3 0x431 JUMPI PUSH3 0x430 PUSH3 0x3D5 JUMP JUMPDEST JUMPDEST DUP1 PUSH1 0x40 MSTORE POP POP POP JUMP JUMPDEST PUSH1 0x0 PUSH3 0x446 PUSH3 0x3A6 JUMP JUMPDEST SWAP1 POP PUSH3 0x454 DUP3 DUP3 PUSH3 0x404 JUMP JUMPDEST SWAP2 SWAP1 POP JUMP JUMPDEST PUSH1 0x0 PUSH8 0xFFFFFFFFFFFFFFFF DUP3 GT ISZERO PUSH3 0x477 JUMPI PUSH3 0x476 PUSH3 0x3D5 JUMP JUMPDEST JUMPDEST PUSH3 0x482 DUP3 PUSH3 0x3C4 JUMP JUMPDEST SWAP1 POP PUSH1 0x20 DUP2 ADD SWAP1 POP SWAP2 SWAP1 POP JUMP JUMPDEST PUSH1 0x0 JUMPDEST DUP4 DUP2 LT ISZERO PUSH3 0x4AF JUMPI DUP1 DUP3 ADD MLOAD DUP2 DUP5 ADD MSTORE PUSH1 0x20 DUP2 ADD SWAP1 POP PUSH3 0x492 JUMP JUMPDEST DUP4 DUP2 GT ISZERO PUSH3 0x4BF JUMPI PUSH1 0x0 DUP5 DUP5 ADD MSTORE JUMPDEST POP POP POP POP JUMP JUMPDEST PUSH1 0x0 PUSH3 0x4DC PUSH3 0x4D6 DUP5 PUSH3 0x459 JUMP JUMPDEST PUSH3 0x43A JUMP JUMPDEST SWAP1 POP DUP3 DUP2 MSTORE PUSH1 0x20 DUP2 ADD DUP5 DUP5 DUP5 ADD GT ISZERO PUSH3 0x4FB JUMPI PUSH3 0x4FA PUSH3 0x3BF JUMP JUMPDEST JUMPDEST PUSH3 0x508 DUP5 DUP3 DUP6 PUSH3 0x48F JUMP JUMPDEST POP SWAP4 SWAP3 POP POP POP JUMP JUMPDEST PUSH1 0x0 DUP3 PUSH1 0x1F DUP4 ADD SLT PUSH3 0x528 JUMPI PUSH3 0x527 PUSH3 0x3BA JUMP JUMPDEST JUMPDEST DUP2 MLOAD PUSH3 0x53A DUP5 DUP3 PUSH1 0x20 DUP7 ADD PUSH3 0x4C5 JUMP JUMPDEST SWAP2 POP POP SWAP3 SWAP2 POP POP JUMP JUMPDEST PUSH1 0x0 DUP1 PUSH1 0x0 PUSH1 0x60 DUP5 DUP7 SUB SLT ISZERO PUSH3 0x55F JUMPI PUSH3 0x55E PUSH3 0x3B0 JUMP JUMPDEST JUMPDEST PUSH1 0x0 DUP5 ADD MLOAD PUSH8 0xFFFFFFFFFFFFFFFF DUP2 GT ISZERO PUSH3 0x580 JUMPI PUSH3 0x57F PUSH3 0x3B5 JUMP JUMPDEST JUMPDEST PUSH3 0x58E DUP7 DUP3 DUP8 ADD PUSH3 0x510 JUMP JUMPDEST SWAP4 POP POP PUSH1 0x20 DUP5 ADD MLOAD PUSH8 0xFFFFFFFFFFFFFFFF DUP2 GT ISZERO PUSH3 0x5B2 JUMPI PUSH3 0x5B1 PUSH3 0x3B5 JUMP JUMPDEST JUMPDEST PUSH3 0x5C0 DUP7 DUP3 DUP8 ADD PUSH3 0x510 JUMP JUMPDEST SWAP3 POP POP PUSH1 0x40 DUP5 ADD MLOAD PUSH8 0xFFFFFFFFFFFFFFFF DUP2 GT ISZERO PUSH3 0x5E4 JUMPI PUSH3 0x5E3 PUSH3 0x3B5 JUMP JUMPDEST JUMPDEST PUSH3 0x5F2 DUP7 DUP3 DUP8 ADD PUSH3 0x510 JUMP JUMPDEST SWAP2 POP POP SWAP3 POP SWAP3 POP SWAP3 JUMP JUMPDEST PUSH1 0x0 DUP3 DUP3 MSTORE PUSH1 0x20 DUP3 ADD SWAP1 POP SWAP3 SWAP2 POP POP JUMP JUMPDEST PUSH32 0x4F776E61626C653A2063616C6C6572206973206E6F7420746865206F776E6572 PUSH1 0x0 DUP3 ADD MSTORE POP JUMP JUMPDEST PUSH1 0x0 PUSH3 0x645 PUSH1 0x20 DUP4 PUSH3 0x5FC JUMP JUMPDEST SWAP2 POP PUSH3 0x652 DUP3 PUSH3 0x60D JUMP JUMPDEST PUSH1 0x20 DUP3 ADD SWAP1 POP SWAP2 SWAP1 POP JUMP JUMPDEST PUSH1 0x0 PUSH1 0x20 DUP3 ADD SWAP1 POP DUP2 DUP2 SUB PUSH1 0x0 DUP4 ADD MSTORE PUSH3 0x678 DUP2 PUSH3 0x636 JUMP JUMPDEST SWAP1 POP SWAP2 SWAP1 POP JUMP JUMPDEST PUSH32 0x4E487B7100000000000000000000000000000000000000000000000000000000 PUSH1 0x0 MSTORE PUSH1 0x22 PUSH1 0x4 MSTORE PUSH1 0x24 PUSH1 0x0 REVERT JUMPDEST PUSH1 0x0 PUSH1 0x2 DUP3 DIV SWAP1 POP PUSH1 0x1 DUP3 AND DUP1 PUSH3 0x6C7 JUMPI PUSH1 0x7F DUP3 AND SWAP2 POP JUMPDEST PUSH1 0x20 DUP3 LT DUP2 EQ ISZERO PUSH3 0x6DE JUMPI PUSH3 0x6DD PUSH3 0x67F JUMP JUMPDEST JUMPDEST POP SWAP2 SWAP1 POP JUMP JUMPDEST PUSH2 0x4FEA DUP1 PUSH3 0x6F4 PUSH1 0x0 CODECOPY PUSH1 0x0 RETURN INVALID PUSH1 0x80 PUSH1 0x40 MSTORE PUSH1 0x4 CALLDATASIZE LT PUSH2 0x288 JUMPI PUSH1 0x0 CALLDATALOAD PUSH1 0xE0 SHR DUP1 PUSH4 0x6F9FB98A GT PUSH2 0x15A JUMPI DUP1 PUSH4 0xA475B5DD GT PUSH2 0xC1 JUMPI DUP1 PUSH4 0xD0EB26B0 GT PUSH2 0x7A JUMPI DUP1 PUSH4 0xD0EB26B0 EQ PUSH2 0x9A2 JUMPI DUP1 PUSH4 0xDA3EF23F EQ PUSH2 0x9CB JUMPI DUP1 PUSH4 0xE985E9C5 EQ PUSH2 0x9F4 JUMPI DUP1 PUSH4 0xECED3873 EQ PUSH2 0xA31 JUMPI DUP1 PUSH4 0xF2C4CE1E EQ PUSH2 0xA5C JUMPI DUP1 PUSH4 0xF2FDE38B EQ PUSH2 0xA85 JUMPI PUSH2 0x288 JUMP JUMPDEST DUP1 PUSH4 0xA475B5DD EQ PUSH2 0x8A4 JUMPI DUP1 PUSH4 0xB88D4FDE EQ PUSH2 0x8BB JUMPI DUP1 PUSH4 0xB8FC1051 EQ PUSH2 0x8E4 JUMPI DUP1 PUSH4 0xBA7D2C76 EQ PUSH2 0x90F JUMPI DUP1 PUSH4 0xC6682862 EQ PUSH2 0x93A JUMPI DUP1 PUSH4 0xC87B56DD EQ PUSH2 0x965 JUMPI PUSH2 0x288 JUMP JUMPDEST DUP1 PUSH4 0x83A076BE GT PUSH2 0x113 JUMPI DUP1 PUSH4 0x83A076BE EQ PUSH2 0x7B5 JUMPI DUP1 PUSH4 0x8DA5CB5B EQ PUSH2 0x7DE JUMPI DUP1 PUSH4 0x95D89B41 EQ PUSH2 0x809 JUMPI DUP1 PUSH4 0xA035B1FE EQ PUSH2 0x834 JUMPI DUP1 PUSH4 0xA0712D68 EQ PUSH2 0x85F JUMPI DUP1 PUSH4 0xA22CB465 EQ PUSH2 0x87B JUMPI PUSH2 0x288 JUMP JUMPDEST DUP1 PUSH4 0x6F9FB98A EQ PUSH2 0x6B7 JUMPI DUP1 PUSH4 0x70A08231 EQ PUSH2 0x6E2 JUMPI DUP1 PUSH4 0x714C5398 EQ PUSH2 0x71F JUMPI DUP1 PUSH4 0x715018A6 EQ PUSH2 0x74A JUMPI DUP1 PUSH4 0x7F00C7A6 EQ PUSH2 0x761 JUMPI DUP1 PUSH4 0x831E60DE EQ PUSH2 0x78A JUMPI PUSH2 0x288 JUMP JUMPDEST DUP1 PUSH4 0x2F745C59 GT PUSH2 0x1FE JUMPI DUP1 PUSH4 0x4F6CCCE7 GT PUSH2 0x1B7 JUMPI DUP1 PUSH4 0x4F6CCCE7 EQ PUSH2 0x595 JUMPI DUP1 PUSH4 0x51830227 EQ PUSH2 0x5D2 JUMPI DUP1 PUSH4 0x55F804B3 EQ PUSH2 0x5FD JUMPI DUP1 PUSH4 0x5C975ABB EQ PUSH2 0x626 JUMPI DUP1 PUSH4 0x6352211E EQ PUSH2 0x651 JUMPI DUP1 PUSH4 0x6F8B44B0 EQ PUSH2 0x68E JUMPI PUSH2 0x288 JUMP JUMPDEST DUP1 PUSH4 0x2F745C59 EQ PUSH2 0x494 JUMPI DUP1 PUSH4 0x32CB6B0C EQ PUSH2 0x4D1 JUMPI DUP1 PUSH4 0x3CCFD60B EQ PUSH2 0x4FC JUMPI DUP1 PUSH4 0x42842E0E EQ PUSH2 0x506 JUMPI DUP1 PUSH4 0x438B6300 EQ PUSH2 0x52F JUMPI DUP1 PUSH4 0x44A0D68A EQ PUSH2 0x56C JUMPI PUSH2 0x288 JUMP JUMPDEST DUP1 PUSH4 0x95EA7B3 GT PUSH2 0x250 JUMPI DUP1 PUSH4 0x95EA7B3 EQ PUSH2 0x386 JUMPI DUP1 PUSH4 0xE54A883 EQ PUSH2 0x3AF JUMPI DUP1 PUSH4 0x18160DDD EQ PUSH2 0x3D8 JUMPI DUP1 PUSH4 0x18CAE269 EQ PUSH2 0x403 JUMPI DUP1 PUSH4 0x23B872DD EQ PUSH2 0x440 JUMPI DUP1 PUSH4 0x2E09282E EQ PUSH2 0x469 JUMPI PUSH2 0x288 JUMP JUMPDEST DUP1 PUSH4 0x1FFC9A7 EQ PUSH2 0x28D JUMPI DUP1 PUSH4 0x2329A29 EQ PUSH2 0x2CA JUMPI DUP1 PUSH4 0x6FDDE03 EQ PUSH2 0x2F3 JUMPI DUP1 PUSH4 0x81812FC EQ PUSH2 0x31E JUMPI DUP1 PUSH4 0x81C8C44 EQ PUSH2 0x35B JUMPI JUMPDEST PUSH1 0x0 DUP1 REVERT JUMPDEST CALLVALUE DUP1 ISZERO PUSH2 0x299 JUMPI PUSH1 0x0 DUP1 REVERT JUMPDEST POP PUSH2 0x2B4 PUSH1 0x4 DUP1 CALLDATASIZE SUB DUP2 ADD SWAP1 PUSH2 0x2AF SWAP2 SWAP1 PUSH2 0x36F6 JUMP JUMPDEST PUSH2 0xAAE JUMP JUMPDEST PUSH1 0x40 MLOAD PUSH2 0x2C1 SWAP2 SWAP1 PUSH2 0x373E JUMP JUMPDEST PUSH1 0x40 MLOAD DUP1 SWAP2 SUB SWAP1 RETURN JUMPDEST CALLVALUE DUP1 ISZERO PUSH2 0x2D6 JUMPI PUSH1 0x0 DUP1 REVERT JUMPDEST POP PUSH2 0x2F1 PUSH1 0x4 DUP1 CALLDATASIZE SUB DUP2 ADD SWAP1 PUSH2 0x2EC SWAP2 SWAP1 PUSH2 0x3785 JUMP JUMPDEST PUSH2 0xB28 JUMP JUMPDEST STOP JUMPDEST CALLVALUE DUP1 ISZERO PUSH2 0x2FF JUMPI PUSH1 0x0 DUP1 REVERT JUMPDEST POP PUSH2 0x308 PUSH2 0xBC1 JUMP JUMPDEST PUSH1 0x40 MLOAD PUSH2 0x315 SWAP2 SWAP1 PUSH2 0x384B JUMP JUMPDEST PUSH1 0x40 MLOAD DUP1 SWAP2 SUB SWAP1 RETURN JUMPDEST CALLVALUE DUP1 ISZERO PUSH2 0x32A JUMPI PUSH1 0x0 DUP1 REVERT JUMPDEST POP PUSH2 0x345 PUSH1 0x4 DUP1 CALLDATASIZE SUB DUP2 ADD SWAP1 PUSH2 0x340 SWAP2 SWAP1 PUSH2 0x38A3 JUMP JUMPDEST PUSH2 0xC53 JUMP JUMPDEST PUSH1 0x40 MLOAD PUSH2 0x352 SWAP2 SWAP1 PUSH2 0x3911 JUMP JUMPDEST PUSH1 0x40 MLOAD DUP1 SWAP2 SUB SWAP1 RETURN JUMPDEST CALLVALUE DUP1 ISZERO PUSH2 0x367 JUMPI PUSH1 0x0 DUP1 REVERT JUMPDEST POP PUSH2 0x370 PUSH2 0xCD8 JUMP JUMPDEST PUSH1 0x40 MLOAD PUSH2 0x37D SWAP2 SWAP1 PUSH2 0x384B JUMP JUMPDEST PUSH1 0x40 MLOAD DUP1 SWAP2 SUB SWAP1 RETURN JUMPDEST CALLVALUE DUP1 ISZERO PUSH2 0x392 JUMPI PUSH1 0x0 DUP1 REVERT JUMPDEST POP PUSH2 0x3AD PUSH1 0x4 DUP1 CALLDATASIZE SUB DUP2 ADD SWAP1 PUSH2 0x3A8 SWAP2 SWAP1 PUSH2 0x3958 JUMP JUMPDEST PUSH2 0xD66 JUMP JUMPDEST STOP JUMPDEST CALLVALUE DUP1 ISZERO PUSH2 0x3BB JUMPI PUSH1 0x0 DUP1 REVERT JUMPDEST POP PUSH2 0x3D6 PUSH1 0x4 DUP1 CALLDATASIZE SUB DUP2 ADD SWAP1 PUSH2 0x3D1 SWAP2 SWAP1 PUSH2 0x38A3 JUMP JUMPDEST PUSH2 0xE7E JUMP JUMPDEST STOP JUMPDEST CALLVALUE DUP1 ISZERO PUSH2 0x3E4 JUMPI PUSH1 0x0 DUP1 REVERT JUMPDEST POP PUSH2 0x3ED PUSH2 0xF04 JUMP JUMPDEST PUSH1 0x40 MLOAD PUSH2 0x3FA SWAP2 SWAP1 PUSH2 0x39A7 JUMP JUMPDEST PUSH1 0x40 MLOAD DUP1 SWAP2 SUB SWAP1 RETURN JUMPDEST CALLVALUE DUP1 ISZERO PUSH2 0x40F JUMPI PUSH1 0x0 DUP1 REVERT JUMPDEST POP PUSH2 0x42A PUSH1 0x4 DUP1 CALLDATASIZE SUB DUP2 ADD SWAP1 PUSH2 0x425 SWAP2 SWAP1 PUSH2 0x39C2 JUMP JUMPDEST PUSH2 0xF11 JUMP JUMPDEST PUSH1 0x40 MLOAD PUSH2 0x437 SWAP2 SWAP1 PUSH2 0x39A7 JUMP JUMPDEST PUSH1 0x40 MLOAD DUP1 SWAP2 SUB SWAP1 RETURN JUMPDEST CALLVALUE DUP1 ISZERO PUSH2 0x44C JUMPI PUSH1 0x0 DUP1 REVERT JUMPDEST POP PUSH2 0x467 PUSH1 0x4 DUP1 CALLDATASIZE SUB DUP2 ADD SWAP1 PUSH2 0x462 SWAP2 SWAP1 PUSH2 0x39EF JUMP JUMPDEST PUSH2 0xF29 JUMP JUMPDEST STOP JUMPDEST CALLVALUE DUP1 ISZERO PUSH2 0x475 JUMPI PUSH1 0x0 DUP1 REVERT JUMPDEST POP PUSH2 0x47E PUSH2 0xF89 JUMP JUMPDEST PUSH1 0x40 MLOAD PUSH2 0x48B SWAP2 SWAP1 PUSH2 0x39A7 JUMP JUMPDEST PUSH1 0x40 MLOAD DUP1 SWAP2 SUB SWAP1 RETURN JUMPDEST CALLVALUE DUP1 ISZERO PUSH2 0x4A0 JUMPI PUSH1 0x0 DUP1 REVERT JUMPDEST POP PUSH2 0x4BB PUSH1 0x4 DUP1 CALLDATASIZE SUB DUP2 ADD SWAP1 PUSH2 0x4B6 SWAP2 SWAP1 PUSH2 0x3958 JUMP JUMPDEST PUSH2 0xF8F JUMP JUMPDEST PUSH1 0x40 MLOAD PUSH2 0x4C8 SWAP2 SWAP1 PUSH2 0x39A7 JUMP JUMPDEST PUSH1 0x40 MLOAD DUP1 SWAP2 SUB SWAP1 RETURN JUMPDEST CALLVALUE DUP1 ISZERO PUSH2 0x4DD JUMPI PUSH1 0x0 DUP1 REVERT JUMPDEST POP PUSH2 0x4E6 PUSH2 0x1034 JUMP JUMPDEST PUSH1 0x40 MLOAD PUSH2 0x4F3 SWAP2 SWAP1 PUSH2 0x39A7 JUMP JUMPDEST PUSH1 0x40 MLOAD DUP1 SWAP2 SUB SWAP1 RETURN JUMPDEST PUSH2 0x504 PUSH2 0x103A JUMP JUMPDEST STOP JUMPDEST CALLVALUE DUP1 ISZERO PUSH2 0x512 JUMPI PUSH1 0x0 DUP1 REVERT JUMPDEST POP PUSH2 0x52D PUSH1 0x4 DUP1 CALLDATASIZE SUB DUP2 ADD SWAP1 PUSH2 0x528 SWAP2 SWAP1 PUSH2 0x39EF JUMP JUMPDEST PUSH2 0x112F JUMP JUMPDEST STOP JUMPDEST CALLVALUE DUP1 ISZERO PUSH2 0x53B JUMPI PUSH1 0x0 DUP1 REVERT JUMPDEST POP PUSH2 0x556 PUSH1 0x4 DUP1 CALLDATASIZE SUB DUP2 ADD SWAP1 PUSH2 0x551 SWAP2 SWAP1 PUSH2 0x39C2 JUMP JUMPDEST PUSH2 0x114F JUMP JUMPDEST PUSH1 0x40 MLOAD PUSH2 0x563 SWAP2 SWAP1 PUSH2 0x3B00 JUMP JUMPDEST PUSH1 0x40 MLOAD DUP1 SWAP2 SUB SWAP1 RETURN JUMPDEST CALLVALUE DUP1 ISZERO PUSH2 0x578 JUMPI PUSH1 0x0 DUP1 REVERT JUMPDEST POP PUSH2 0x593 PUSH1 0x4 DUP1 CALLDATASIZE SUB DUP2 ADD SWAP1 PUSH2 0x58E SWAP2 SWAP1 PUSH2 0x38A3 JUMP JUMPDEST PUSH2 0x11FD JUMP JUMPDEST STOP JUMPDEST CALLVALUE DUP1 ISZERO PUSH2 0x5A1 JUMPI PUSH1 0x0 DUP1 REVERT JUMPDEST POP PUSH2 0x5BC PUSH1 0x4 DUP1 CALLDATASIZE SUB DUP2 ADD SWAP1 PUSH2 0x5B7 SWAP2 SWAP1 PUSH2 0x38A3 JUMP JUMPDEST PUSH2 0x1283 JUMP JUMPDEST PUSH1 0x40 MLOAD PUSH2 0x5C9 SWAP2 SWAP1 PUSH2 0x39A7 JUMP JUMPDEST PUSH1 0x40 MLOAD DUP1 SWAP2 SUB SWAP1 RETURN JUMPDEST CALLVALUE DUP1 ISZERO PUSH2 0x5DE JUMPI PUSH1 0x0 DUP1 REVERT JUMPDEST POP PUSH2 0x5E7 PUSH2 0x12F4 JUMP JUMPDEST PUSH1 0x40 MLOAD PUSH2 0x5F4 SWAP2 SWAP1 PUSH2 0x373E JUMP JUMPDEST PUSH1 0x40 MLOAD DUP1 SWAP2 SUB SWAP1 RETURN JUMPDEST CALLVALUE DUP1 ISZERO PUSH2 0x609 JUMPI PUSH1 0x0 DUP1 REVERT JUMPDEST POP PUSH2 0x624 PUSH1 0x4 DUP1 CALLDATASIZE SUB DUP2 ADD SWAP1 PUSH2 0x61F SWAP2 SWAP1 PUSH2 0x3C57 JUMP JUMPDEST PUSH2 0x1307 JUMP JUMPDEST STOP JUMPDEST CALLVALUE DUP1 ISZERO PUSH2 0x632 JUMPI PUSH1 0x0 DUP1 REVERT JUMPDEST POP PUSH2 0x63B PUSH2 0x139D JUMP JUMPDEST PUSH1 0x40 MLOAD PUSH2 0x648 SWAP2 SWAP1 PUSH2 0x373E JUMP JUMPDEST PUSH1 0x40 MLOAD DUP1 SWAP2 SUB SWAP1 RETURN JUMPDEST CALLVALUE DUP1 ISZERO PUSH2 0x65D JUMPI PUSH1 0x0 DUP1 REVERT JUMPDEST POP PUSH2 0x678 PUSH1 0x4 DUP1 CALLDATASIZE SUB DUP2 ADD SWAP1 PUSH2 0x673 SWAP2 SWAP1 PUSH2 0x38A3 JUMP JUMPDEST PUSH2 0x13B0 JUMP JUMPDEST PUSH1 0x40 MLOAD PUSH2 0x685 SWAP2 SWAP1 PUSH2 0x3911 JUMP JUMPDEST PUSH1 0x40 MLOAD DUP1 SWAP2 SUB SWAP1 RETURN JUMPDEST CALLVALUE DUP1 ISZERO PUSH2 0x69A JUMPI PUSH1 0x0 DUP1 REVERT JUMPDEST POP PUSH2 0x6B5 PUSH1 0x4 DUP1 CALLDATASIZE SUB DUP2 ADD SWAP1 PUSH2 0x6B0 SWAP2 SWAP1 PUSH2 0x38A3 JUMP JUMPDEST PUSH2 0x1462 JUMP JUMPDEST STOP JUMPDEST CALLVALUE DUP1 ISZERO PUSH2 0x6C3 JUMPI PUSH1 0x0 DUP1 REVERT JUMPDEST POP PUSH2 0x6CC PUSH2 0x14E8 JUMP JUMPDEST PUSH1 0x40 MLOAD PUSH2 0x6D9 SWAP2 SWAP1 PUSH2 0x39A7 JUMP JUMPDEST PUSH1 0x40 MLOAD DUP1 SWAP2 SUB SWAP1 RETURN JUMPDEST CALLVALUE DUP1 ISZERO PUSH2 0x6EE JUMPI PUSH1 0x0 DUP1 REVERT JUMPDEST POP PUSH2 0x709 PUSH1 0x4 DUP1 CALLDATASIZE SUB DUP2 ADD SWAP1 PUSH2 0x704 SWAP2 SWAP1 PUSH2 0x39C2 JUMP JUMPDEST PUSH2 0x156C JUMP JUMPDEST PUSH1 0x40 MLOAD PUSH2 0x716 SWAP2 SWAP1 PUSH2 0x39A7 JUMP JUMPDEST PUSH1 0x40 MLOAD DUP1 SWAP2 SUB SWAP1 RETURN JUMPDEST CALLVALUE DUP1 ISZERO PUSH2 0x72B JUMPI PUSH1 0x0 DUP1 REVERT JUMPDEST POP PUSH2 0x734 PUSH2 0x1624 JUMP JUMPDEST PUSH1 0x40 MLOAD PUSH2 0x741 SWAP2 SWAP1 PUSH2 0x384B JUMP JUMPDEST PUSH1 0x40 MLOAD DUP1 SWAP2 SUB SWAP1 RETURN JUMPDEST CALLVALUE DUP1 ISZERO PUSH2 0x756 JUMPI PUSH1 0x0 DUP1 REVERT JUMPDEST POP PUSH2 0x75F PUSH2 0x1732 JUMP JUMPDEST STOP JUMPDEST CALLVALUE DUP1 ISZERO PUSH2 0x76D JUMPI PUSH1 0x0 DUP1 REVERT JUMPDEST POP PUSH2 0x788 PUSH1 0x4 DUP1 CALLDATASIZE SUB DUP2 ADD SWAP1 PUSH2 0x783 SWAP2 SWAP1 PUSH2 0x38A3 JUMP JUMPDEST PUSH2 0x17BA JUMP JUMPDEST STOP JUMPDEST CALLVALUE DUP1 ISZERO PUSH2 0x796 JUMPI PUSH1 0x0 DUP1 REVERT JUMPDEST POP PUSH2 0x79F PUSH2 0x1840 JUMP JUMPDEST PUSH1 0x40 MLOAD PUSH2 0x7AC SWAP2 SWAP1 PUSH2 0x39A7 JUMP JUMPDEST PUSH1 0x40 MLOAD DUP1 SWAP2 SUB SWAP1 RETURN JUMPDEST CALLVALUE DUP1 ISZERO PUSH2 0x7C1 JUMPI PUSH1 0x0 DUP1 REVERT JUMPDEST POP PUSH2 0x7DC PUSH1 0x4 DUP1 CALLDATASIZE SUB DUP2 ADD SWAP1 PUSH2 0x7D7 SWAP2 SWAP1 PUSH2 0x3CA0 JUMP JUMPDEST PUSH2 0x184A JUMP JUMPDEST STOP JUMPDEST CALLVALUE DUP1 ISZERO PUSH2 0x7EA JUMPI PUSH1 0x0 DUP1 REVERT JUMPDEST POP PUSH2 0x7F3 PUSH2 0x19F6 JUMP JUMPDEST PUSH1 0x40 MLOAD PUSH2 0x800 SWAP2 SWAP1 PUSH2 0x3911 JUMP JUMPDEST PUSH1 0x40 MLOAD DUP1 SWAP2 SUB SWAP1 RETURN JUMPDEST CALLVALUE DUP1 ISZERO PUSH2 0x815 JUMPI PUSH1 0x0 DUP1 REVERT JUMPDEST POP PUSH2 0x81E PUSH2 0x1A20 JUMP JUMPDEST PUSH1 0x40 MLOAD PUSH2 0x82B SWAP2 SWAP1 PUSH2 0x384B JUMP JUMPDEST PUSH1 0x40 MLOAD DUP1 SWAP2 SUB SWAP1 RETURN JUMPDEST CALLVALUE DUP1 ISZERO PUSH2 0x840 JUMPI PUSH1 0x0 DUP1 REVERT JUMPDEST POP PUSH2 0x849 PUSH2 0x1AB2 JUMP JUMPDEST PUSH1 0x40 MLOAD PUSH2 0x856 SWAP2 SWAP1 PUSH2 0x39A7 JUMP JUMPDEST PUSH1 0x40 MLOAD DUP1 SWAP2 SUB SWAP1 RETURN JUMPDEST PUSH2 0x879 PUSH1 0x4 DUP1 CALLDATASIZE SUB DUP2 ADD SWAP1 PUSH2 0x874 SWAP2 SWAP1 PUSH2 0x38A3 JUMP JUMPDEST PUSH2 0x1AB8 JUMP JUMPDEST STOP JUMPDEST CALLVALUE DUP1 ISZERO PUSH2 0x887 JUMPI PUSH1 0x0 DUP1 REVERT JUMPDEST POP PUSH2 0x8A2 PUSH1 0x4 DUP1 CALLDATASIZE SUB DUP2 ADD SWAP1 PUSH2 0x89D SWAP2 SWAP1 PUSH2 0x3CE0 JUMP JUMPDEST PUSH2 0x1C88 JUMP JUMPDEST STOP JUMPDEST CALLVALUE DUP1 ISZERO PUSH2 0x8B0 JUMPI PUSH1 0x0 DUP1 REVERT JUMPDEST POP PUSH2 0x8B9 PUSH2 0x1C9E JUMP JUMPDEST STOP JUMPDEST CALLVALUE DUP1 ISZERO PUSH2 0x8C7 JUMPI PUSH1 0x0 DUP1 REVERT JUMPDEST POP PUSH2 0x8E2 PUSH1 0x4 DUP1 CALLDATASIZE SUB DUP2 ADD SWAP1 PUSH2 0x8DD SWAP2 SWAP1 PUSH2 0x3DC1 JUMP JUMPDEST PUSH2 0x1D37 JUMP JUMPDEST STOP JUMPDEST CALLVALUE DUP1 ISZERO PUSH2 0x8F0 JUMPI PUSH1 0x0 DUP1 REVERT JUMPDEST POP PUSH2 0x8F9 PUSH2 0x1D99 JUMP JUMPDEST PUSH1 0x40 MLOAD PUSH2 0x906 SWAP2 SWAP1 PUSH2 0x39A7 JUMP JUMPDEST PUSH1 0x40 MLOAD DUP1 SWAP2 SUB SWAP1 RETURN JUMPDEST CALLVALUE DUP1 ISZERO PUSH2 0x91B JUMPI PUSH1 0x0 DUP1 REVERT JUMPDEST POP PUSH2 0x924 PUSH2 0x1D9F JUMP JUMPDEST PUSH1 0x40 MLOAD PUSH2 0x931 SWAP2 SWAP1 PUSH2 0x39A7 JUMP JUMPDEST PUSH1 0x40 MLOAD DUP1 SWAP2 SUB SWAP1 RETURN JUMPDEST CALLVALUE DUP1 ISZERO PUSH2 0x946 JUMPI PUSH1 0x0 DUP1 REVERT JUMPDEST POP PUSH2 0x94F PUSH2 0x1DA5 JUMP JUMPDEST PUSH1 0x40 MLOAD PUSH2 0x95C SWAP2 SWAP1 PUSH2 0x384B JUMP JUMPDEST PUSH1 0x40 MLOAD DUP1 SWAP2 SUB SWAP1 RETURN JUMPDEST CALLVALUE DUP1 ISZERO PUSH2 0x971 JUMPI PUSH1 0x0 DUP1 REVERT JUMPDEST POP PUSH2 0x98C PUSH1 0x4 DUP1 CALLDATASIZE SUB DUP2 ADD SWAP1 PUSH2 0x987 SWAP2 SWAP1 PUSH2 0x38A3 JUMP JUMPDEST PUSH2 0x1E33 JUMP JUMPDEST PUSH1 0x40 MLOAD PUSH2 0x999 SWAP2 SWAP1 PUSH2 0x384B JUMP JUMPDEST PUSH1 0x40 MLOAD DUP1 SWAP2 SUB SWAP1 RETURN JUMPDEST CALLVALUE DUP1 ISZERO PUSH2 0x9AE JUMPI PUSH1 0x0 DUP1 REVERT JUMPDEST POP PUSH2 0x9C9 PUSH1 0x4 DUP1 CALLDATASIZE SUB DUP2 ADD SWAP1 PUSH2 0x9C4 SWAP2 SWAP1 PUSH2 0x38A3 JUMP JUMPDEST PUSH2 0x1F84 JUMP JUMPDEST STOP JUMPDEST CALLVALUE DUP1 ISZERO PUSH2 0x9D7 JUMPI PUSH1 0x0 DUP1 REVERT JUMPDEST POP PUSH2 0x9F2 PUSH1 0x4 DUP1 CALLDATASIZE SUB DUP2 ADD SWAP1 PUSH2 0x9ED SWAP2 SWAP1 PUSH2 0x3C57 JUMP JUMPDEST PUSH2 0x200A JUMP JUMPDEST STOP JUMPDEST CALLVALUE DUP1 ISZERO PUSH2 0xA00 JUMPI PUSH1 0x0 DUP1 REVERT JUMPDEST POP PUSH2 0xA1B PUSH1 0x4 DUP1 CALLDATASIZE SUB DUP2 ADD SWAP1 PUSH2 0xA16 SWAP2 SWAP1 PUSH2 0x3E44 JUMP JUMPDEST PUSH2 0x20A0 JUMP JUMPDEST PUSH1 0x40 MLOAD PUSH2 0xA28 SWAP2 SWAP1 PUSH2 0x373E JUMP JUMPDEST PUSH1 0x40 MLOAD DUP1 SWAP2 SUB SWAP1 RETURN JUMPDEST CALLVALUE DUP1 ISZERO PUSH2 0xA3D JUMPI PUSH1 0x0 DUP1 REVERT JUMPDEST POP PUSH2 0xA46 PUSH2 0x2134 JUMP JUMPDEST PUSH1 0x40 MLOAD PUSH2 0xA53 SWAP2 SWAP1 PUSH2 0x39A7 JUMP JUMPDEST PUSH1 0x40 MLOAD DUP1 SWAP2 SUB SWAP1 RETURN JUMPDEST CALLVALUE DUP1 ISZERO PUSH2 0xA68 JUMPI PUSH1 0x0 DUP1 REVERT JUMPDEST POP PUSH2 0xA83 PUSH1 0x4 DUP1 CALLDATASIZE SUB DUP2 ADD SWAP1 PUSH2 0xA7E SWAP2 SWAP1 PUSH2 0x3C57 JUMP JUMPDEST PUSH2 0x213A JUMP JUMPDEST STOP JUMPDEST CALLVALUE DUP1 ISZERO PUSH2 0xA91 JUMPI PUSH1 0x0 DUP1 REVERT JUMPDEST POP PUSH2 0xAAC PUSH1 0x4 DUP1 CALLDATASIZE SUB DUP2 ADD SWAP1 PUSH2 0xAA7 SWAP2 SWAP1 PUSH2 0x39C2 JUMP JUMPDEST PUSH2 0x21D0 JUMP JUMPDEST STOP JUMPDEST PUSH1 0x0 PUSH32 0x780E9D6300000000000000000000000000000000000000000000000000000000 PUSH28 0xFFFFFFFFFFFFFFFFFFFFFFFFFFFFFFFFFFFFFFFFFFFFFFFFFFFFFFFF NOT AND DUP3 PUSH28 0xFFFFFFFFFFFFFFFFFFFFFFFFFFFFFFFFFFFFFFFFFFFFFFFFFFFFFFFF NOT AND EQ DUP1 PUSH2 0xB21 JUMPI POP PUSH2 0xB20 DUP3 PUSH2 0x22C8 JUMP JUMPDEST JUMPDEST SWAP1 POP SWAP2 SWAP1 POP JUMP JUMPDEST PUSH2 0xB30 PUSH2 0x23AA JUMP JUMPDEST PUSH20 0xFFFFFFFFFFFFFFFFFFFFFFFFFFFFFFFFFFFFFFFF AND PUSH2 0xB4E PUSH2 0x19F6 JUMP JUMPDEST PUSH20 0xFFFFFFFFFFFFFFFFFFFFFFFFFFFFFFFFFFFFFFFF AND EQ PUSH2 0xBA4 JUMPI PUSH1 0x40 MLOAD PUSH32 0x8C379A000000000000000000000000000000000000000000000000000000000 DUP2 MSTORE PUSH1 0x4 ADD PUSH2 0xB9B SWAP1 PUSH2 0x3ED0 JUMP JUMPDEST PUSH1 0x40 MLOAD DUP1 SWAP2 SUB SWAP1 REVERT JUMPDEST DUP1 PUSH1 0x14 PUSH1 0x0 PUSH2 0x100 EXP DUP2 SLOAD DUP2 PUSH1 0xFF MUL NOT AND SWAP1 DUP4 ISZERO ISZERO MUL OR SWAP1 SSTORE POP POP JUMP JUMPDEST PUSH1 0x60 PUSH1 0x0 DUP1 SLOAD PUSH2 0xBD0 SWAP1 PUSH2 0x3F1F JUMP JUMPDEST DUP1 PUSH1 0x1F ADD PUSH1 0x20 DUP1 SWAP2 DIV MUL PUSH1 0x20 ADD PUSH1 0x40 MLOAD SWAP1 DUP2 ADD PUSH1 0x40 MSTORE DUP1 SWAP3 SWAP2 SWAP1 DUP2 DUP2 MSTORE PUSH1 0x20 ADD DUP3 DUP1 SLOAD PUSH2 0xBFC SWAP1 PUSH2 0x3F1F JUMP JUMPDEST DUP1 ISZERO PUSH2 0xC49 JUMPI DUP1 PUSH1 0x1F LT PUSH2 0xC1E JUMPI PUSH2 0x100 DUP1 DUP4 SLOAD DIV MUL DUP4 MSTORE SWAP2 PUSH1 0x20 ADD SWAP2 PUSH2 0xC49 JUMP JUMPDEST DUP3 ADD SWAP2 SWAP1 PUSH1 0x0 MSTORE PUSH1 0x20 PUSH1 0x0 KECCAK256 SWAP1 JUMPDEST DUP2 SLOAD DUP2 MSTORE SWAP1 PUSH1 0x1 ADD SWAP1 PUSH1 0x20 ADD DUP1 DUP4 GT PUSH2 0xC2C JUMPI DUP3 SWAP1 SUB PUSH1 0x1F AND DUP3 ADD SWAP2 JUMPDEST POP POP POP POP POP SWAP1 POP SWAP1 JUMP JUMPDEST PUSH1 0x0 PUSH2 0xC5E DUP3 PUSH2 0x23B2 JUMP JUMPDEST PUSH2 0xC9D JUMPI PUSH1 0x40 MLOAD PUSH32 0x8C379A000000000000000000000000000000000000000000000000000000000 DUP2 MSTORE PUSH1 0x4 ADD PUSH2 0xC94 SWAP1 PUSH2 0x3FC3 JUMP JUMPDEST PUSH1 0x40 MLOAD DUP1 SWAP2 SUB SWAP1 REVERT JUMPDEST PUSH1 0x4 PUSH1 0x0 DUP4 DUP2 MSTORE PUSH1 0x20 ADD SWAP1 DUP2 MSTORE PUSH1 0x20 ADD PUSH1 0x0 KECCAK256 PUSH1 0x0 SWAP1 SLOAD SWAP1 PUSH2 0x100 EXP SWAP1 DIV PUSH20 0xFFFFFFFFFFFFFFFFFFFFFFFFFFFFFFFFFFFFFFFF AND SWAP1 POP SWAP2 SWAP1 POP JUMP JUMPDEST PUSH1 0xD DUP1 SLOAD PUSH2 0xCE5 SWAP1 PUSH2 0x3F1F JUMP JUMPDEST DUP1 PUSH1 0x1F ADD PUSH1 0x20 DUP1 SWAP2 DIV MUL PUSH1 0x20 ADD PUSH1 0x40 MLOAD SWAP1 DUP2 ADD PUSH1 0x40 MSTORE DUP1 SWAP3 SWAP2 SWAP1 DUP2 DUP2 MSTORE PUSH1 0x20 ADD DUP3 DUP1 SLOAD PUSH2 0xD11 SWAP1 PUSH2 0x3F1F JUMP JUMPDEST DUP1 ISZERO PUSH2 0xD5E JUMPI DUP1 PUSH1 0x1F LT PUSH2 0xD33 JUMPI PUSH2 0x100 DUP1 DUP4 SLOAD DIV MUL DUP4 MSTORE SWAP2 PUSH1 0x20 ADD SWAP2 PUSH2 0xD5E JUMP JUMPDEST DUP3 ADD SWAP2 SWAP1 PUSH1 0x0 MSTORE PUSH1 0x20 PUSH1 0x0 KECCAK256 SWAP1 JUMPDEST DUP2 SLOAD DUP2 MSTORE SWAP1 PUSH1 0x1 ADD SWAP1 PUSH1 0x20 ADD DUP1 DUP4 GT PUSH2 0xD41 JUMPI DUP3 SWAP1 SUB PUSH1 0x1F AND DUP3 ADD SWAP2 JUMPDEST POP POP POP POP POP DUP2 JUMP JUMPDEST PUSH1 0x0 PUSH2 0xD71 DUP3 PUSH2 0x13B0 JUMP JUMPDEST SWAP1 POP DUP1 PUSH20 0xFFFFFFFFFFFFFFFFFFFFFFFFFFFFFFFFFFFFFFFF AND DUP4 PUSH20 0xFFFFFFFFFFFFFFFFFFFFFFFFFFFFFFFFFFFFFFFF AND EQ ISZERO PUSH2 0xDE2 JUMPI PUSH1 0x40 MLOAD PUSH32 0x8C379A000000000000000000000000000000000000000000000000000000000 DUP2 MSTORE PUSH1 0x4 ADD PUSH2 0xDD9 SWAP1 PUSH2 0x4055 JUMP JUMPDEST PUSH1 0x40 MLOAD DUP1 SWAP2 SUB SWAP1 REVERT JUMPDEST DUP1 PUSH20 0xFFFFFFFFFFFFFFFFFFFFFFFFFFFFFFFFFFFFFFFF AND PUSH2 0xE01 PUSH2 0x23AA JUMP JUMPDEST PUSH20 0xFFFFFFFFFFFFFFFFFFFFFFFFFFFFFFFFFFFFFFFF AND EQ DUP1 PUSH2 0xE30 JUMPI POP PUSH2 0xE2F DUP2 PUSH2 0xE2A PUSH2 0x23AA JUMP JUMPDEST PUSH2 0x20A0 JUMP JUMPDEST JUMPDEST PUSH2 0xE6F JUMPI PUSH1 0x40 MLOAD PUSH32 0x8C379A000000000000000000000000000000000000000000000000000000000 DUP2 MSTORE PUSH1 0x4 ADD PUSH2 0xE66 SWAP1 PUSH2 0x40E7 JUMP JUMPDEST PUSH1 0x40 MLOAD DUP1 SWAP2 SUB SWAP1 REVERT JUMPDEST PUSH2 0xE79 DUP4 DUP4 PUSH2 0x241E JUMP JUMPDEST POP POP POP JUMP JUMPDEST PUSH2 0xE86 PUSH2 0x23AA JUMP JUMPDEST PUSH20 0xFFFFFFFFFFFFFFFFFFFFFFFFFFFFFFFFFFFFFFFF AND PUSH2 0xEA4 PUSH2 0x19F6 JUMP JUMPDEST PUSH20 0xFFFFFFFFFFFFFFFFFFFFFFFFFFFFFFFFFFFFFFFF AND EQ PUSH2 0xEFA JUMPI PUSH1 0x40 MLOAD PUSH32 0x8C379A000000000000000000000000000000000000000000000000000000000 DUP2 MSTORE PUSH1 0x4 ADD PUSH2 0xEF1 SWAP1 PUSH2 0x3ED0 JUMP JUMPDEST PUSH1 0x40 MLOAD DUP1 SWAP2 SUB SWAP1 REVERT JUMPDEST DUP1 PUSH1 0x13 DUP2 SWAP1 SSTORE POP POP JUMP JUMPDEST PUSH1 0x0 PUSH1 0x8 DUP1 SLOAD SWAP1 POP SWAP1 POP SWAP1 JUMP JUMPDEST PUSH1 0x15 PUSH1 0x20 MSTORE DUP1 PUSH1 0x0 MSTORE PUSH1 0x40 PUSH1 0x0 KECCAK256 PUSH1 0x0 SWAP2 POP SWAP1 POP SLOAD DUP2 JUMP JUMPDEST PUSH2 0xF3A PUSH2 0xF34 PUSH2 0x23AA JUMP JUMPDEST DUP3 PUSH2 0x24D7 JUMP JUMPDEST PUSH2 0xF79 JUMPI PUSH1 0x40 MLOAD PUSH32 0x8C379A000000000000000000000000000000000000000000000000000000000 DUP2 MSTORE PUSH1 0x4 ADD PUSH2 0xF70 SWAP1 PUSH2 0x4179 JUMP JUMPDEST PUSH1 0x40 MLOAD DUP1 SWAP2 SUB SWAP1 REVERT JUMPDEST PUSH2 0xF84 DUP4 DUP4 DUP4 PUSH2 0x25B5 JUMP JUMPDEST POP POP POP JUMP JUMPDEST PUSH1 0x11 SLOAD DUP2 JUMP JUMPDEST PUSH1 0x0 PUSH2 0xF9A DUP4 PUSH2 0x156C JUMP JUMPDEST DUP3 LT PUSH2 0xFDB JUMPI PUSH1 0x40 MLOAD PUSH32 0x8C379A000000000000000000000000000000000000000000000000000000000 DUP2 MSTORE PUSH1 0x4 ADD PUSH2 0xFD2 SWAP1 PUSH2 0x420B JUMP JUMPDEST PUSH1 0x40 MLOAD DUP1 SWAP2 SUB SWAP1 REVERT JUMPDEST PUSH1 0x6 PUSH1 0x0 DUP5 PUSH20 0xFFFFFFFFFFFFFFFFFFFFFFFFFFFFFFFFFFFFFFFF AND PUSH20 0xFFFFFFFFFFFFFFFFFFFFFFFFFFFFFFFFFFFFFFFF AND DUP2 MSTORE PUSH1 0x20 ADD SWAP1 DUP2 MSTORE PUSH1 0x20 ADD PUSH1 0x0 KECCAK256 PUSH1 0x0 DUP4 DUP2 MSTORE PUSH1 0x20 ADD SWAP1 DUP2 MSTORE PUSH1 0x20 ADD PUSH1 0x0 KECCAK256 SLOAD SWAP1 POP SWAP3 SWAP2 POP POP JUMP JUMPDEST PUSH1 0xF SLOAD DUP2 JUMP JUMPDEST PUSH2 0x1042 PUSH2 0x23AA JUMP JUMPDEST PUSH20 0xFFFFFFFFFFFFFFFFFFFFFFFFFFFFFFFFFFFFFFFF AND PUSH2 0x1060 PUSH2 0x19F6 JUMP JUMPDEST PUSH20 0xFFFFFFFFFFFFFFFFFFFFFFFFFFFFFFFFFFFFFFFF AND EQ PUSH2 0x10B6 JUMPI PUSH1 0x40 MLOAD PUSH32 0x8C379A000000000000000000000000000000000000000000000000000000000 DUP2 MSTORE PUSH1 0x4 ADD PUSH2 0x10AD SWAP1 PUSH2 0x3ED0 JUMP JUMPDEST PUSH1 0x40 MLOAD DUP1 SWAP2 SUB SWAP1 REVERT JUMPDEST PUSH1 0x0 CALLER PUSH20 0xFFFFFFFFFFFFFFFFFFFFFFFFFFFFFFFFFFFFFFFF AND SELFBALANCE PUSH1 0x40 MLOAD PUSH2 0x10DC SWAP1 PUSH2 0x425C JUMP JUMPDEST PUSH1 0x0 PUSH1 0x40 MLOAD DUP1 DUP4 SUB DUP2 DUP6 DUP8 GAS CALL SWAP3 POP POP POP RETURNDATASIZE DUP1 PUSH1 0x0 DUP2 EQ PUSH2 0x1119 JUMPI PUSH1 0x40 MLOAD SWAP2 POP PUSH1 0x1F NOT PUSH1 0x3F RETURNDATASIZE ADD AND DUP3 ADD PUSH1 0x40 MSTORE RETURNDATASIZE DUP3 MSTORE RETURNDATASIZE PUSH1 0x0 PUSH1 0x20 DUP5 ADD RETURNDATACOPY PUSH2 0x111E JUMP JUMPDEST PUSH1 0x60 SWAP2 POP JUMPDEST POP POP SWAP1 POP DUP1 PUSH2 0x112C JUMPI PUSH1 0x0 DUP1 REVERT JUMPDEST POP JUMP JUMPDEST PUSH2 0x114A DUP4 DUP4 DUP4 PUSH1 0x40 MLOAD DUP1 PUSH1 0x20 ADD PUSH1 0x40 MSTORE DUP1 PUSH1 0x0 DUP2 MSTORE POP PUSH2 0x1D37 JUMP JUMPDEST POP POP POP JUMP JUMPDEST PUSH1 0x60 PUSH1 0x0 PUSH2 0x115C DUP4 PUSH2 0x156C JUMP JUMPDEST SWAP1 POP PUSH1 0x0 DUP2 PUSH8 0xFFFFFFFFFFFFFFFF DUP2 GT ISZERO PUSH2 0x117A JUMPI PUSH2 0x1179 PUSH2 0x3B2C JUMP JUMPDEST JUMPDEST PUSH1 0x40 MLOAD SWAP1 DUP1 DUP3 MSTORE DUP1 PUSH1 0x20 MUL PUSH1 0x20 ADD DUP3 ADD PUSH1 0x40 MSTORE DUP1 ISZERO PUSH2 0x11A8 JUMPI DUP2 PUSH1 0x20 ADD PUSH1 0x20 DUP3 MUL DUP1 CALLDATASIZE DUP4 CALLDATACOPY DUP1 DUP3 ADD SWAP2 POP POP SWAP1 POP JUMPDEST POP SWAP1 POP PUSH1 0x0 JUMPDEST DUP3 DUP2 LT ISZERO PUSH2 0x11F2 JUMPI PUSH2 0x11C0 DUP6 DUP3 PUSH2 0xF8F JUMP JUMPDEST DUP3 DUP3 DUP2 MLOAD DUP2 LT PUSH2 0x11D3 JUMPI PUSH2 0x11D2 PUSH2 0x4271 JUMP JUMPDEST JUMPDEST PUSH1 0x20 MUL PUSH1 0x20 ADD ADD DUP2 DUP2 MSTORE POP POP DUP1 DUP1 PUSH2 0x11EA SWAP1 PUSH2 0x42CF JUMP JUMPDEST SWAP2 POP POP PUSH2 0x11AE JUMP JUMPDEST POP DUP1 SWAP3 POP POP POP SWAP2 SWAP1 POP JUMP JUMPDEST PUSH2 0x1205 PUSH2 0x23AA JUMP JUMPDEST PUSH20 0xFFFFFFFFFFFFFFFFFFFFFFFFFFFFFFFFFFFFFFFF AND PUSH2 0x1223 PUSH2 0x19F6 JUMP JUMPDEST PUSH20 0xFFFFFFFFFFFFFFFFFFFFFFFFFFFFFFFFFFFFFFFF AND EQ PUSH2 0x1279 JUMPI PUSH1 0x40 MLOAD PUSH32 0x8C379A000000000000000000000000000000000000000000000000000000000 DUP2 MSTORE PUSH1 0x4 ADD PUSH2 0x1270 SWAP1 PUSH2 0x3ED0 JUMP JUMPDEST PUSH1 0x40 MLOAD DUP1 SWAP2 SUB SWAP1 REVERT JUMPDEST DUP1 PUSH1 0xE DUP2 SWAP1 SSTORE POP POP JUMP JUMPDEST PUSH1 0x0 PUSH2 0x128D PUSH2 0xF04 JUMP JUMPDEST DUP3 LT PUSH2 0x12CE JUMPI PUSH1 0x40 MLOAD PUSH32 0x8C379A000000000000000000000000000000000000000000000000000000000 DUP2 MSTORE PUSH1 0x4 ADD PUSH2 0x12C5 SWAP1 PUSH2 0x438A JUMP JUMPDEST PUSH1 0x40 MLOAD DUP1 SWAP2 SUB SWAP1 REVERT JUMPDEST PUSH1 0x8 DUP3 DUP2 SLOAD DUP2 LT PUSH2 0x12E2 JUMPI PUSH2 0x12E1 PUSH2 0x4271 JUMP JUMPDEST JUMPDEST SWAP1 PUSH1 0x0 MSTORE PUSH1 0x20 PUSH1 0x0 KECCAK256 ADD SLOAD SWAP1 POP SWAP2 SWAP1 POP JUMP JUMPDEST PUSH1 0x14 PUSH1 0x1 SWAP1 SLOAD SWAP1 PUSH2 0x100 EXP SWAP1 DIV PUSH1 0xFF AND DUP2 JUMP JUMPDEST PUSH2 0x130F PUSH2 0x23AA JUMP JUMPDEST PUSH20 0xFFFFFFFFFFFFFFFFFFFFFFFFFFFFFFFFFFFFFFFF AND PUSH2 0x132D PUSH2 0x19F6 JUMP JUMPDEST PUSH20 0xFFFFFFFFFFFFFFFFFFFFFFFFFFFFFFFFFFFFFFFF AND EQ PUSH2 0x1383 JUMPI PUSH1 0x40 MLOAD PUSH32 0x8C379A000000000000000000000000000000000000000000000000000000000 DUP2 MSTORE PUSH1 0x4 ADD PUSH2 0x137A SWAP1 PUSH2 0x3ED0 JUMP JUMPDEST PUSH1 0x40 MLOAD DUP1 SWAP2 SUB SWAP1 REVERT JUMPDEST DUP1 PUSH1 0xB SWAP1 DUP1 MLOAD SWAP1 PUSH1 0x20 ADD SWAP1 PUSH2 0x1399 SWAP3 SWAP2 SWAP1 PUSH2 0x35E7 JUMP JUMPDEST POP POP JUMP JUMPDEST PUSH1 0x14 PUSH1 0x0 SWAP1 SLOAD SWAP1 PUSH2 0x100 EXP SWAP1 DIV PUSH1 0xFF AND DUP2 JUMP JUMPDEST PUSH1 0x0 DUP1 PUSH1 0x2 PUSH1 0x0 DUP5 DUP2 MSTORE PUSH1 0x20 ADD SWAP1 DUP2 MSTORE PUSH1 0x20 ADD PUSH1 0x0 KECCAK256 PUSH1 0x0 SWAP1 SLOAD SWAP1 PUSH2 0x100 EXP SWAP1 DIV PUSH20 0xFFFFFFFFFFFFFFFFFFFFFFFFFFFFFFFFFFFFFFFF AND SWAP1 POP PUSH1 0x0 PUSH20 0xFFFFFFFFFFFFFFFFFFFFFFFFFFFFFFFFFFFFFFFF AND DUP2 PUSH20 0xFFFFFFFFFFFFFFFFFFFFFFFFFFFFFFFFFFFFFFFF AND EQ ISZERO PUSH2 0x1459 JUMPI PUSH1 0x40 MLOAD PUSH32 0x8C379A000000000000000000000000000000000000000000000000000000000 DUP2 MSTORE PUSH1 0x4 ADD PUSH2 0x1450 SWAP1 PUSH2 0x441C JUMP JUMPDEST PUSH1 0x40 MLOAD DUP1 SWAP2 SUB SWAP1 REVERT JUMPDEST DUP1 SWAP2 POP POP SWAP2 SWAP1 POP JUMP JUMPDEST PUSH2 0x146A PUSH2 0x23AA JUMP JUMPDEST PUSH20 0xFFFFFFFFFFFFFFFFFFFFFFFFFFFFFFFFFFFFFFFF AND PUSH2 0x1488 PUSH2 0x19F6 JUMP JUMPDEST PUSH20 0xFFFFFFFFFFFFFFFFFFFFFFFFFFFFFFFFFFFFFFFF AND EQ PUSH2 0x14DE JUMPI PUSH1 0x40 MLOAD PUSH32 0x8C379A000000000000000000000000000000000000000000000000000000000 DUP2 MSTORE PUSH1 0x4 ADD PUSH2 0x14D5 SWAP1 PUSH2 0x3ED0 JUMP JUMPDEST PUSH1 0x40 MLOAD DUP1 SWAP2 SUB SWAP1 REVERT JUMPDEST DUP1 PUSH1 0xF DUP2 SWAP1 SSTORE POP POP JUMP JUMPDEST PUSH1 0x0 PUSH2 0x14F2 PUSH2 0x23AA JUMP JUMPDEST PUSH20 0xFFFFFFFFFFFFFFFFFFFFFFFFFFFFFFFFFFFFFFFF AND PUSH2 0x1510 PUSH2 0x19F6 JUMP JUMPDEST PUSH20 0xFFFFFFFFFFFFFFFFFFFFFFFFFFFFFFFFFFFFFFFF AND EQ PUSH2 0x1566 JUMPI PUSH1 0x40 MLOAD PUSH32 0x8C379A000000000000000000000000000000000000000000000000000000000 DUP2 MSTORE PUSH1 0x4 ADD PUSH2 0x155D SWAP1 PUSH2 0x3ED0 JUMP JUMPDEST PUSH1 0x40 MLOAD DUP1 SWAP2 SUB SWAP1 REVERT JUMPDEST SELFBALANCE SWAP1 POP SWAP1 JUMP JUMPDEST PUSH1 0x0 DUP1 PUSH20 0xFFFFFFFFFFFFFFFFFFFFFFFFFFFFFFFFFFFFFFFF AND DUP3 PUSH20 0xFFFFFFFFFFFFFFFFFFFFFFFFFFFFFFFFFFFFFFFF AND EQ ISZERO PUSH2 0x15DD JUMPI PUSH1 0x40 MLOAD PUSH32 0x8C379A000000000000000000000000000000000000000000000000000000000 DUP2 MSTORE PUSH1 0x4 ADD PUSH2 0x15D4 SWAP1 PUSH2 0x44AE JUMP JUMPDEST PUSH1 0x40 MLOAD DUP1 SWAP2 SUB SWAP1 REVERT JUMPDEST PUSH1 0x3 PUSH1 0x0 DUP4 PUSH20 0xFFFFFFFFFFFFFFFFFFFFFFFFFFFFFFFFFFFFFFFF AND PUSH20 0xFFFFFFFFFFFFFFFFFFFFFFFFFFFFFFFFFFFFFFFF AND DUP2 MSTORE PUSH1 0x20 ADD SWAP1 DUP2 MSTORE PUSH1 0x20 ADD PUSH1 0x0 KECCAK256 SLOAD SWAP1 POP SWAP2 SWAP1 POP JUMP JUMPDEST PUSH1 0x60 PUSH2 0x162E PUSH2 0x23AA JUMP JUMPDEST PUSH20 0xFFFFFFFFFFFFFFFFFFFFFFFFFFFFFFFFFFFFFFFF AND PUSH2 0x164C PUSH2 0x19F6 JUMP JUMPDEST PUSH20 0xFFFFFFFFFFFFFFFFFFFFFFFFFFFFFFFFFFFFFFFF AND EQ PUSH2 0x16A2 JUMPI PUSH1 0x40 MLOAD PUSH32 0x8C379A000000000000000000000000000000000000000000000000000000000 DUP2 MSTORE PUSH1 0x4 ADD PUSH2 0x1699 SWAP1 PUSH2 0x3ED0 JUMP JUMPDEST PUSH1 0x40 MLOAD DUP1 SWAP2 SUB SWAP1 REVERT JUMPDEST PUSH1 0xB DUP1 SLOAD PUSH2 0x16AF SWAP1 PUSH2 0x3F1F JUMP JUMPDEST DUP1 PUSH1 0x1F ADD PUSH1 0x20 DUP1 SWAP2 DIV MUL PUSH1 0x20 ADD PUSH1 0x40 MLOAD SWAP1 DUP2 ADD PUSH1 0x40 MSTORE DUP1 SWAP3 SWAP2 SWAP1 DUP2 DUP2 MSTORE PUSH1 0x20 ADD DUP3 DUP1 SLOAD PUSH2 0x16DB SWAP1 PUSH2 0x3F1F JUMP JUMPDEST DUP1 ISZERO PUSH2 0x1728 JUMPI DUP1 PUSH1 0x1F LT PUSH2 0x16FD JUMPI PUSH2 0x100 DUP1 DUP4 SLOAD DIV MUL DUP4 MSTORE SWAP2 PUSH1 0x20 ADD SWAP2 PUSH2 0x1728 JUMP JUMPDEST DUP3 ADD SWAP2 SWAP1 PUSH1 0x0 MSTORE PUSH1 0x20 PUSH1 0x0 KECCAK256 SWAP1 JUMPDEST DUP2 SLOAD DUP2 MSTORE SWAP1 PUSH1 0x1 ADD SWAP1 PUSH1 0x20 ADD DUP1 DUP4 GT PUSH2 0x170B JUMPI DUP3 SWAP1 SUB PUSH1 0x1F AND DUP3 ADD SWAP2 JUMPDEST POP POP POP POP POP SWAP1 POP SWAP1 JUMP JUMPDEST PUSH2 0x173A PUSH2 0x23AA JUMP JUMPDEST PUSH20 0xFFFFFFFFFFFFFFFFFFFFFFFFFFFFFFFFFFFFFFFF AND PUSH2 0x1758 PUSH2 0x19F6 JUMP JUMPDEST PUSH20 0xFFFFFFFFFFFFFFFFFFFFFFFFFFFFFFFFFFFFFFFF AND EQ PUSH2 0x17AE JUMPI PUSH1 0x40 MLOAD PUSH32 0x8C379A000000000000000000000000000000000000000000000000000000000 DUP2 MSTORE PUSH1 0x4 ADD PUSH2 0x17A5 SWAP1 PUSH2 0x3ED0 JUMP JUMPDEST PUSH1 0x40 MLOAD DUP1 SWAP2 SUB SWAP1 REVERT JUMPDEST PUSH2 0x17B8 PUSH1 0x0 PUSH2 0x2811 JUMP JUMPDEST JUMP JUMPDEST PUSH2 0x17C2 PUSH2 0x23AA JUMP JUMPDEST PUSH20 0xFFFFFFFFFFFFFFFFFFFFFFFFFFFFFFFFFFFFFFFF AND PUSH2 0x17E0 PUSH2 0x19F6 JUMP JUMPDEST PUSH20 0xFFFFFFFFFFFFFFFFFFFFFFFFFFFFFFFFFFFFFFFF AND EQ PUSH2 0x1836 JUMPI PUSH1 0x40 MLOAD PUSH32 0x8C379A000000000000000000000000000000000000000000000000000000000 DUP2 MSTORE PUSH1 0x4 ADD PUSH2 0x182D SWAP1 PUSH2 0x3ED0 JUMP JUMPDEST PUSH1 0x40 MLOAD DUP1 SWAP2 SUB SWAP1 REVERT JUMPDEST DUP1 PUSH1 0x10 DUP2 SWAP1 SSTORE POP POP JUMP JUMPDEST PUSH1 0x0 PUSH1 0xE SLOAD SWAP1 POP SWAP1 JUMP JUMPDEST PUSH2 0x1852 PUSH2 0x23AA JUMP JUMPDEST PUSH20 0xFFFFFFFFFFFFFFFFFFFFFFFFFFFFFFFFFFFFFFFF AND PUSH2 0x1870 PUSH2 0x19F6 JUMP JUMPDEST PUSH20 0xFFFFFFFFFFFFFFFFFFFFFFFFFFFFFFFFFFFFFFFF AND EQ PUSH2 0x18C6 JUMPI PUSH1 0x40 MLOAD PUSH32 0x8C379A000000000000000000000000000000000000000000000000000000000 DUP2 MSTORE PUSH1 0x4 ADD PUSH2 0x18BD SWAP1 PUSH2 0x3ED0 JUMP JUMPDEST PUSH1 0x40 MLOAD DUP1 SWAP2 SUB SWAP1 REVERT JUMPDEST PUSH1 0x0 DUP3 GT PUSH2 0x1909 JUMPI PUSH1 0x40 MLOAD PUSH32 0x8C379A000000000000000000000000000000000000000000000000000000000 DUP2 MSTORE PUSH1 0x4 ADD PUSH2 0x1900 SWAP1 PUSH2 0x451A JUMP JUMPDEST PUSH1 0x40 MLOAD DUP1 SWAP2 SUB SWAP1 REVERT JUMPDEST PUSH1 0x0 PUSH2 0x1913 PUSH2 0xF04 JUMP JUMPDEST SWAP1 POP PUSH1 0xF SLOAD DUP4 DUP3 PUSH2 0x1924 SWAP2 SWAP1 PUSH2 0x453A JUMP JUMPDEST GT ISZERO PUSH2 0x1965 JUMPI PUSH1 0x40 MLOAD PUSH32 0x8C379A000000000000000000000000000000000000000000000000000000000 DUP2 MSTORE PUSH1 0x4 ADD PUSH2 0x195C SWAP1 PUSH2 0x45DC JUMP JUMPDEST PUSH1 0x40 MLOAD DUP1 SWAP2 SUB SWAP1 REVERT JUMPDEST PUSH1 0x0 PUSH1 0x1 SWAP1 POP JUMPDEST DUP4 DUP2 GT PUSH2 0x19F0 JUMPI PUSH1 0x15 PUSH1 0x0 DUP5 PUSH20 0xFFFFFFFFFFFFFFFFFFFFFFFFFFFFFFFFFFFFFFFF AND PUSH20 0xFFFFFFFFFFFFFFFFFFFFFFFFFFFFFFFFFFFFFFFF AND DUP2 MSTORE PUSH1 0x20 ADD SWAP1 DUP2 MSTORE PUSH1 0x20 ADD PUSH1 0x0 KECCAK256 PUSH1 0x0 DUP2 SLOAD DUP1 SWAP3 SWAP2 SWAP1 PUSH2 0x19C3 SWAP1 PUSH2 0x42CF JUMP JUMPDEST SWAP2 SWAP1 POP SSTORE POP PUSH2 0x19DD DUP4 DUP3 DUP5 PUSH2 0x19D8 SWAP2 SWAP1 PUSH2 0x453A JUMP JUMPDEST PUSH2 0x28D7 JUMP JUMPDEST DUP1 DUP1 PUSH2 0x19E8 SWAP1 PUSH2 0x42CF JUMP JUMPDEST SWAP2 POP POP PUSH2 0x196C JUMP JUMPDEST POP POP POP POP JUMP JUMPDEST PUSH1 0x0 PUSH1 0xA PUSH1 0x0 SWAP1 SLOAD SWAP1 PUSH2 0x100 EXP SWAP1 DIV PUSH20 0xFFFFFFFFFFFFFFFFFFFFFFFFFFFFFFFFFFFFFFFF AND SWAP1 POP SWAP1 JUMP JUMPDEST PUSH1 0x60 PUSH1 0x1 DUP1 SLOAD PUSH2 0x1A2F SWAP1 PUSH2 0x3F1F JUMP JUMPDEST DUP1 PUSH1 0x1F ADD PUSH1 0x20 DUP1 SWAP2 DIV MUL PUSH1 0x20 ADD PUSH1 0x40 MLOAD SWAP1 DUP2 ADD PUSH1 0x40 MSTORE DUP1 SWAP3 SWAP2 SWAP1 DUP2 DUP2 MSTORE PUSH1 0x20 ADD DUP3 DUP1 SLOAD PUSH2 0x1A5B SWAP1 PUSH2 0x3F1F JUMP JUMPDEST DUP1 ISZERO PUSH2 0x1AA8 JUMPI DUP1 PUSH1 0x1F LT PUSH2 0x1A7D JUMPI PUSH2 0x100 DUP1 DUP4 SLOAD DIV MUL DUP4 MSTORE SWAP2 PUSH1 0x20 ADD SWAP2 PUSH2 0x1AA8 JUMP JUMPDEST DUP3 ADD SWAP2 SWAP1 PUSH1 0x0 MSTORE PUSH1 0x20 PUSH1 0x0 KECCAK256 SWAP1 JUMPDEST DUP2 SLOAD DUP2 MSTORE SWAP1 PUSH1 0x1 ADD SWAP1 PUSH1 0x20 ADD DUP1 DUP4 GT PUSH2 0x1A8B JUMPI DUP3 SWAP1 SUB PUSH1 0x1F AND DUP3 ADD SWAP2 JUMPDEST POP POP POP POP POP SWAP1 POP SWAP1 JUMP JUMPDEST PUSH1 0xE SLOAD DUP2 JUMP JUMPDEST PUSH1 0x14 PUSH1 0x0 SWAP1 SLOAD SWAP1 PUSH2 0x100 EXP SWAP1 DIV PUSH1 0xFF AND ISZERO PUSH2 0x1B08 JUMPI PUSH1 0x40 MLOAD PUSH32 0x8C379A000000000000000000000000000000000000000000000000000000000 DUP2 MSTORE PUSH1 0x4 ADD PUSH2 0x1AFF SWAP1 PUSH2 0x4648 JUMP JUMPDEST PUSH1 0x40 MLOAD DUP1 SWAP2 SUB SWAP1 REVERT JUMPDEST DUP1 PUSH1 0x0 DUP2 GT PUSH2 0x1B4C JUMPI PUSH1 0x40 MLOAD PUSH32 0x8C379A000000000000000000000000000000000000000000000000000000000 DUP2 MSTORE PUSH1 0x4 ADD PUSH2 0x1B43 SWAP1 PUSH2 0x451A JUMP JUMPDEST PUSH1 0x40 MLOAD DUP1 SWAP2 SUB SWAP1 REVERT JUMPDEST PUSH1 0x0 PUSH2 0x1B56 PUSH2 0xF04 JUMP JUMPDEST SWAP1 POP PUSH1 0x0 PUSH1 0x15 PUSH1 0x0 CALLER PUSH20 0xFFFFFFFFFFFFFFFFFFFFFFFFFFFFFFFFFFFFFFFF AND PUSH20 0xFFFFFFFFFFFFFFFFFFFFFFFFFFFFFFFFFFFFFFFF AND DUP2 MSTORE PUSH1 0x20 ADD SWAP1 DUP2 MSTORE PUSH1 0x20 ADD PUSH1 0x0 KECCAK256 SLOAD SWAP1 POP PUSH2 0x1BA6 DUP2 DUP6 PUSH2 0x28F5 JUMP JUMPDEST PUSH1 0xF SLOAD DUP5 DUP4 PUSH2 0x1BB5 SWAP2 SWAP1 PUSH2 0x453A JUMP JUMPDEST GT ISZERO PUSH2 0x1BF6 JUMPI PUSH1 0x40 MLOAD PUSH32 0x8C379A000000000000000000000000000000000000000000000000000000000 DUP2 MSTORE PUSH1 0x4 ADD PUSH2 0x1BED SWAP1 PUSH2 0x45DC JUMP JUMPDEST PUSH1 0x40 MLOAD DUP1 SWAP2 SUB SWAP1 REVERT JUMPDEST PUSH1 0x0 PUSH1 0x1 SWAP1 POP JUMPDEST DUP5 DUP2 GT PUSH2 0x1C81 JUMPI PUSH1 0x15 PUSH1 0x0 CALLER PUSH20 0xFFFFFFFFFFFFFFFFFFFFFFFFFFFFFFFFFFFFFFFF AND PUSH20 0xFFFFFFFFFFFFFFFFFFFFFFFFFFFFFFFFFFFFFFFF AND DUP2 MSTORE PUSH1 0x20 ADD SWAP1 DUP2 MSTORE PUSH1 0x20 ADD PUSH1 0x0 KECCAK256 PUSH1 0x0 DUP2 SLOAD DUP1 SWAP3 SWAP2 SWAP1 PUSH2 0x1C54 SWAP1 PUSH2 0x42CF JUMP JUMPDEST SWAP2 SWAP1 POP SSTORE POP PUSH2 0x1C6E CALLER DUP3 DUP6 PUSH2 0x1C69 SWAP2 SWAP1 PUSH2 0x453A JUMP JUMPDEST PUSH2 0x28D7 JUMP JUMPDEST DUP1 DUP1 PUSH2 0x1C79 SWAP1 PUSH2 0x42CF JUMP JUMPDEST SWAP2 POP POP PUSH2 0x1BFD JUMP JUMPDEST POP POP POP POP POP JUMP JUMPDEST PUSH2 0x1C9A PUSH2 0x1C93 PUSH2 0x23AA JUMP JUMPDEST DUP4 DUP4 PUSH2 0x29DE JUMP JUMPDEST POP POP JUMP JUMPDEST PUSH2 0x1CA6 PUSH2 0x23AA JUMP JUMPDEST PUSH20 0xFFFFFFFFFFFFFFFFFFFFFFFFFFFFFFFFFFFFFFFF AND PUSH2 0x1CC4 PUSH2 0x19F6 JUMP JUMPDEST PUSH20 0xFFFFFFFFFFFFFFFFFFFFFFFFFFFFFFFFFFFFFFFF AND EQ PUSH2 0x1D1A JUMPI PUSH1 0x40 MLOAD PUSH32 0x8C379A000000000000000000000000000000000000000000000000000000000 DUP2 MSTORE PUSH1 0x4 ADD PUSH2 0x1D11 SWAP1 PUSH2 0x3ED0 JUMP JUMPDEST PUSH1 0x40 MLOAD DUP1 SWAP2 SUB SWAP1 REVERT JUMPDEST PUSH1 0x1 PUSH1 0x14 PUSH1 0x1 PUSH2 0x100 EXP DUP2 SLOAD DUP2 PUSH1 0xFF MUL NOT AND SWAP1 DUP4 ISZERO ISZERO MUL OR SWAP1 SSTORE POP JUMP JUMPDEST PUSH2 0x1D48 PUSH2 0x1D42 PUSH2 0x23AA JUMP JUMPDEST DUP4 PUSH2 0x24D7 JUMP JUMPDEST PUSH2 0x1D87 JUMPI PUSH1 0x40 MLOAD PUSH32 0x8C379A000000000000000000000000000000000000000000000000000000000 DUP2 MSTORE PUSH1 0x4 ADD PUSH2 0x1D7E SWAP1 PUSH2 0x4179 JUMP JUMPDEST PUSH1 0x40 MLOAD DUP1 SWAP2 SUB SWAP1 REVERT JUMPDEST PUSH2 0x1D93 DUP5 DUP5 DUP5 DUP5 PUSH2 0x2B4B JUMP JUMPDEST POP POP POP POP JUMP JUMPDEST PUSH1 0x10 SLOAD DUP2 JUMP JUMPDEST PUSH1 0x12 SLOAD DUP2 JUMP JUMPDEST PUSH1 0xC DUP1 SLOAD PUSH2 0x1DB2 SWAP1 PUSH2 0x3F1F JUMP JUMPDEST DUP1 PUSH1 0x1F ADD PUSH1 0x20 DUP1 SWAP2 DIV MUL PUSH1 0x20 ADD PUSH1 0x40 MLOAD SWAP1 DUP2 ADD PUSH1 0x40 MSTORE DUP1 SWAP3 SWAP2 SWAP1 DUP2 DUP2 MSTORE PUSH1 0x20 ADD DUP3 DUP1 SLOAD PUSH2 0x1DDE SWAP1 PUSH2 0x3F1F JUMP JUMPDEST DUP1 ISZERO PUSH2 0x1E2B JUMPI DUP1 PUSH1 0x1F LT PUSH2 0x1E00 JUMPI PUSH2 0x100 DUP1 DUP4 SLOAD DIV MUL DUP4 MSTORE SWAP2 PUSH1 0x20 ADD SWAP2 PUSH2 0x1E2B JUMP JUMPDEST DUP3 ADD SWAP2 SWAP1 PUSH1 0x0 MSTORE PUSH1 0x20 PUSH1 0x0 KECCAK256 SWAP1 JUMPDEST DUP2 SLOAD DUP2 MSTORE SWAP1 PUSH1 0x1 ADD SWAP1 PUSH1 0x20 ADD DUP1 DUP4 GT PUSH2 0x1E0E JUMPI DUP3 SWAP1 SUB PUSH1 0x1F AND DUP3 ADD SWAP2 JUMPDEST POP POP POP POP POP DUP2 JUMP JUMPDEST PUSH1 0x60 PUSH2 0x1E3E DUP3 PUSH2 0x23B2 JUMP JUMPDEST PUSH2 0x1E7D JUMPI PUSH1 0x40 MLOAD PUSH32 0x8C379A000000000000000000000000000000000000000000000000000000000 DUP2 MSTORE PUSH1 0x4 ADD PUSH2 0x1E74 SWAP1 PUSH2 0x46DA JUMP JUMPDEST PUSH1 0x40 MLOAD DUP1 SWAP2 SUB SWAP1 REVERT JUMPDEST PUSH1 0x14 PUSH1 0x1 SWAP1 SLOAD SWAP1 PUSH2 0x100 EXP SWAP1 DIV PUSH1 0xFF AND PUSH2 0x1F23 JUMPI PUSH1 0xD DUP1 SLOAD PUSH2 0x1E9E SWAP1 PUSH2 0x3F1F JUMP JUMPDEST DUP1 PUSH1 0x1F ADD PUSH1 0x20 DUP1 SWAP2 DIV MUL PUSH1 0x20 ADD PUSH1 0x40 MLOAD SWAP1 DUP2 ADD PUSH1 0x40 MSTORE DUP1 SWAP3 SWAP2 SWAP1 DUP2 DUP2 MSTORE PUSH1 0x20 ADD DUP3 DUP1 SLOAD PUSH2 0x1ECA SWAP1 PUSH2 0x3F1F JUMP JUMPDEST DUP1 ISZERO PUSH2 0x1F17 JUMPI DUP1 PUSH1 0x1F LT PUSH2 0x1EEC JUMPI PUSH2 0x100 DUP1 DUP4 SLOAD DIV MUL DUP4 MSTORE SWAP2 PUSH1 0x20 ADD SWAP2 PUSH2 0x1F17 JUMP JUMPDEST DUP3 ADD SWAP2 SWAP1 PUSH1 0x0 MSTORE PUSH1 0x20 PUSH1 0x0 KECCAK256 SWAP1 JUMPDEST DUP2 SLOAD DUP2 MSTORE SWAP1 PUSH1 0x1 ADD SWAP1 PUSH1 0x20 ADD DUP1 DUP4 GT PUSH2 0x1EFA JUMPI DUP3 SWAP1 SUB PUSH1 0x1F AND DUP3 ADD SWAP2 JUMPDEST POP POP POP POP POP SWAP1 POP PUSH2 0x1F7F JUMP JUMPDEST PUSH1 0x0 PUSH2 0x1F2D PUSH2 0x2BA7 JUMP JUMPDEST SWAP1 POP PUSH1 0x0 DUP2 MLOAD GT PUSH2 0x1F4D JUMPI PUSH1 0x40 MLOAD DUP1 PUSH1 0x20 ADD PUSH1 0x40 MSTORE DUP1 PUSH1 0x0 DUP2 MSTORE POP PUSH2 0x1F7B JUMP JUMPDEST DUP1 PUSH2 0x1F57 DUP5 PUSH2 0x2C39 JUMP JUMPDEST PUSH1 0xC PUSH1 0x40 MLOAD PUSH1 0x20 ADD PUSH2 0x1F6B SWAP4 SWAP3 SWAP2 SWAP1 PUSH2 0x47CA JUMP JUMPDEST PUSH1 0x40 MLOAD PUSH1 0x20 DUP2 DUP4 SUB SUB DUP2 MSTORE SWAP1 PUSH1 0x40 MSTORE JUMPDEST SWAP2 POP POP JUMPDEST SWAP2 SWAP1 POP JUMP JUMPDEST PUSH2 0x1F8C PUSH2 0x23AA JUMP JUMPDEST PUSH20 0xFFFFFFFFFFFFFFFFFFFFFFFFFFFFFFFFFFFFFFFF AND PUSH2 0x1FAA PUSH2 0x19F6 JUMP JUMPDEST PUSH20 0xFFFFFFFFFFFFFFFFFFFFFFFFFFFFFFFFFFFFFFFF AND EQ PUSH2 0x2000 JUMPI PUSH1 0x40 MLOAD PUSH32 0x8C379A000000000000000000000000000000000000000000000000000000000 DUP2 MSTORE PUSH1 0x4 ADD PUSH2 0x1FF7 SWAP1 PUSH2 0x3ED0 JUMP JUMPDEST PUSH1 0x40 MLOAD DUP1 SWAP2 SUB SWAP1 REVERT JUMPDEST DUP1 PUSH1 0x12 DUP2 SWAP1 SSTORE POP POP JUMP JUMPDEST PUSH2 0x2012 PUSH2 0x23AA JUMP JUMPDEST PUSH20 0xFFFFFFFFFFFFFFFFFFFFFFFFFFFFFFFFFFFFFFFF AND PUSH2 0x2030 PUSH2 0x19F6 JUMP JUMPDEST PUSH20 0xFFFFFFFFFFFFFFFFFFFFFFFFFFFFFFFFFFFFFFFF AND EQ PUSH2 0x2086 JUMPI PUSH1 0x40 MLOAD PUSH32 0x8C379A000000000000000000000000000000000000000000000000000000000 DUP2 MSTORE PUSH1 0x4 ADD PUSH2 0x207D SWAP1 PUSH2 0x3ED0 JUMP JUMPDEST PUSH1 0x40 MLOAD DUP1 SWAP2 SUB SWAP1 REVERT JUMPDEST DUP1 PUSH1 0xC SWAP1 DUP1 MLOAD SWAP1 PUSH1 0x20 ADD SWAP1 PUSH2 0x209C SWAP3 SWAP2 SWAP1 PUSH2 0x35E7 JUMP JUMPDEST POP POP JUMP JUMPDEST PUSH1 0x0 PUSH1 0x5 PUSH1 0x0 DUP5 PUSH20 0xFFFFFFFFFFFFFFFFFFFFFFFFFFFFFFFFFFFFFFFF AND PUSH20 0xFFFFFFFFFFFFFFFFFFFFFFFFFFFFFFFFFFFFFFFF AND DUP2 MSTORE PUSH1 0x20 ADD SWAP1 DUP2 MSTORE PUSH1 0x20 ADD PUSH1 0x0 KECCAK256 PUSH1 0x0 DUP4 PUSH20 0xFFFFFFFFFFFFFFFFFFFFFFFFFFFFFFFFFFFFFFFF AND PUSH20 0xFFFFFFFFFFFFFFFFFFFFFFFFFFFFFFFFFFFFFFFF AND DUP2 MSTORE PUSH1 0x20 ADD SWAP1 DUP2 MSTORE PUSH1 0x20 ADD PUSH1 0x0 KECCAK256 PUSH1 0x0 SWAP1 SLOAD SWAP1 PUSH2 0x100 EXP SWAP1 DIV PUSH1 0xFF AND SWAP1 POP SWAP3 SWAP2 POP POP JUMP JUMPDEST PUSH1 0x13 SLOAD DUP2 JUMP JUMPDEST PUSH2 0x2142 PUSH2 0x23AA JUMP JUMPDEST PUSH20 0xFFFFFFFFFFFFFFFFFFFFFFFFFFFFFFFFFFFFFFFF AND PUSH2 0x2160 PUSH2 0x19F6 JUMP JUMPDEST PUSH20 0xFFFFFFFFFFFFFFFFFFFFFFFFFFFFFFFFFFFFFFFF AND EQ PUSH2 0x21B6 JUMPI PUSH1 0x40 MLOAD PUSH32 0x8C379A000000000000000000000000000000000000000000000000000000000 DUP2 MSTORE PUSH1 0x4 ADD PUSH2 0x21AD SWAP1 PUSH2 0x3ED0 JUMP JUMPDEST PUSH1 0x40 MLOAD DUP1 SWAP2 SUB SWAP1 REVERT JUMPDEST DUP1 PUSH1 0xD SWAP1 DUP1 MLOAD SWAP1 PUSH1 0x20 ADD SWAP1 PUSH2 0x21CC SWAP3 SWAP2 SWAP1 PUSH2 0x35E7 JUMP JUMPDEST POP POP JUMP JUMPDEST PUSH2 0x21D8 PUSH2 0x23AA JUMP JUMPDEST PUSH20 0xFFFFFFFFFFFFFFFFFFFFFFFFFFFFFFFFFFFFFFFF AND PUSH2 0x21F6 PUSH2 0x19F6 JUMP JUMPDEST PUSH20 0xFFFFFFFFFFFFFFFFFFFFFFFFFFFFFFFFFFFFFFFF AND EQ PUSH2 0x224C JUMPI PUSH1 0x40 MLOAD PUSH32 0x8C379A000000000000000000000000000000000000000000000000000000000 DUP2 MSTORE PUSH1 0x4 ADD PUSH2 0x2243 SWAP1 PUSH2 0x3ED0 JUMP JUMPDEST PUSH1 0x40 MLOAD DUP1 SWAP2 SUB SWAP1 REVERT JUMPDEST PUSH1 0x0 PUSH20 0xFFFFFFFFFFFFFFFFFFFFFFFFFFFFFFFFFFFFFFFF AND DUP2 PUSH20 0xFFFFFFFFFFFFFFFFFFFFFFFFFFFFFFFFFFFFFFFF AND EQ ISZERO PUSH2 0x22BC JUMPI PUSH1 0x40 MLOAD PUSH32 0x8C379A000000000000000000000000000000000000000000000000000000000 DUP2 MSTORE PUSH1 0x4 ADD PUSH2 0x22B3 SWAP1 PUSH2 0x486D JUMP JUMPDEST PUSH1 0x40 MLOAD DUP1 SWAP2 SUB SWAP1 REVERT JUMPDEST PUSH2 0x22C5 DUP2 PUSH2 0x2811 JUMP JUMPDEST POP JUMP JUMPDEST PUSH1 0x0 PUSH32 0x80AC58CD00000000000000000000000000000000000000000000000000000000 PUSH28 0xFFFFFFFFFFFFFFFFFFFFFFFFFFFFFFFFFFFFFFFFFFFFFFFFFFFFFFFF NOT AND DUP3 PUSH28 0xFFFFFFFFFFFFFFFFFFFFFFFFFFFFFFFFFFFFFFFFFFFFFFFFFFFFFFFF NOT AND EQ DUP1 PUSH2 0x2393 JUMPI POP PUSH32 0x5B5E139F00000000000000000000000000000000000000000000000000000000 PUSH28 0xFFFFFFFFFFFFFFFFFFFFFFFFFFFFFFFFFFFFFFFFFFFFFFFFFFFFFFFF NOT AND DUP3 PUSH28 0xFFFFFFFFFFFFFFFFFFFFFFFFFFFFFFFFFFFFFFFFFFFFFFFFFFFFFFFF NOT AND EQ JUMPDEST DUP1 PUSH2 0x23A3 JUMPI POP PUSH2 0x23A2 DUP3 PUSH2 0x2D9A JUMP JUMPDEST JUMPDEST SWAP1 POP SWAP2 SWAP1 POP JUMP JUMPDEST PUSH1 0x0 CALLER SWAP1 POP SWAP1 JUMP JUMPDEST PUSH1 0x0 DUP1 PUSH20 0xFFFFFFFFFFFFFFFFFFFFFFFFFFFFFFFFFFFFFFFF AND PUSH1 0x2 PUSH1 0x0 DUP5 DUP2 MSTORE PUSH1 0x20 ADD SWAP1 DUP2 MSTORE PUSH1 0x20 ADD PUSH1 0x0 KECCAK256 PUSH1 0x0 SWAP1 SLOAD SWAP1 PUSH2 0x100 EXP SWAP1 DIV PUSH20 0xFFFFFFFFFFFFFFFFFFFFFFFFFFFFFFFFFFFFFFFF AND PUSH20 0xFFFFFFFFFFFFFFFFFFFFFFFFFFFFFFFFFFFFFFFF AND EQ ISZERO SWAP1 POP SWAP2 SWAP1 POP JUMP JUMPDEST DUP2 PUSH1 0x4 PUSH1 0x0 DUP4 DUP2 MSTORE PUSH1 0x20 ADD SWAP1 DUP2 MSTORE PUSH1 0x20 ADD PUSH1 0x0 KECCAK256 PUSH1 0x0 PUSH2 0x100 EXP DUP2 SLOAD DUP2 PUSH20 0xFFFFFFFFFFFFFFFFFFFFFFFFFFFFFFFFFFFFFFFF MUL NOT AND SWAP1 DUP4 PUSH20 0xFFFFFFFFFFFFFFFFFFFFFFFFFFFFFFFFFFFFFFFF AND MUL OR SWAP1 SSTORE POP DUP1 DUP3 PUSH20 0xFFFFFFFFFFFFFFFFFFFFFFFFFFFFFFFFFFFFFFFF AND PUSH2 0x2491 DUP4 PUSH2 0x13B0 JUMP JUMPDEST PUSH20 0xFFFFFFFFFFFFFFFFFFFFFFFFFFFFFFFFFFFFFFFF AND PUSH32 0x8C5BE1E5EBEC7D5BD14F71427D1E84F3DD0314C0F7B2291E5B200AC8C7C3B925 PUSH1 0x40 MLOAD PUSH1 0x40 MLOAD DUP1 SWAP2 SUB SWAP1 LOG4 POP POP JUMP JUMPDEST PUSH1 0x0 PUSH2 0x24E2 DUP3 PUSH2 0x23B2 JUMP JUMPDEST PUSH2 0x2521 JUMPI PUSH1 0x40 MLOAD PUSH32 0x8C379A000000000000000000000000000000000000000000000000000000000 DUP2 MSTORE PUSH1 0x4 ADD PUSH2 0x2518 SWAP1 PUSH2 0x48FF JUMP JUMPDEST PUSH1 0x40 MLOAD DUP1 SWAP2 SUB SWAP1 REVERT JUMPDEST PUSH1 0x0 PUSH2 0x252C DUP4 PUSH2 0x13B0 JUMP JUMPDEST SWAP1 POP DUP1 PUSH20 0xFFFFFFFFFFFFFFFFFFFFFFFFFFFFFFFFFFFFFFFF AND DUP5 PUSH20 0xFFFFFFFFFFFFFFFFFFFFFFFFFFFFFFFFFFFFFFFF AND EQ DUP1 PUSH2 0x259B JUMPI POP DUP4 PUSH20 0xFFFFFFFFFFFFFFFFFFFFFFFFFFFFFFFFFFFFFFFF AND PUSH2 0x2583 DUP5 PUSH2 0xC53 JUMP JUMPDEST PUSH20 0xFFFFFFFFFFFFFFFFFFFFFFFFFFFFFFFFFFFFFFFF AND EQ JUMPDEST DUP1 PUSH2 0x25AC JUMPI POP PUSH2 0x25AB DUP2 DUP6 PUSH2 0x20A0 JUMP JUMPDEST JUMPDEST SWAP2 POP POP SWAP3 SWAP2 POP POP JUMP JUMPDEST DUP3 PUSH20 0xFFFFFFFFFFFFFFFFFFFFFFFFFFFFFFFFFFFFFFFF AND PUSH2 0x25D5 DUP3 PUSH2 0x13B0 JUMP JUMPDEST PUSH20 0xFFFFFFFFFFFFFFFFFFFFFFFFFFFFFFFFFFFFFFFF AND EQ PUSH2 0x262B JUMPI PUSH1 0x40 MLOAD PUSH32 0x8C379A000000000000000000000000000000000000000000000000000000000 DUP2 MSTORE PUSH1 0x4 ADD PUSH2 0x2622 SWAP1 PUSH2 0x4991 JUMP JUMPDEST PUSH1 0x40 MLOAD DUP1 SWAP2 SUB SWAP1 REVERT JUMPDEST PUSH1 0x0 PUSH20 0xFFFFFFFFFFFFFFFFFFFFFFFFFFFFFFFFFFFFFFFF AND DUP3 PUSH20 0xFFFFFFFFFFFFFFFFFFFFFFFFFFFFFFFFFFFFFFFF AND EQ ISZERO PUSH2 0x269B JUMPI PUSH1 0x40 MLOAD PUSH32 0x8C379A000000000000000000000000000000000000000000000000000000000 DUP2 MSTORE PUSH1 0x4 ADD PUSH2 0x2692 SWAP1 PUSH2 0x4A23 JUMP JUMPDEST PUSH1 0x40 MLOAD DUP1 SWAP2 SUB SWAP1 REVERT JUMPDEST PUSH2 0x26A6 DUP4 DUP4 DUP4 PUSH2 0x2E04 JUMP JUMPDEST PUSH2 0x26B1 PUSH1 0x0 DUP3 PUSH2 0x241E JUMP JUMPDEST PUSH1 0x1 PUSH1 0x3 PUSH1 0x0 DUP6 PUSH20 0xFFFFFFFFFFFFFFFFFFFFFFFFFFFFFFFFFFFFFFFF AND PUSH20 0xFFFFFFFFFFFFFFFFFFFFFFFFFFFFFFFFFFFFFFFF AND DUP2 MSTORE PUSH1 0x20 ADD SWAP1 DUP2 MSTORE PUSH1 0x20 ADD PUSH1 0x0 KECCAK256 PUSH1 0x0 DUP3 DUP3 SLOAD PUSH2 0x2701 SWAP2 SWAP1 PUSH2 0x4A43 JUMP JUMPDEST SWAP3 POP POP DUP2 SWAP1 SSTORE POP PUSH1 0x1 PUSH1 0x3 PUSH1 0x0 DUP5 PUSH20 0xFFFFFFFFFFFFFFFFFFFFFFFFFFFFFFFFFFFFFFFF AND PUSH20 0xFFFFFFFFFFFFFFFFFFFFFFFFFFFFFFFFFFFFFFFF AND DUP2 MSTORE PUSH1 0x20 ADD SWAP1 DUP2 MSTORE PUSH1 0x20 ADD PUSH1 0x0 KECCAK256 PUSH1 0x0 DUP3 DUP3 SLOAD PUSH2 0x2758 SWAP2 SWAP1 PUSH2 0x453A JUMP JUMPDEST SWAP3 POP POP DUP2 SWAP1 SSTORE POP DUP2 PUSH1 0x2 PUSH1 0x0 DUP4 DUP2 MSTORE PUSH1 0x20 ADD SWAP1 DUP2 MSTORE PUSH1 0x20 ADD PUSH1 0x0 KECCAK256 PUSH1 0x0 PUSH2 0x100 EXP DUP2 SLOAD DUP2 PUSH20 0xFFFFFFFFFFFFFFFFFFFFFFFFFFFFFFFFFFFFFFFF MUL NOT AND SWAP1 DUP4 PUSH20 0xFFFFFFFFFFFFFFFFFFFFFFFFFFFFFFFFFFFFFFFF AND MUL OR SWAP1 SSTORE POP DUP1 DUP3 PUSH20 0xFFFFFFFFFFFFFFFFFFFFFFFFFFFFFFFFFFFFFFFF AND DUP5 PUSH20 0xFFFFFFFFFFFFFFFFFFFFFFFFFFFFFFFFFFFFFFFF AND PUSH32 0xDDF252AD1BE2C89B69C2B068FC378DAA952BA7F163C4A11628F55A4DF523B3EF PUSH1 0x40 MLOAD PUSH1 0x40 MLOAD DUP1 SWAP2 SUB SWAP1 LOG4 POP POP POP JUMP JUMPDEST PUSH1 0x0 PUSH1 0xA PUSH1 0x0 SWAP1 SLOAD SWAP1 PUSH2 0x100 EXP SWAP1 DIV PUSH20 0xFFFFFFFFFFFFFFFFFFFFFFFFFFFFFFFFFFFFFFFF AND SWAP1 POP DUP2 PUSH1 0xA PUSH1 0x0 PUSH2 0x100 EXP DUP2 SLOAD DUP2 PUSH20 0xFFFFFFFFFFFFFFFFFFFFFFFFFFFFFFFFFFFFFFFF MUL NOT AND SWAP1 DUP4 PUSH20 0xFFFFFFFFFFFFFFFFFFFFFFFFFFFFFFFFFFFFFFFF AND MUL OR SWAP1 SSTORE POP DUP2 PUSH20 0xFFFFFFFFFFFFFFFFFFFFFFFFFFFFFFFFFFFFFFFF AND DUP2 PUSH20 0xFFFFFFFFFFFFFFFFFFFFFFFFFFFFFFFFFFFFFFFF AND PUSH32 0x8BE0079C531659141344CD1FD0A4F28419497F9722A3DAAFE3B4186F6B6457E0 PUSH1 0x40 MLOAD PUSH1 0x40 MLOAD DUP1 SWAP2 SUB SWAP1 LOG3 POP POP JUMP JUMPDEST PUSH2 0x28F1 DUP3 DUP3 PUSH1 0x40 MLOAD DUP1 PUSH1 0x20 ADD PUSH1 0x40 MSTORE DUP1 PUSH1 0x0 DUP2 MSTORE POP PUSH2 0x2F18 JUMP JUMPDEST POP POP JUMP JUMPDEST PUSH1 0x12 SLOAD DUP2 DUP4 PUSH2 0x2904 SWAP2 SWAP1 PUSH2 0x453A JUMP JUMPDEST GT ISZERO PUSH2 0x2945 JUMPI PUSH1 0x40 MLOAD PUSH32 0x8C379A000000000000000000000000000000000000000000000000000000000 DUP2 MSTORE PUSH1 0x4 ADD PUSH2 0x293C SWAP1 PUSH2 0x4AC3 JUMP JUMPDEST PUSH1 0x40 MLOAD DUP1 SWAP2 SUB SWAP1 REVERT JUMPDEST DUP1 PUSH1 0xE SLOAD PUSH2 0x2953 SWAP2 SWAP1 PUSH2 0x4AE3 JUMP JUMPDEST CALLVALUE LT ISZERO PUSH2 0x2995 JUMPI PUSH1 0x40 MLOAD PUSH32 0x8C379A000000000000000000000000000000000000000000000000000000000 DUP2 MSTORE PUSH1 0x4 ADD PUSH2 0x298C SWAP1 PUSH2 0x4B89 JUMP JUMPDEST PUSH1 0x40 MLOAD DUP1 SWAP2 SUB SWAP1 REVERT JUMPDEST PUSH1 0x10 SLOAD DUP2 GT ISZERO PUSH2 0x29DA JUMPI PUSH1 0x40 MLOAD PUSH32 0x8C379A000000000000000000000000000000000000000000000000000000000 DUP2 MSTORE PUSH1 0x4 ADD PUSH2 0x29D1 SWAP1 PUSH2 0x4C1B JUMP JUMPDEST PUSH1 0x40 MLOAD DUP1 SWAP2 SUB SWAP1 REVERT JUMPDEST POP POP JUMP JUMPDEST DUP2 PUSH20 0xFFFFFFFFFFFFFFFFFFFFFFFFFFFFFFFFFFFFFFFF AND DUP4 PUSH20 0xFFFFFFFFFFFFFFFFFFFFFFFFFFFFFFFFFFFFFFFF AND EQ ISZERO PUSH2 0x2A4D JUMPI PUSH1 0x40 MLOAD PUSH32 0x8C379A000000000000000000000000000000000000000000000000000000000 DUP2 MSTORE PUSH1 0x4 ADD PUSH2 0x2A44 SWAP1 PUSH2 0x4C87 JUMP JUMPDEST PUSH1 0x40 MLOAD DUP1 SWAP2 SUB SWAP1 REVERT JUMPDEST DUP1 PUSH1 0x5 PUSH1 0x0 DUP6 PUSH20 0xFFFFFFFFFFFFFFFFFFFFFFFFFFFFFFFFFFFFFFFF AND PUSH20 0xFFFFFFFFFFFFFFFFFFFFFFFFFFFFFFFFFFFFFFFF AND DUP2 MSTORE PUSH1 0x20 ADD SWAP1 DUP2 MSTORE PUSH1 0x20 ADD PUSH1 0x0 KECCAK256 PUSH1 0x0 DUP5 PUSH20 0xFFFFFFFFFFFFFFFFFFFFFFFFFFFFFFFFFFFFFFFF AND PUSH20 0xFFFFFFFFFFFFFFFFFFFFFFFFFFFFFFFFFFFFFFFF AND DUP2 MSTORE PUSH1 0x20 ADD SWAP1 DUP2 MSTORE PUSH1 0x20 ADD PUSH1 0x0 KECCAK256 PUSH1 0x0 PUSH2 0x100 EXP DUP2 SLOAD DUP2 PUSH1 0xFF MUL NOT AND SWAP1 DUP4 ISZERO ISZERO MUL OR SWAP1 SSTORE POP DUP2 PUSH20 0xFFFFFFFFFFFFFFFFFFFFFFFFFFFFFFFFFFFFFFFF AND DUP4 PUSH20 0xFFFFFFFFFFFFFFFFFFFFFFFFFFFFFFFFFFFFFFFF AND PUSH32 0x17307EAB39AB6107E8899845AD3D59BD9653F200F220920489CA2B5937696C31 DUP4 PUSH1 0x40 MLOAD PUSH2 0x2B3E SWAP2 SWAP1 PUSH2 0x373E JUMP JUMPDEST PUSH1 0x40 MLOAD DUP1 SWAP2 SUB SWAP1 LOG3 POP POP POP JUMP JUMPDEST PUSH2 0x2B56 DUP5 DUP5 DUP5 PUSH2 0x25B5 JUMP JUMPDEST PUSH2 0x2B62 DUP5 DUP5 DUP5 DUP5 PUSH2 0x2F73 JUMP JUMPDEST PUSH2 0x2BA1 JUMPI PUSH1 0x40 MLOAD PUSH32 0x8C379A000000000000000000000000000000000000000000000000000000000 DUP2 MSTORE PUSH1 0x4 ADD PUSH2 0x2B98 SWAP1 PUSH2 0x4D19 JUMP JUMPDEST PUSH1 0x40 MLOAD DUP1 SWAP2 SUB SWAP1 REVERT JUMPDEST POP POP POP POP JUMP JUMPDEST PUSH1 0x60 PUSH1 0xB DUP1 SLOAD PUSH2 0x2BB6 SWAP1 PUSH2 0x3F1F JUMP JUMPDEST DUP1 PUSH1 0x1F ADD PUSH1 0x20 DUP1 SWAP2 DIV MUL PUSH1 0x20 ADD PUSH1 0x40 MLOAD SWAP1 DUP2 ADD PUSH1 0x40 MSTORE DUP1 SWAP3 SWAP2 SWAP1 DUP2 DUP2 MSTORE PUSH1 0x20 ADD DUP3 DUP1 SLOAD PUSH2 0x2BE2 SWAP1 PUSH2 0x3F1F JUMP JUMPDEST DUP1 ISZERO PUSH2 0x2C2F JUMPI DUP1 PUSH1 0x1F LT PUSH2 0x2C04 JUMPI PUSH2 0x100 DUP1 DUP4 SLOAD DIV MUL DUP4 MSTORE SWAP2 PUSH1 0x20 ADD SWAP2 PUSH2 0x2C2F JUMP JUMPDEST DUP3 ADD SWAP2 SWAP1 PUSH1 0x0 MSTORE PUSH1 0x20 PUSH1 0x0 KECCAK256 SWAP1 JUMPDEST DUP2 SLOAD DUP2 MSTORE SWAP1 PUSH1 0x1 ADD SWAP1 PUSH1 0x20 ADD DUP1 DUP4 GT PUSH2 0x2C12 JUMPI DUP3 SWAP1 SUB PUSH1 0x1F AND DUP3 ADD SWAP2 JUMPDEST POP POP POP POP POP SWAP1 POP SWAP1 JUMP JUMPDEST PUSH1 0x60 PUSH1 0x0 DUP3 EQ ISZERO PUSH2 0x2C81 JUMPI PUSH1 0x40 MLOAD DUP1 PUSH1 0x40 ADD PUSH1 0x40 MSTORE DUP1 PUSH1 0x1 DUP2 MSTORE PUSH1 0x20 ADD PUSH32 0x3000000000000000000000000000000000000000000000000000000000000000 DUP2 MSTORE POP SWAP1 POP PUSH2 0x2D95 JUMP JUMPDEST PUSH1 0x0 DUP3 SWAP1 POP PUSH1 0x0 JUMPDEST PUSH1 0x0 DUP3 EQ PUSH2 0x2CB3 JUMPI DUP1 DUP1 PUSH2 0x2C9C SWAP1 PUSH2 0x42CF JUMP JUMPDEST SWAP2 POP POP PUSH1 0xA DUP3 PUSH2 0x2CAC SWAP2 SWAP1 PUSH2 0x4D68 JUMP JUMPDEST SWAP2 POP PUSH2 0x2C89 JUMP JUMPDEST PUSH1 0x0 DUP2 PUSH8 0xFFFFFFFFFFFFFFFF DUP2 GT ISZERO PUSH2 0x2CCF JUMPI PUSH2 0x2CCE PUSH2 0x3B2C JUMP JUMPDEST JUMPDEST PUSH1 0x40 MLOAD SWAP1 DUP1 DUP3 MSTORE DUP1 PUSH1 0x1F ADD PUSH1 0x1F NOT AND PUSH1 0x20 ADD DUP3 ADD PUSH1 0x40 MSTORE DUP1 ISZERO PUSH2 0x2D01 JUMPI DUP2 PUSH1 0x20 ADD PUSH1 0x1 DUP3 MUL DUP1 CALLDATASIZE DUP4 CALLDATACOPY DUP1 DUP3 ADD SWAP2 POP POP SWAP1 POP JUMPDEST POP SWAP1 POP JUMPDEST PUSH1 0x0 DUP6 EQ PUSH2 0x2D8E JUMPI PUSH1 0x1 DUP3 PUSH2 0x2D1A SWAP2 SWAP1 PUSH2 0x4A43 JUMP JUMPDEST SWAP2 POP PUSH1 0xA DUP6 PUSH2 0x2D29 SWAP2 SWAP1 PUSH2 0x4D99 JUMP JUMPDEST PUSH1 0x30 PUSH2 0x2D35 SWAP2 SWAP1 PUSH2 0x453A JUMP JUMPDEST PUSH1 0xF8 SHL DUP2 DUP4 DUP2 MLOAD DUP2 LT PUSH2 0x2D4B JUMPI PUSH2 0x2D4A PUSH2 0x4271 JUMP JUMPDEST JUMPDEST PUSH1 0x20 ADD ADD SWAP1 PUSH31 0xFFFFFFFFFFFFFFFFFFFFFFFFFFFFFFFFFFFFFFFFFFFFFFFFFFFFFFFFFFFFFF NOT AND SWAP1 DUP2 PUSH1 0x0 BYTE SWAP1 MSTORE8 POP PUSH1 0xA DUP6 PUSH2 0x2D87 SWAP2 SWAP1 PUSH2 0x4D68 JUMP JUMPDEST SWAP5 POP PUSH2 0x2D05 JUMP JUMPDEST DUP1 SWAP4 POP POP POP POP JUMPDEST SWAP2 SWAP1 POP JUMP JUMPDEST PUSH1 0x0 PUSH32 0x1FFC9A700000000000000000000000000000000000000000000000000000000 PUSH28 0xFFFFFFFFFFFFFFFFFFFFFFFFFFFFFFFFFFFFFFFFFFFFFFFFFFFFFFFF NOT AND DUP3 PUSH28 0xFFFFFFFFFFFFFFFFFFFFFFFFFFFFFFFFFFFFFFFFFFFFFFFFFFFFFFFF NOT AND EQ SWAP1 POP SWAP2 SWAP1 POP JUMP JUMPDEST PUSH2 0x2E0F DUP4 DUP4 DUP4 PUSH2 0x30FB JUMP JUMPDEST PUSH1 0x0 PUSH20 0xFFFFFFFFFFFFFFFFFFFFFFFFFFFFFFFFFFFFFFFF AND DUP4 PUSH20 0xFFFFFFFFFFFFFFFFFFFFFFFFFFFFFFFFFFFFFFFF AND EQ ISZERO PUSH2 0x2E52 JUMPI PUSH2 0x2E4D DUP2 PUSH2 0x3100 JUMP JUMPDEST PUSH2 0x2E91 JUMP JUMPDEST DUP2 PUSH20 0xFFFFFFFFFFFFFFFFFFFFFFFFFFFFFFFFFFFFFFFF AND DUP4 PUSH20 0xFFFFFFFFFFFFFFFFFFFFFFFFFFFFFFFFFFFFFFFF AND EQ PUSH2 0x2E90 JUMPI PUSH2 0x2E8F DUP4 DUP3 PUSH2 0x3149 JUMP JUMPDEST JUMPDEST JUMPDEST PUSH1 0x0 PUSH20 0xFFFFFFFFFFFFFFFFFFFFFFFFFFFFFFFFFFFFFFFF AND DUP3 PUSH20 0xFFFFFFFFFFFFFFFFFFFFFFFFFFFFFFFFFFFFFFFF AND EQ ISZERO PUSH2 0x2ED4 JUMPI PUSH2 0x2ECF DUP2 PUSH2 0x32B6 JUMP JUMPDEST PUSH2 0x2F13 JUMP JUMPDEST DUP3 PUSH20 0xFFFFFFFFFFFFFFFFFFFFFFFFFFFFFFFFFFFFFFFF AND DUP3 PUSH20 0xFFFFFFFFFFFFFFFFFFFFFFFFFFFFFFFFFFFFFFFF AND EQ PUSH2 0x2F12 JUMPI PUSH2 0x2F11 DUP3 DUP3 PUSH2 0x3387 JUMP JUMPDEST JUMPDEST JUMPDEST POP POP POP JUMP JUMPDEST PUSH2 0x2F22 DUP4 DUP4 PUSH2 0x3406 JUMP JUMPDEST PUSH2 0x2F2F PUSH1 0x0 DUP5 DUP5 DUP5 PUSH2 0x2F73 JUMP JUMPDEST PUSH2 0x2F6E JUMPI PUSH1 0x40 MLOAD PUSH32 0x8C379A000000000000000000000000000000000000000000000000000000000 DUP2 MSTORE PUSH1 0x4 ADD PUSH2 0x2F65 SWAP1 PUSH2 0x4D19 JUMP JUMPDEST PUSH1 0x40 MLOAD DUP1 SWAP2 SUB SWAP1 REVERT JUMPDEST POP POP POP JUMP JUMPDEST PUSH1 0x0 PUSH2 0x2F94 DUP5 PUSH20 0xFFFFFFFFFFFFFFFFFFFFFFFFFFFFFFFFFFFFFFFF AND PUSH2 0x35D4 JUMP JUMPDEST ISZERO PUSH2 0x30EE JUMPI DUP4 PUSH20 0xFFFFFFFFFFFFFFFFFFFFFFFFFFFFFFFFFFFFFFFF AND PUSH4 0x150B7A02 PUSH2 0x2FBD PUSH2 0x23AA JUMP JUMPDEST DUP8 DUP7 DUP7 PUSH1 0x40 MLOAD DUP6 PUSH4 0xFFFFFFFF AND PUSH1 0xE0 SHL DUP2 MSTORE PUSH1 0x4 ADD PUSH2 0x2FDF SWAP5 SWAP4 SWAP3 SWAP2 SWAP1 PUSH2 0x4E1F JUMP JUMPDEST PUSH1 0x20 PUSH1 0x40 MLOAD DUP1 DUP4 SUB DUP2 PUSH1 0x0 DUP8 GAS CALL SWAP3 POP POP POP DUP1 ISZERO PUSH2 0x301B JUMPI POP PUSH1 0x40 MLOAD RETURNDATASIZE PUSH1 0x1F NOT PUSH1 0x1F DUP3 ADD AND DUP3 ADD DUP1 PUSH1 0x40 MSTORE POP DUP2 ADD SWAP1 PUSH2 0x3018 SWAP2 SWAP1 PUSH2 0x4E80 JUMP JUMPDEST PUSH1 0x1 JUMPDEST PUSH2 0x309E JUMPI RETURNDATASIZE DUP1 PUSH1 0x0 DUP2 EQ PUSH2 0x304B JUMPI PUSH1 0x40 MLOAD SWAP2 POP PUSH1 0x1F NOT PUSH1 0x3F RETURNDATASIZE ADD AND DUP3 ADD PUSH1 0x40 MSTORE RETURNDATASIZE DUP3 MSTORE RETURNDATASIZE PUSH1 0x0 PUSH1 0x20 DUP5 ADD RETURNDATACOPY PUSH2 0x3050 JUMP JUMPDEST PUSH1 0x60 SWAP2 POP JUMPDEST POP PUSH1 0x0 DUP2 MLOAD EQ ISZERO PUSH2 0x3096 JUMPI PUSH1 0x40 MLOAD PUSH32 0x8C379A000000000000000000000000000000000000000000000000000000000 DUP2 MSTORE PUSH1 0x4 ADD PUSH2 0x308D SWAP1 PUSH2 0x4D19 JUMP JUMPDEST PUSH1 0x40 MLOAD DUP1 SWAP2 SUB SWAP1 REVERT JUMPDEST DUP1 MLOAD DUP2 PUSH1 0x20 ADD REVERT JUMPDEST PUSH4 0x150B7A02 PUSH1 0xE0 SHL PUSH28 0xFFFFFFFFFFFFFFFFFFFFFFFFFFFFFFFFFFFFFFFFFFFFFFFFFFFFFFFF NOT AND DUP2 PUSH28 0xFFFFFFFFFFFFFFFFFFFFFFFFFFFFFFFFFFFFFFFFFFFFFFFFFFFFFFFF NOT AND EQ SWAP2 POP POP PUSH2 0x30F3 JUMP JUMPDEST PUSH1 0x1 SWAP1 POP JUMPDEST SWAP5 SWAP4 POP POP POP POP JUMP JUMPDEST POP POP POP JUMP JUMPDEST PUSH1 0x8 DUP1 SLOAD SWAP1 POP PUSH1 0x9 PUSH1 0x0 DUP4 DUP2 MSTORE PUSH1 0x20 ADD SWAP1 DUP2 MSTORE PUSH1 0x20 ADD PUSH1 0x0 KECCAK256 DUP2 SWAP1 SSTORE POP PUSH1 0x8 DUP2 SWAP1 DUP1 PUSH1 0x1 DUP2 SLOAD ADD DUP1 DUP3 SSTORE DUP1 SWAP2 POP POP PUSH1 0x1 SWAP1 SUB SWAP1 PUSH1 0x0 MSTORE PUSH1 0x20 PUSH1 0x0 KECCAK256 ADD PUSH1 0x0 SWAP1 SWAP2 SWAP1 SWAP2 SWAP1 SWAP2 POP SSTORE POP JUMP JUMPDEST PUSH1 0x0 PUSH1 0x1 PUSH2 0x3156 DUP5 PUSH2 0x156C JUMP JUMPDEST PUSH2 0x3160 SWAP2 SWAP1 PUSH2 0x4A43 JUMP JUMPDEST SWAP1 POP PUSH1 0x0 PUSH1 0x7 PUSH1 0x0 DUP5 DUP2 MSTORE PUSH1 0x20 ADD SWAP1 DUP2 MSTORE PUSH1 0x20 ADD PUSH1 0x0 KECCAK256 SLOAD SWAP1 POP DUP2 DUP2 EQ PUSH2 0x3245 JUMPI PUSH1 0x0 PUSH1 0x6 PUSH1 0x0 DUP7 PUSH20 0xFFFFFFFFFFFFFFFFFFFFFFFFFFFFFFFFFFFFFFFF AND PUSH20 0xFFFFFFFFFFFFFFFFFFFFFFFFFFFFFFFFFFFFFFFF AND DUP2 MSTORE PUSH1 0x20 ADD SWAP1 DUP2 MSTORE PUSH1 0x20 ADD PUSH1 0x0 KECCAK256 PUSH1 0x0 DUP5 DUP2 MSTORE PUSH1 0x20 ADD SWAP1 DUP2 MSTORE PUSH1 0x20 ADD PUSH1 0x0 KECCAK256 SLOAD SWAP1 POP DUP1 PUSH1 0x6 PUSH1 0x0 DUP8 PUSH20 0xFFFFFFFFFFFFFFFFFFFFFFFFFFFFFFFFFFFFFFFF AND PUSH20 0xFFFFFFFFFFFFFFFFFFFFFFFFFFFFFFFFFFFFFFFF AND DUP2 MSTORE PUSH1 0x20 ADD SWAP1 DUP2 MSTORE PUSH1 0x20 ADD PUSH1 0x0 KECCAK256 PUSH1 0x0 DUP5 DUP2 MSTORE PUSH1 0x20 ADD SWAP1 DUP2 MSTORE PUSH1 0x20 ADD PUSH1 0x0 KECCAK256 DUP2 SWAP1 SSTORE POP DUP2 PUSH1 0x7 PUSH1 0x0 DUP4 DUP2 MSTORE PUSH1 0x20 ADD SWAP1 DUP2 MSTORE PUSH1 0x20 ADD PUSH1 0x0 KECCAK256 DUP2 SWAP1 SSTORE POP POP JUMPDEST PUSH1 0x7 PUSH1 0x0 DUP5 DUP2 MSTORE PUSH1 0x20 ADD SWAP1 DUP2 MSTORE PUSH1 0x20 ADD PUSH1 0x0 KECCAK256 PUSH1 0x0 SWAP1 SSTORE PUSH1 0x6 PUSH1 0x0 DUP6 PUSH20 0xFFFFFFFFFFFFFFFFFFFFFFFFFFFFFFFFFFFFFFFF AND PUSH20 0xFFFFFFFFFFFFFFFFFFFFFFFFFFFFFFFFFFFFFFFF AND DUP2 MSTORE PUSH1 0x20 ADD SWAP1 DUP2 MSTORE PUSH1 0x20 ADD PUSH1 0x0 KECCAK256 PUSH1 0x0 DUP4 DUP2 MSTORE PUSH1 0x20 ADD SWAP1 DUP2 MSTORE PUSH1 0x20 ADD PUSH1 0x0 KECCAK256 PUSH1 0x0 SWAP1 SSTORE POP POP POP POP JUMP JUMPDEST PUSH1 0x0 PUSH1 0x1 PUSH1 0x8 DUP1 SLOAD SWAP1 POP PUSH2 0x32CA SWAP2 SWAP1 PUSH2 0x4A43 JUMP JUMPDEST SWAP1 POP PUSH1 0x0 PUSH1 0x9 PUSH1 0x0 DUP5 DUP2 MSTORE PUSH1 0x20 ADD SWAP1 DUP2 MSTORE PUSH1 0x20 ADD PUSH1 0x0 KECCAK256 SLOAD SWAP1 POP PUSH1 0x0 PUSH1 0x8 DUP4 DUP2 SLOAD DUP2 LT PUSH2 0x32FA JUMPI PUSH2 0x32F9 PUSH2 0x4271 JUMP JUMPDEST JUMPDEST SWAP1 PUSH1 0x0 MSTORE PUSH1 0x20 PUSH1 0x0 KECCAK256 ADD SLOAD SWAP1 POP DUP1 PUSH1 0x8 DUP4 DUP2 SLOAD DUP2 LT PUSH2 0x331C JUMPI PUSH2 0x331B PUSH2 0x4271 JUMP JUMPDEST JUMPDEST SWAP1 PUSH1 0x0 MSTORE PUSH1 0x20 PUSH1 0x0 KECCAK256 ADD DUP2 SWAP1 SSTORE POP DUP2 PUSH1 0x9 PUSH1 0x0 DUP4 DUP2 MSTORE PUSH1 0x20 ADD SWAP1 DUP2 MSTORE PUSH1 0x20 ADD PUSH1 0x0 KECCAK256 DUP2 SWAP1 SSTORE POP PUSH1 0x9 PUSH1 0x0 DUP6 DUP2 MSTORE PUSH1 0x20 ADD SWAP1 DUP2 MSTORE PUSH1 0x20 ADD PUSH1 0x0 KECCAK256 PUSH1 0x0 SWAP1 SSTORE PUSH1 0x8 DUP1 SLOAD DUP1 PUSH2 0x336B JUMPI PUSH2 0x336A PUSH2 0x4EAD JUMP JUMPDEST JUMPDEST PUSH1 0x1 SWAP1 SUB DUP2 DUP2 SWAP1 PUSH1 0x0 MSTORE PUSH1 0x20 PUSH1 0x0 KECCAK256 ADD PUSH1 0x0 SWAP1 SSTORE SWAP1 SSTORE POP POP POP POP JUMP JUMPDEST PUSH1 0x0 PUSH2 0x3392 DUP4 PUSH2 0x156C JUMP JUMPDEST SWAP1 POP DUP2 PUSH1 0x6 PUSH1 0x0 DUP6 PUSH20 0xFFFFFFFFFFFFFFFFFFFFFFFFFFFFFFFFFFFFFFFF AND PUSH20 0xFFFFFFFFFFFFFFFFFFFFFFFFFFFFFFFFFFFFFFFF AND DUP2 MSTORE PUSH1 0x20 ADD SWAP1 DUP2 MSTORE PUSH1 0x20 ADD PUSH1 0x0 KECCAK256 PUSH1 0x0 DUP4 DUP2 MSTORE PUSH1 0x20 ADD SWAP1 DUP2 MSTORE PUSH1 0x20 ADD PUSH1 0x0 KECCAK256 DUP2 SWAP1 SSTORE POP DUP1 PUSH1 0x7 PUSH1 0x0 DUP5 DUP2 MSTORE PUSH1 0x20 ADD SWAP1 DUP2 MSTORE PUSH1 0x20 ADD PUSH1 0x0 KECCAK256 DUP2 SWAP1 SSTORE POP POP POP POP JUMP JUMPDEST PUSH1 0x0 PUSH20 0xFFFFFFFFFFFFFFFFFFFFFFFFFFFFFFFFFFFFFFFF AND DUP3 PUSH20 0xFFFFFFFFFFFFFFFFFFFFFFFFFFFFFFFFFFFFFFFF AND EQ ISZERO PUSH2 0x3476 JUMPI PUSH1 0x40 MLOAD PUSH32 0x8C379A000000000000000000000000000000000000000000000000000000000 DUP2 MSTORE PUSH1 0x4 ADD PUSH2 0x346D SWAP1 PUSH2 0x4F28 JUMP JUMPDEST PUSH1 0x40 MLOAD DUP1 SWAP2 SUB SWAP1 REVERT JUMPDEST PUSH2 0x347F DUP2 PUSH2 0x23B2 JUMP JUMPDEST ISZERO PUSH2 0x34BF JUMPI PUSH1 0x40 MLOAD PUSH32 0x8C379A000000000000000000000000000000000000000000000000000000000 DUP2 MSTORE PUSH1 0x4 ADD PUSH2 0x34B6 SWAP1 PUSH2 0x4F94 JUMP JUMPDEST PUSH1 0x40 MLOAD DUP1 SWAP2 SUB SWAP1 REVERT JUMPDEST PUSH2 0x34CB PUSH1 0x0 DUP4 DUP4 PUSH2 0x2E04 JUMP JUMPDEST PUSH1 0x1 PUSH1 0x3 PUSH1 0x0 DUP5 PUSH20 0xFFFFFFFFFFFFFFFFFFFFFFFFFFFFFFFFFFFFFFFF AND PUSH20 0xFFFFFFFFFFFFFFFFFFFFFFFFFFFFFFFFFFFFFFFF AND DUP2 MSTORE PUSH1 0x20 ADD SWAP1 DUP2 MSTORE PUSH1 0x20 ADD PUSH1 0x0 KECCAK256 PUSH1 0x0 DUP3 DUP3 SLOAD PUSH2 0x351B SWAP2 SWAP1 PUSH2 0x453A JUMP JUMPDEST SWAP3 POP POP DUP2 SWAP1 SSTORE POP DUP2 PUSH1 0x2 PUSH1 0x0 DUP4 DUP2 MSTORE PUSH1 0x20 ADD SWAP1 DUP2 MSTORE PUSH1 0x20 ADD PUSH1 0x0 KECCAK256 PUSH1 0x0 PUSH2 0x100 EXP DUP2 SLOAD DUP2 PUSH20 0xFFFFFFFFFFFFFFFFFFFFFFFFFFFFFFFFFFFFFFFF MUL NOT AND SWAP1 DUP4 PUSH20 0xFFFFFFFFFFFFFFFFFFFFFFFFFFFFFFFFFFFFFFFF AND MUL OR SWAP1 SSTORE POP DUP1 DUP3 PUSH20 0xFFFFFFFFFFFFFFFFFFFFFFFFFFFFFFFFFFFFFFFF AND PUSH1 0x0 PUSH20 0xFFFFFFFFFFFFFFFFFFFFFFFFFFFFFFFFFFFFFFFF AND PUSH32 0xDDF252AD1BE2C89B69C2B068FC378DAA952BA7F163C4A11628F55A4DF523B3EF PUSH1 0x40 MLOAD PUSH1 0x40 MLOAD DUP1 SWAP2 SUB SWAP1 LOG4 POP POP JUMP JUMPDEST PUSH1 0x0 DUP1 DUP3 EXTCODESIZE SWAP1 POP PUSH1 0x0 DUP2 GT SWAP2 POP POP SWAP2 SWAP1 POP JUMP JUMPDEST DUP3 DUP1 SLOAD PUSH2 0x35F3 SWAP1 PUSH2 0x3F1F JUMP JUMPDEST SWAP1 PUSH1 0x0 MSTORE PUSH1 0x20 PUSH1 0x0 KECCAK256 SWAP1 PUSH1 0x1F ADD PUSH1 0x20 SWAP1 DIV DUP2 ADD SWAP3 DUP3 PUSH2 0x3615 JUMPI PUSH1 0x0 DUP6 SSTORE PUSH2 0x365C JUMP JUMPDEST DUP3 PUSH1 0x1F LT PUSH2 0x362E JUMPI DUP1 MLOAD PUSH1 0xFF NOT AND DUP4 DUP1 ADD OR DUP6 SSTORE PUSH2 0x365C JUMP JUMPDEST DUP3 DUP1 ADD PUSH1 0x1 ADD DUP6 SSTORE DUP3 ISZERO PUSH2 0x365C JUMPI SWAP2 DUP3 ADD JUMPDEST DUP3 DUP2 GT ISZERO PUSH2 0x365B JUMPI DUP3 MLOAD DUP3 SSTORE SWAP2 PUSH1 0x20 ADD SWAP2 SWAP1 PUSH1 0x1 ADD SWAP1 PUSH2 0x3640 JUMP JUMPDEST JUMPDEST POP SWAP1 POP PUSH2 0x3669 SWAP2 SWAP1 PUSH2 0x366D JUMP JUMPDEST POP SWAP1 JUMP JUMPDEST JUMPDEST DUP1 DUP3 GT ISZERO PUSH2 0x3686 JUMPI PUSH1 0x0 DUP2 PUSH1 0x0 SWAP1 SSTORE POP PUSH1 0x1 ADD PUSH2 0x366E JUMP JUMPDEST POP SWAP1 JUMP JUMPDEST PUSH1 0x0 PUSH1 0x40 MLOAD SWAP1 POP SWAP1 JUMP JUMPDEST PUSH1 0x0 DUP1 REVERT JUMPDEST PUSH1 0x0 DUP1 REVERT JUMPDEST PUSH1 0x0 PUSH32 0xFFFFFFFF00000000000000000000000000000000000000000000000000000000 DUP3 AND SWAP1 POP SWAP2 SWAP1 POP JUMP JUMPDEST PUSH2 0x36D3 DUP2 PUSH2 0x369E JUMP JUMPDEST DUP2 EQ PUSH2 0x36DE JUMPI PUSH1 0x0 DUP1 REVERT JUMPDEST POP JUMP JUMPDEST PUSH1 0x0 DUP2 CALLDATALOAD SWAP1 POP PUSH2 0x36F0 DUP2 PUSH2 0x36CA JUMP JUMPDEST SWAP3 SWAP2 POP POP JUMP JUMPDEST PUSH1 0x0 PUSH1 0x20 DUP3 DUP5 SUB SLT ISZERO PUSH2 0x370C JUMPI PUSH2 0x370B PUSH2 0x3694 JUMP JUMPDEST JUMPDEST PUSH1 0x0 PUSH2 0x371A DUP5 DUP3 DUP6 ADD PUSH2 0x36E1 JUMP JUMPDEST SWAP2 POP POP SWAP3 SWAP2 POP POP JUMP JUMPDEST PUSH1 0x0 DUP2 ISZERO ISZERO SWAP1 POP SWAP2 SWAP1 POP JUMP JUMPDEST PUSH2 0x3738 DUP2 PUSH2 0x3723 JUMP JUMPDEST DUP3 MSTORE POP POP JUMP JUMPDEST PUSH1 0x0 PUSH1 0x20 DUP3 ADD SWAP1 POP PUSH2 0x3753 PUSH1 0x0 DUP4 ADD DUP5 PUSH2 0x372F JUMP JUMPDEST SWAP3 SWAP2 POP POP JUMP JUMPDEST PUSH2 0x3762 DUP2 PUSH2 0x3723 JUMP JUMPDEST DUP2 EQ PUSH2 0x376D JUMPI PUSH1 0x0 DUP1 REVERT JUMPDEST POP JUMP JUMPDEST PUSH1 0x0 DUP2 CALLDATALOAD SWAP1 POP PUSH2 0x377F DUP2 PUSH2 0x3759 JUMP JUMPDEST SWAP3 SWAP2 POP POP JUMP JUMPDEST PUSH1 0x0 PUSH1 0x20 DUP3 DUP5 SUB SLT ISZERO PUSH2 0x379B JUMPI PUSH2 0x379A PUSH2 0x3694 JUMP JUMPDEST JUMPDEST PUSH1 0x0 PUSH2 0x37A9 DUP5 DUP3 DUP6 ADD PUSH2 0x3770 JUMP JUMPDEST SWAP2 POP POP SWAP3 SWAP2 POP POP JUMP JUMPDEST PUSH1 0x0 DUP2 MLOAD SWAP1 POP SWAP2 SWAP1 POP JUMP JUMPDEST PUSH1 0x0 DUP3 DUP3 MSTORE PUSH1 0x20 DUP3 ADD SWAP1 POP SWAP3 SWAP2 POP POP JUMP JUMPDEST PUSH1 0x0 JUMPDEST DUP4 DUP2 LT ISZERO PUSH2 0x37EC JUMPI DUP1 DUP3 ADD MLOAD DUP2 DUP5 ADD MSTORE PUSH1 0x20 DUP2 ADD SWAP1 POP PUSH2 0x37D1 JUMP JUMPDEST DUP4 DUP2 GT ISZERO PUSH2 0x37FB JUMPI PUSH1 0x0 DUP5 DUP5 ADD MSTORE JUMPDEST POP POP POP POP JUMP JUMPDEST PUSH1 0x0 PUSH1 0x1F NOT PUSH1 0x1F DUP4 ADD AND SWAP1 POP SWAP2 SWAP1 POP JUMP JUMPDEST PUSH1 0x0 PUSH2 0x381D DUP3 PUSH2 0x37B2 JUMP JUMPDEST PUSH2 0x3827 DUP2 DUP6 PUSH2 0x37BD JUMP JUMPDEST SWAP4 POP PUSH2 0x3837 DUP2 DUP6 PUSH1 0x20 DUP7 ADD PUSH2 0x37CE JUMP JUMPDEST PUSH2 0x3840 DUP2 PUSH2 0x3801 JUMP JUMPDEST DUP5 ADD SWAP2 POP POP SWAP3 SWAP2 POP POP JUMP JUMPDEST PUSH1 0x0 PUSH1 0x20 DUP3 ADD SWAP1 POP DUP2 DUP2 SUB PUSH1 0x0 DUP4 ADD MSTORE PUSH2 0x3865 DUP2 DUP5 PUSH2 0x3812 JUMP JUMPDEST SWAP1 POP SWAP3 SWAP2 POP POP JUMP JUMPDEST PUSH1 0x0 DUP2 SWAP1 POP SWAP2 SWAP1 POP JUMP JUMPDEST PUSH2 0x3880 DUP2 PUSH2 0x386D JUMP JUMPDEST DUP2 EQ PUSH2 0x388B JUMPI PUSH1 0x0 DUP1 REVERT JUMPDEST POP JUMP JUMPDEST PUSH1 0x0 DUP2 CALLDATALOAD SWAP1 POP PUSH2 0x389D DUP2 PUSH2 0x3877 JUMP JUMPDEST SWAP3 SWAP2 POP POP JUMP JUMPDEST PUSH1 0x0 PUSH1 0x20 DUP3 DUP5 SUB SLT ISZERO PUSH2 0x38B9 JUMPI PUSH2 0x38B8 PUSH2 0x3694 JUMP JUMPDEST JUMPDEST PUSH1 0x0 PUSH2 0x38C7 DUP5 DUP3 DUP6 ADD PUSH2 0x388E JUMP JUMPDEST SWAP2 POP POP SWAP3 SWAP2 POP POP JUMP JUMPDEST PUSH1 0x0 PUSH20 0xFFFFFFFFFFFFFFFFFFFFFFFFFFFFFFFFFFFFFFFF DUP3 AND SWAP1 POP SWAP2 SWAP1 POP JUMP JUMPDEST PUSH1 0x0 PUSH2 0x38FB DUP3 PUSH2 0x38D0 JUMP JUMPDEST SWAP1 POP SWAP2 SWAP1 POP JUMP JUMPDEST PUSH2 0x390B DUP2 PUSH2 0x38F0 JUMP JUMPDEST DUP3 MSTORE POP POP JUMP JUMPDEST PUSH1 0x0 PUSH1 0x20 DUP3 ADD SWAP1 POP PUSH2 0x3926 PUSH1 0x0 DUP4 ADD DUP5 PUSH2 0x3902 JUMP JUMPDEST SWAP3 SWAP2 POP POP JUMP JUMPDEST PUSH2 0x3935 DUP2 PUSH2 0x38F0 JUMP JUMPDEST DUP2 EQ PUSH2 0x3940 JUMPI PUSH1 0x0 DUP1 REVERT JUMPDEST POP JUMP JUMPDEST PUSH1 0x0 DUP2 CALLDATALOAD SWAP1 POP PUSH2 0x3952 DUP2 PUSH2 0x392C JUMP JUMPDEST SWAP3 SWAP2 POP POP JUMP JUMPDEST PUSH1 0x0 DUP1 PUSH1 0x40 DUP4 DUP6 SUB SLT ISZERO PUSH2 0x396F JUMPI PUSH2 0x396E PUSH2 0x3694 JUMP JUMPDEST JUMPDEST PUSH1 0x0 PUSH2 0x397D DUP6 DUP3 DUP7 ADD PUSH2 0x3943 JUMP JUMPDEST SWAP3 POP POP PUSH1 0x20 PUSH2 0x398E DUP6 DUP3 DUP7 ADD PUSH2 0x388E JUMP JUMPDEST SWAP2 POP POP SWAP3 POP SWAP3 SWAP1 POP JUMP JUMPDEST PUSH2 0x39A1 DUP2 PUSH2 0x386D JUMP JUMPDEST DUP3 MSTORE POP POP JUMP JUMPDEST PUSH1 0x0 PUSH1 0x20 DUP3 ADD SWAP1 POP PUSH2 0x39BC PUSH1 0x0 DUP4 ADD DUP5 PUSH2 0x3998 JUMP JUMPDEST SWAP3 SWAP2 POP POP JUMP JUMPDEST PUSH1 0x0 PUSH1 0x20 DUP3 DUP5 SUB SLT ISZERO PUSH2 0x39D8 JUMPI PUSH2 0x39D7 PUSH2 0x3694 JUMP JUMPDEST JUMPDEST PUSH1 0x0 PUSH2 0x39E6 DUP5 DUP3 DUP6 ADD PUSH2 0x3943 JUMP JUMPDEST SWAP2 POP POP SWAP3 SWAP2 POP POP JUMP JUMPDEST PUSH1 0x0 DUP1 PUSH1 0x0 PUSH1 0x60 DUP5 DUP7 SUB SLT ISZERO PUSH2 0x3A08 JUMPI PUSH2 0x3A07 PUSH2 0x3694 JUMP JUMPDEST JUMPDEST PUSH1 0x0 PUSH2 0x3A16 DUP7 DUP3 DUP8 ADD PUSH2 0x3943 JUMP JUMPDEST SWAP4 POP POP PUSH1 0x20 PUSH2 0x3A27 DUP7 DUP3 DUP8 ADD PUSH2 0x3943 JUMP JUMPDEST SWAP3 POP POP PUSH1 0x40 PUSH2 0x3A38 DUP7 DUP3 DUP8 ADD PUSH2 0x388E JUMP JUMPDEST SWAP2 POP POP SWAP3 POP SWAP3 POP SWAP3 JUMP JUMPDEST PUSH1 0x0 DUP2 MLOAD SWAP1 POP SWAP2 SWAP1 POP JUMP JUMPDEST PUSH1 0x0 DUP3 DUP3 MSTORE PUSH1 0x20 DUP3 ADD SWAP1 POP SWAP3 SWAP2 POP POP JUMP JUMPDEST PUSH1 0x0 DUP2 SWAP1 POP PUSH1 0x20 DUP3 ADD SWAP1 POP SWAP2 SWAP1 POP JUMP JUMPDEST PUSH2 0x3A77 DUP2 PUSH2 0x386D JUMP JUMPDEST DUP3 MSTORE POP POP JUMP JUMPDEST PUSH1 0x0 PUSH2 0x3A89 DUP4 DUP4 PUSH2 0x3A6E JUMP JUMPDEST PUSH1 0x20 DUP4 ADD SWAP1 POP SWAP3 SWAP2 POP POP JUMP JUMPDEST PUSH1 0x0 PUSH1 0x20 DUP3 ADD SWAP1 POP SWAP2 SWAP1 POP JUMP JUMPDEST PUSH1 0x0 PUSH2 0x3AAD DUP3 PUSH2 0x3A42 JUMP JUMPDEST PUSH2 0x3AB7 DUP2 DUP6 PUSH2 0x3A4D JUMP JUMPDEST SWAP4 POP PUSH2 0x3AC2 DUP4 PUSH2 0x3A5E JUMP JUMPDEST DUP1 PUSH1 0x0 JUMPDEST DUP4 DUP2 LT ISZERO PUSH2 0x3AF3 JUMPI DUP2 MLOAD PUSH2 0x3ADA DUP9 DUP3 PUSH2 0x3A7D JUMP JUMPDEST SWAP8 POP PUSH2 0x3AE5 DUP4 PUSH2 0x3A95 JUMP JUMPDEST SWAP3 POP POP PUSH1 0x1 DUP2 ADD SWAP1 POP PUSH2 0x3AC6 JUMP JUMPDEST POP DUP6 SWAP4 POP POP POP POP SWAP3 SWAP2 POP POP JUMP JUMPDEST PUSH1 0x0 PUSH1 0x20 DUP3 ADD SWAP1 POP DUP2 DUP2 SUB PUSH1 0x0 DUP4 ADD MSTORE PUSH2 0x3B1A DUP2 DUP5 PUSH2 0x3AA2 JUMP JUMPDEST SWAP1 POP SWAP3 SWAP2 POP POP JUMP JUMPDEST PUSH1 0x0 DUP1 REVERT JUMPDEST PUSH1 0x0 DUP1 REVERT JUMPDEST PUSH32 0x4E487B7100000000000000000000000000000000000000000000000000000000 PUSH1 0x0 MSTORE PUSH1 0x41 PUSH1 0x4 MSTORE PUSH1 0x24 PUSH1 0x0 REVERT JUMPDEST PUSH2 0x3B64 DUP3 PUSH2 0x3801 JUMP JUMPDEST DUP2 ADD DUP2 DUP2 LT PUSH8 0xFFFFFFFFFFFFFFFF DUP3 GT OR ISZERO PUSH2 0x3B83 JUMPI PUSH2 0x3B82 PUSH2 0x3B2C JUMP JUMPDEST JUMPDEST DUP1 PUSH1 0x40 MSTORE POP POP POP JUMP JUMPDEST PUSH1 0x0 PUSH2 0x3B96 PUSH2 0x368A JUMP JUMPDEST SWAP1 POP PUSH2 0x3BA2 DUP3 DUP3 PUSH2 0x3B5B JUMP JUMPDEST SWAP2 SWAP1 POP JUMP JUMPDEST PUSH1 0x0 PUSH8 0xFFFFFFFFFFFFFFFF DUP3 GT ISZERO PUSH2 0x3BC2 JUMPI PUSH2 0x3BC1 PUSH2 0x3B2C JUMP JUMPDEST JUMPDEST PUSH2 0x3BCB DUP3 PUSH2 0x3801 JUMP JUMPDEST SWAP1 POP PUSH1 0x20 DUP2 ADD SWAP1 POP SWAP2 SWAP1 POP JUMP JUMPDEST DUP3 DUP2 DUP4 CALLDATACOPY PUSH1 0x0 DUP4 DUP4 ADD MSTORE POP POP POP JUMP JUMPDEST PUSH1 0x0 PUSH2 0x3BFA PUSH2 0x3BF5 DUP5 PUSH2 0x3BA7 JUMP JUMPDEST PUSH2 0x3B8C JUMP JUMPDEST SWAP1 POP DUP3 DUP2 MSTORE PUSH1 0x20 DUP2 ADD DUP5 DUP5 DUP5 ADD GT ISZERO PUSH2 0x3C16 JUMPI PUSH2 0x3C15 PUSH2 0x3B27 JUMP JUMPDEST JUMPDEST PUSH2 0x3C21 DUP5 DUP3 DUP6 PUSH2 0x3BD8 JUMP JUMPDEST POP SWAP4 SWAP3 POP POP POP JUMP JUMPDEST PUSH1 0x0 DUP3 PUSH1 0x1F DUP4 ADD SLT PUSH2 0x3C3E JUMPI PUSH2 0x3C3D PUSH2 0x3B22 JUMP JUMPDEST JUMPDEST DUP2 CALLDATALOAD PUSH2 0x3C4E DUP5 DUP3 PUSH1 0x20 DUP7 ADD PUSH2 0x3BE7 JUMP JUMPDEST SWAP2 POP POP SWAP3 SWAP2 POP POP JUMP JUMPDEST PUSH1 0x0 PUSH1 0x20 DUP3 DUP5 SUB SLT ISZERO PUSH2 0x3C6D JUMPI PUSH2 0x3C6C PUSH2 0x3694 JUMP JUMPDEST JUMPDEST PUSH1 0x0 DUP3 ADD CALLDATALOAD PUSH8 0xFFFFFFFFFFFFFFFF DUP2 GT ISZERO PUSH2 0x3C8B JUMPI PUSH2 0x3C8A PUSH2 0x3699 JUMP JUMPDEST JUMPDEST PUSH2 0x3C97 DUP5 DUP3 DUP6 ADD PUSH2 0x3C29 JUMP JUMPDEST SWAP2 POP POP SWAP3 SWAP2 POP POP JUMP JUMPDEST PUSH1 0x0 DUP1 PUSH1 0x40 DUP4 DUP6 SUB SLT ISZERO PUSH2 0x3CB7 JUMPI PUSH2 0x3CB6 PUSH2 0x3694 JUMP JUMPDEST JUMPDEST PUSH1 0x0 PUSH2 0x3CC5 DUP6 DUP3 DUP7 ADD PUSH2 0x388E JUMP JUMPDEST SWAP3 POP POP PUSH1 0x20 PUSH2 0x3CD6 DUP6 DUP3 DUP7 ADD PUSH2 0x3943 JUMP JUMPDEST SWAP2 POP POP SWAP3 POP SWAP3 SWAP1 POP JUMP JUMPDEST PUSH1 0x0 DUP1 PUSH1 0x40 DUP4 DUP6 SUB SLT ISZERO PUSH2 0x3CF7 JUMPI PUSH2 0x3CF6 PUSH2 0x3694 JUMP JUMPDEST JUMPDEST PUSH1 0x0 PUSH2 0x3D05 DUP6 DUP3 DUP7 ADD PUSH2 0x3943 JUMP JUMPDEST SWAP3 POP POP PUSH1 0x20 PUSH2 0x3D16 DUP6 DUP3 DUP7 ADD PUSH2 0x3770 JUMP JUMPDEST SWAP2 POP POP SWAP3 POP SWAP3 SWAP1 POP JUMP JUMPDEST PUSH1 0x0 PUSH8 0xFFFFFFFFFFFFFFFF DUP3 GT ISZERO PUSH2 0x3D3B JUMPI PUSH2 0x3D3A PUSH2 0x3B2C JUMP JUMPDEST JUMPDEST PUSH2 0x3D44 DUP3 PUSH2 0x3801 JUMP JUMPDEST SWAP1 POP PUSH1 0x20 DUP2 ADD SWAP1 POP SWAP2 SWAP1 POP JUMP JUMPDEST PUSH1 0x0 PUSH2 0x3D64 PUSH2 0x3D5F DUP5 PUSH2 0x3D20 JUMP JUMPDEST PUSH2 0x3B8C JUMP JUMPDEST SWAP1 POP DUP3 DUP2 MSTORE PUSH1 0x20 DUP2 ADD DUP5 DUP5 DUP5 ADD GT ISZERO PUSH2 0x3D80 JUMPI PUSH2 0x3D7F PUSH2 0x3B27 JUMP JUMPDEST JUMPDEST PUSH2 0x3D8B DUP5 DUP3 DUP6 PUSH2 0x3BD8 JUMP JUMPDEST POP SWAP4 SWAP3 POP POP POP JUMP JUMPDEST PUSH1 0x0 DUP3 PUSH1 0x1F DUP4 ADD SLT PUSH2 0x3DA8 JUMPI PUSH2 0x3DA7 PUSH2 0x3B22 JUMP JUMPDEST JUMPDEST DUP2 CALLDATALOAD PUSH2 0x3DB8 DUP5 DUP3 PUSH1 0x20 DUP7 ADD PUSH2 0x3D51 JUMP JUMPDEST SWAP2 POP POP SWAP3 SWAP2 POP POP JUMP JUMPDEST PUSH1 0x0 DUP1 PUSH1 0x0 DUP1 PUSH1 0x80 DUP6 DUP8 SUB SLT ISZERO PUSH2 0x3DDB JUMPI PUSH2 0x3DDA PUSH2 0x3694 JUMP JUMPDEST JUMPDEST PUSH1 0x0 PUSH2 0x3DE9 DUP8 DUP3 DUP9 ADD PUSH2 0x3943 JUMP JUMPDEST SWAP5 POP POP PUSH1 0x20 PUSH2 0x3DFA DUP8 DUP3 DUP9 ADD PUSH2 0x3943 JUMP JUMPDEST SWAP4 POP POP PUSH1 0x40 PUSH2 0x3E0B DUP8 DUP3 DUP9 ADD PUSH2 0x388E JUMP JUMPDEST SWAP3 POP POP PUSH1 0x60 DUP6 ADD CALLDATALOAD PUSH8 0xFFFFFFFFFFFFFFFF DUP2 GT ISZERO PUSH2 0x3E2C JUMPI PUSH2 0x3E2B PUSH2 0x3699 JUMP JUMPDEST JUMPDEST PUSH2 0x3E38 DUP8 DUP3 DUP9 ADD PUSH2 0x3D93 JUMP JUMPDEST SWAP2 POP POP SWAP3 SWAP6 SWAP2 SWAP5 POP SWAP3 POP JUMP JUMPDEST PUSH1 0x0 DUP1 PUSH1 0x40 DUP4 DUP6 SUB SLT ISZERO PUSH2 0x3E5B JUMPI PUSH2 0x3E5A PUSH2 0x3694 JUMP JUMPDEST JUMPDEST PUSH1 0x0 PUSH2 0x3E69 DUP6 DUP3 DUP7 ADD PUSH2 0x3943 JUMP JUMPDEST SWAP3 POP POP PUSH1 0x20 PUSH2 0x3E7A DUP6 DUP3 DUP7 ADD PUSH2 0x3943 JUMP JUMPDEST SWAP2 POP POP SWAP3 POP SWAP3 SWAP1 POP JUMP JUMPDEST PUSH32 0x4F776E61626C653A2063616C6C6572206973206E6F7420746865206F776E6572 PUSH1 0x0 DUP3 ADD MSTORE POP JUMP JUMPDEST PUSH1 0x0 PUSH2 0x3EBA PUSH1 0x20 DUP4 PUSH2 0x37BD JUMP JUMPDEST SWAP2 POP PUSH2 0x3EC5 DUP3 PUSH2 0x3E84 JUMP JUMPDEST PUSH1 0x20 DUP3 ADD SWAP1 POP SWAP2 SWAP1 POP JUMP JUMPDEST PUSH1 0x0 PUSH1 0x20 DUP3 ADD SWAP1 POP DUP2 DUP2 SUB PUSH1 0x0 DUP4 ADD MSTORE PUSH2 0x3EE9 DUP2 PUSH2 0x3EAD JUMP JUMPDEST SWAP1 POP SWAP2 SWAP1 POP JUMP JUMPDEST PUSH32 0x4E487B7100000000000000000000000000000000000000000000000000000000 PUSH1 0x0 MSTORE PUSH1 0x22 PUSH1 0x4 MSTORE PUSH1 0x24 PUSH1 0x0 REVERT JUMPDEST PUSH1 0x0 PUSH1 0x2 DUP3 DIV SWAP1 POP PUSH1 0x1 DUP3 AND DUP1 PUSH2 0x3F37 JUMPI PUSH1 0x7F DUP3 AND SWAP2 POP JUMPDEST PUSH1 0x20 DUP3 LT DUP2 EQ ISZERO PUSH2 0x3F4B JUMPI PUSH2 0x3F4A PUSH2 0x3EF0 JUMP JUMPDEST JUMPDEST POP SWAP2 SWAP1 POP JUMP JUMPDEST PUSH32 0x4552433732313A20617070726F76656420717565727920666F72206E6F6E6578 PUSH1 0x0 DUP3 ADD MSTORE PUSH32 0x697374656E7420746F6B656E0000000000000000000000000000000000000000 PUSH1 0x20 DUP3 ADD MSTORE POP JUMP JUMPDEST PUSH1 0x0 PUSH2 0x3FAD PUSH1 0x2C DUP4 PUSH2 0x37BD JUMP JUMPDEST SWAP2 POP PUSH2 0x3FB8 DUP3 PUSH2 0x3F51 JUMP JUMPDEST PUSH1 0x40 DUP3 ADD SWAP1 POP SWAP2 SWAP1 POP JUMP JUMPDEST PUSH1 0x0 PUSH1 0x20 DUP3 ADD SWAP1 POP DUP2 DUP2 SUB PUSH1 0x0 DUP4 ADD MSTORE PUSH2 0x3FDC DUP2 PUSH2 0x3FA0 JUMP JUMPDEST SWAP1 POP SWAP2 SWAP1 POP JUMP JUMPDEST PUSH32 0x4552433732313A20617070726F76616C20746F2063757272656E74206F776E65 PUSH1 0x0 DUP3 ADD MSTORE PUSH32 0x7200000000000000000000000000000000000000000000000000000000000000 PUSH1 0x20 DUP3 ADD MSTORE POP JUMP JUMPDEST PUSH1 0x0 PUSH2 0x403F PUSH1 0x21 DUP4 PUSH2 0x37BD JUMP JUMPDEST SWAP2 POP PUSH2 0x404A DUP3 PUSH2 0x3FE3 JUMP JUMPDEST PUSH1 0x40 DUP3 ADD SWAP1 POP SWAP2 SWAP1 POP JUMP JUMPDEST PUSH1 0x0 PUSH1 0x20 DUP3 ADD SWAP1 POP DUP2 DUP2 SUB PUSH1 0x0 DUP4 ADD MSTORE PUSH2 0x406E DUP2 PUSH2 0x4032 JUMP JUMPDEST SWAP1 POP SWAP2 SWAP1 POP JUMP JUMPDEST PUSH32 0x4552433732313A20617070726F76652063616C6C6572206973206E6F74206F77 PUSH1 0x0 DUP3 ADD MSTORE PUSH32 0x6E6572206E6F7220617070726F76656420666F7220616C6C0000000000000000 PUSH1 0x20 DUP3 ADD MSTORE POP JUMP JUMPDEST PUSH1 0x0 PUSH2 0x40D1 PUSH1 0x38 DUP4 PUSH2 0x37BD JUMP JUMPDEST SWAP2 POP PUSH2 0x40DC DUP3 PUSH2 0x4075 JUMP JUMPDEST PUSH1 0x40 DUP3 ADD SWAP1 POP SWAP2 SWAP1 POP JUMP JUMPDEST PUSH1 0x0 PUSH1 0x20 DUP3 ADD SWAP1 POP DUP2 DUP2 SUB PUSH1 0x0 DUP4 ADD MSTORE PUSH2 0x4100 DUP2 PUSH2 0x40C4 JUMP JUMPDEST SWAP1 POP SWAP2 SWAP1 POP JUMP JUMPDEST PUSH32 0x4552433732313A207472616E736665722063616C6C6572206973206E6F74206F PUSH1 0x0 DUP3 ADD MSTORE PUSH32 0x776E6572206E6F7220617070726F766564000000000000000000000000000000 PUSH1 0x20 DUP3 ADD MSTORE POP JUMP JUMPDEST PUSH1 0x0 PUSH2 0x4163 PUSH1 0x31 DUP4 PUSH2 0x37BD JUMP JUMPDEST SWAP2 POP PUSH2 0x416E DUP3 PUSH2 0x4107 JUMP JUMPDEST PUSH1 0x40 DUP3 ADD SWAP1 POP SWAP2 SWAP1 POP JUMP JUMPDEST PUSH1 0x0 PUSH1 0x20 DUP3 ADD SWAP1 POP DUP2 DUP2 SUB PUSH1 0x0 DUP4 ADD MSTORE PUSH2 0x4192 DUP2 PUSH2 0x4156 JUMP JUMPDEST SWAP1 POP SWAP2 SWAP1 POP JUMP JUMPDEST PUSH32 0x455243373231456E756D657261626C653A206F776E657220696E646578206F75 PUSH1 0x0 DUP3 ADD MSTORE PUSH32 0x74206F6620626F756E6473000000000000000000000000000000000000000000 PUSH1 0x20 DUP3 ADD MSTORE POP JUMP JUMPDEST PUSH1 0x0 PUSH2 0x41F5 PUSH1 0x2B DUP4 PUSH2 0x37BD JUMP JUMPDEST SWAP2 POP PUSH2 0x4200 DUP3 PUSH2 0x4199 JUMP JUMPDEST PUSH1 0x40 DUP3 ADD SWAP1 POP SWAP2 SWAP1 POP JUMP JUMPDEST PUSH1 0x0 PUSH1 0x20 DUP3 ADD SWAP1 POP DUP2 DUP2 SUB PUSH1 0x0 DUP4 ADD MSTORE PUSH2 0x4224 DUP2 PUSH2 0x41E8 JUMP JUMPDEST SWAP1 POP SWAP2 SWAP1 POP JUMP JUMPDEST PUSH1 0x0 DUP2 SWAP1 POP SWAP3 SWAP2 POP POP JUMP JUMPDEST POP JUMP JUMPDEST PUSH1 0x0 PUSH2 0x4246 PUSH1 0x0 DUP4 PUSH2 0x422B JUMP JUMPDEST SWAP2 POP PUSH2 0x4251 DUP3 PUSH2 0x4236 JUMP JUMPDEST PUSH1 0x0 DUP3 ADD SWAP1 POP SWAP2 SWAP1 POP JUMP JUMPDEST PUSH1 0x0 PUSH2 0x4267 DUP3 PUSH2 0x4239 JUMP JUMPDEST SWAP2 POP DUP2 SWAP1 POP SWAP2 SWAP1 POP JUMP JUMPDEST PUSH32 0x4E487B7100000000000000000000000000000000000000000000000000000000 PUSH1 0x0 MSTORE PUSH1 0x32 PUSH1 0x4 MSTORE PUSH1 0x24 PUSH1 0x0 REVERT JUMPDEST PUSH32 0x4E487B7100000000000000000000000000000000000000000000000000000000 PUSH1 0x0 MSTORE PUSH1 0x11 PUSH1 0x4 MSTORE PUSH1 0x24 PUSH1 0x0 REVERT JUMPDEST PUSH1 0x0 PUSH2 0x42DA DUP3 PUSH2 0x386D JUMP JUMPDEST SWAP2 POP PUSH32 0xFFFFFFFFFFFFFFFFFFFFFFFFFFFFFFFFFFFFFFFFFFFFFFFFFFFFFFFFFFFFFFFF DUP3 EQ ISZERO PUSH2 0x430D JUMPI PUSH2 0x430C PUSH2 0x42A0 JUMP JUMPDEST JUMPDEST PUSH1 0x1 DUP3 ADD SWAP1 POP SWAP2 SWAP1 POP JUMP JUMPDEST PUSH32 0x455243373231456E756D657261626C653A20676C6F62616C20696E646578206F PUSH1 0x0 DUP3 ADD MSTORE PUSH32 0x7574206F6620626F756E64730000000000000000000000000000000000000000 PUSH1 0x20 DUP3 ADD MSTORE POP JUMP JUMPDEST PUSH1 0x0 PUSH2 0x4374 PUSH1 0x2C DUP4 PUSH2 0x37BD JUMP JUMPDEST SWAP2 POP PUSH2 0x437F DUP3 PUSH2 0x4318 JUMP JUMPDEST PUSH1 0x40 DUP3 ADD SWAP1 POP SWAP2 SWAP1 POP JUMP JUMPDEST PUSH1 0x0 PUSH1 0x20 DUP3 ADD SWAP1 POP DUP2 DUP2 SUB PUSH1 0x0 DUP4 ADD MSTORE PUSH2 0x43A3 DUP2 PUSH2 0x4367 JUMP JUMPDEST SWAP1 POP SWAP2 SWAP1 POP JUMP JUMPDEST PUSH32 0x4552433732313A206F776E657220717565727920666F72206E6F6E6578697374 PUSH1 0x0 DUP3 ADD MSTORE PUSH32 0x656E7420746F6B656E0000000000000000000000000000000000000000000000 PUSH1 0x20 DUP3 ADD MSTORE POP JUMP JUMPDEST PUSH1 0x0 PUSH2 0x4406 PUSH1 0x29 DUP4 PUSH2 0x37BD JUMP JUMPDEST SWAP2 POP PUSH2 0x4411 DUP3 PUSH2 0x43AA JUMP JUMPDEST PUSH1 0x40 DUP3 ADD SWAP1 POP SWAP2 SWAP1 POP JUMP JUMPDEST PUSH1 0x0 PUSH1 0x20 DUP3 ADD SWAP1 POP DUP2 DUP2 SUB PUSH1 0x0 DUP4 ADD MSTORE PUSH2 0x4435 DUP2 PUSH2 0x43F9 JUMP JUMPDEST SWAP1 POP SWAP2 SWAP1 POP JUMP JUMPDEST PUSH32 0x4552433732313A2062616C616E636520717565727920666F7220746865207A65 PUSH1 0x0 DUP3 ADD MSTORE PUSH32 0x726F206164647265737300000000000000000000000000000000000000000000 PUSH1 0x20 DUP3 ADD MSTORE POP JUMP JUMPDEST PUSH1 0x0 PUSH2 0x4498 PUSH1 0x2A DUP4 PUSH2 0x37BD JUMP JUMPDEST SWAP2 POP PUSH2 0x44A3 DUP3 PUSH2 0x443C JUMP JUMPDEST PUSH1 0x40 DUP3 ADD SWAP1 POP SWAP2 SWAP1 POP JUMP JUMPDEST PUSH1 0x0 PUSH1 0x20 DUP3 ADD SWAP1 POP DUP2 DUP2 SUB PUSH1 0x0 DUP4 ADD MSTORE PUSH2 0x44C7 DUP2 PUSH2 0x448B JUMP JUMPDEST SWAP1 POP SWAP2 SWAP1 POP JUMP JUMPDEST PUSH32 0x6E65656420746F206D696E74206174206C656173742031204E46540000000000 PUSH1 0x0 DUP3 ADD MSTORE POP JUMP JUMPDEST PUSH1 0x0 PUSH2 0x4504 PUSH1 0x1B DUP4 PUSH2 0x37BD JUMP JUMPDEST SWAP2 POP PUSH2 0x450F DUP3 PUSH2 0x44CE JUMP JUMPDEST PUSH1 0x20 DUP3 ADD SWAP1 POP SWAP2 SWAP1 POP JUMP JUMPDEST PUSH1 0x0 PUSH1 0x20 DUP3 ADD SWAP1 POP DUP2 DUP2 SUB PUSH1 0x0 DUP4 ADD MSTORE PUSH2 0x4533 DUP2 PUSH2 0x44F7 JUMP JUMPDEST SWAP1 POP SWAP2 SWAP1 POP JUMP JUMPDEST PUSH1 0x0 PUSH2 0x4545 DUP3 PUSH2 0x386D JUMP JUMPDEST SWAP2 POP PUSH2 0x4550 DUP4 PUSH2 0x386D JUMP JUMPDEST SWAP3 POP DUP3 PUSH32 0xFFFFFFFFFFFFFFFFFFFFFFFFFFFFFFFFFFFFFFFFFFFFFFFFFFFFFFFFFFFFFFFF SUB DUP3 GT ISZERO PUSH2 0x4585 JUMPI PUSH2 0x4584 PUSH2 0x42A0 JUMP JUMPDEST JUMPDEST DUP3 DUP3 ADD SWAP1 POP SWAP3 SWAP2 POP POP JUMP JUMPDEST PUSH32 0x6D6178204E4654206C696D697420657863656564656400000000000000000000 PUSH1 0x0 DUP3 ADD MSTORE POP JUMP JUMPDEST PUSH1 0x0 PUSH2 0x45C6 PUSH1 0x16 DUP4 PUSH2 0x37BD JUMP JUMPDEST SWAP2 POP PUSH2 0x45D1 DUP3 PUSH2 0x4590 JUMP JUMPDEST PUSH1 0x20 DUP3 ADD SWAP1 POP SWAP2 SWAP1 POP JUMP JUMPDEST PUSH1 0x0 PUSH1 0x20 DUP3 ADD SWAP1 POP DUP2 DUP2 SUB PUSH1 0x0 DUP4 ADD MSTORE PUSH2 0x45F5 DUP2 PUSH2 0x45B9 JUMP JUMPDEST SWAP1 POP SWAP2 SWAP1 POP JUMP JUMPDEST PUSH32 0x74686520636F6E74726163742069732070617573656400000000000000000000 PUSH1 0x0 DUP3 ADD MSTORE POP JUMP JUMPDEST PUSH1 0x0 PUSH2 0x4632 PUSH1 0x16 DUP4 PUSH2 0x37BD JUMP JUMPDEST SWAP2 POP PUSH2 0x463D DUP3 PUSH2 0x45FC JUMP JUMPDEST PUSH1 0x20 DUP3 ADD SWAP1 POP SWAP2 SWAP1 POP JUMP JUMPDEST PUSH1 0x0 PUSH1 0x20 DUP3 ADD SWAP1 POP DUP2 DUP2 SUB PUSH1 0x0 DUP4 ADD MSTORE PUSH2 0x4661 DUP2 PUSH2 0x4625 JUMP JUMPDEST SWAP1 POP SWAP2 SWAP1 POP JUMP JUMPDEST PUSH32 0x4552433732314D657461646174613A2055524920717565727920666F72206E6F PUSH1 0x0 DUP3 ADD MSTORE PUSH32 0x6E6578697374656E7420746F6B656E0000000000000000000000000000000000 PUSH1 0x20 DUP3 ADD MSTORE POP JUMP JUMPDEST PUSH1 0x0 PUSH2 0x46C4 PUSH1 0x2F DUP4 PUSH2 0x37BD JUMP JUMPDEST SWAP2 POP PUSH2 0x46CF DUP3 PUSH2 0x4668 JUMP JUMPDEST PUSH1 0x40 DUP3 ADD SWAP1 POP SWAP2 SWAP1 POP JUMP JUMPDEST PUSH1 0x0 PUSH1 0x20 DUP3 ADD SWAP1 POP DUP2 DUP2 SUB PUSH1 0x0 DUP4 ADD MSTORE PUSH2 0x46F3 DUP2 PUSH2 0x46B7 JUMP JUMPDEST SWAP1 POP SWAP2 SWAP1 POP JUMP JUMPDEST PUSH1 0x0 DUP2 SWAP1 POP SWAP3 SWAP2 POP POP JUMP JUMPDEST PUSH1 0x0 PUSH2 0x4710 DUP3 PUSH2 0x37B2 JUMP JUMPDEST PUSH2 0x471A DUP2 DUP6 PUSH2 0x46FA JUMP JUMPDEST SWAP4 POP PUSH2 0x472A DUP2 DUP6 PUSH1 0x20 DUP7 ADD PUSH2 0x37CE JUMP JUMPDEST DUP1 DUP5 ADD SWAP2 POP POP SWAP3 SWAP2 POP POP JUMP JUMPDEST PUSH1 0x0 DUP2 SWAP1 POP DUP2 PUSH1 0x0 MSTORE PUSH1 0x20 PUSH1 0x0 KECCAK256 SWAP1 POP SWAP2 SWAP1 POP JUMP JUMPDEST PUSH1 0x0 DUP2 SLOAD PUSH2 0x4758 DUP2 PUSH2 0x3F1F JUMP JUMPDEST PUSH2 0x4762 DUP2 DUP7 PUSH2 0x46FA JUMP JUMPDEST SWAP5 POP PUSH1 0x1 DUP3 AND PUSH1 0x0 DUP2 EQ PUSH2 0x477D JUMPI PUSH1 0x1 DUP2 EQ PUSH2 0x478E JUMPI PUSH2 0x47C1 JUMP JUMPDEST PUSH1 0xFF NOT DUP4 AND DUP7 MSTORE DUP2 DUP7 ADD SWAP4 POP PUSH2 0x47C1 JUMP JUMPDEST PUSH2 0x4797 DUP6 PUSH2 0x4736 JUMP JUMPDEST PUSH1 0x0 JUMPDEST DUP4 DUP2 LT ISZERO PUSH2 0x47B9 JUMPI DUP2 SLOAD DUP2 DUP10 ADD MSTORE PUSH1 0x1 DUP3 ADD SWAP2 POP PUSH1 0x20 DUP2 ADD SWAP1 POP PUSH2 0x479A JUMP JUMPDEST DUP4 DUP9 ADD SWAP6 POP POP POP JUMPDEST POP POP POP SWAP3 SWAP2 POP POP JUMP JUMPDEST PUSH1 0x0 PUSH2 0x47D6 DUP3 DUP7 PUSH2 0x4705 JUMP JUMPDEST SWAP2 POP PUSH2 0x47E2 DUP3 DUP6 PUSH2 0x4705 JUMP JUMPDEST SWAP2 POP PUSH2 0x47EE DUP3 DUP5 PUSH2 0x474B JUMP JUMPDEST SWAP2 POP DUP2 SWAP1 POP SWAP5 SWAP4 POP POP POP POP JUMP JUMPDEST PUSH32 0x4F776E61626C653A206E6577206F776E657220697320746865207A65726F2061 PUSH1 0x0 DUP3 ADD MSTORE PUSH32 0x6464726573730000000000000000000000000000000000000000000000000000 PUSH1 0x20 DUP3 ADD MSTORE POP JUMP JUMPDEST PUSH1 0x0 PUSH2 0x4857 PUSH1 0x26 DUP4 PUSH2 0x37BD JUMP JUMPDEST SWAP2 POP PUSH2 0x4862 DUP3 PUSH2 0x47FB JUMP JUMPDEST PUSH1 0x40 DUP3 ADD SWAP1 POP SWAP2 SWAP1 POP JUMP JUMPDEST PUSH1 0x0 PUSH1 0x20 DUP3 ADD SWAP1 POP DUP2 DUP2 SUB PUSH1 0x0 DUP4 ADD MSTORE PUSH2 0x4886 DUP2 PUSH2 0x484A JUMP JUMPDEST SWAP1 POP SWAP2 SWAP1 POP JUMP JUMPDEST PUSH32 0x4552433732313A206F70657261746F7220717565727920666F72206E6F6E6578 PUSH1 0x0 DUP3 ADD MSTORE PUSH32 0x697374656E7420746F6B656E0000000000000000000000000000000000000000 PUSH1 0x20 DUP3 ADD MSTORE POP JUMP JUMPDEST PUSH1 0x0 PUSH2 0x48E9 PUSH1 0x2C DUP4 PUSH2 0x37BD JUMP JUMPDEST SWAP2 POP PUSH2 0x48F4 DUP3 PUSH2 0x488D JUMP JUMPDEST PUSH1 0x40 DUP3 ADD SWAP1 POP SWAP2 SWAP1 POP JUMP JUMPDEST PUSH1 0x0 PUSH1 0x20 DUP3 ADD SWAP1 POP DUP2 DUP2 SUB PUSH1 0x0 DUP4 ADD MSTORE PUSH2 0x4918 DUP2 PUSH2 0x48DC JUMP JUMPDEST SWAP1 POP SWAP2 SWAP1 POP JUMP JUMPDEST PUSH32 0x4552433732313A207472616E73666572206F6620746F6B656E20746861742069 PUSH1 0x0 DUP3 ADD MSTORE PUSH32 0x73206E6F74206F776E0000000000000000000000000000000000000000000000 PUSH1 0x20 DUP3 ADD MSTORE POP JUMP JUMPDEST PUSH1 0x0 PUSH2 0x497B PUSH1 0x29 DUP4 PUSH2 0x37BD JUMP JUMPDEST SWAP2 POP PUSH2 0x4986 DUP3 PUSH2 0x491F JUMP JUMPDEST PUSH1 0x40 DUP3 ADD SWAP1 POP SWAP2 SWAP1 POP JUMP JUMPDEST PUSH1 0x0 PUSH1 0x20 DUP3 ADD SWAP1 POP DUP2 DUP2 SUB PUSH1 0x0 DUP4 ADD MSTORE PUSH2 0x49AA DUP2 PUSH2 0x496E JUMP JUMPDEST SWAP1 POP SWAP2 SWAP1 POP JUMP JUMPDEST PUSH32 0x4552433732313A207472616E7366657220746F20746865207A65726F20616464 PUSH1 0x0 DUP3 ADD MSTORE PUSH32 0x7265737300000000000000000000000000000000000000000000000000000000 PUSH1 0x20 DUP3 ADD MSTORE POP JUMP JUMPDEST PUSH1 0x0 PUSH2 0x4A0D PUSH1 0x24 DUP4 PUSH2 0x37BD JUMP JUMPDEST SWAP2 POP PUSH2 0x4A18 DUP3 PUSH2 0x49B1 JUMP JUMPDEST PUSH1 0x40 DUP3 ADD SWAP1 POP SWAP2 SWAP1 POP JUMP JUMPDEST PUSH1 0x0 PUSH1 0x20 DUP3 ADD SWAP1 POP DUP2 DUP2 SUB PUSH1 0x0 DUP4 ADD MSTORE PUSH2 0x4A3C DUP2 PUSH2 0x4A00 JUMP JUMPDEST SWAP1 POP SWAP2 SWAP1 POP JUMP JUMPDEST PUSH1 0x0 PUSH2 0x4A4E DUP3 PUSH2 0x386D JUMP JUMPDEST SWAP2 POP PUSH2 0x4A59 DUP4 PUSH2 0x386D JUMP JUMPDEST SWAP3 POP DUP3 DUP3 LT ISZERO PUSH2 0x4A6C JUMPI PUSH2 0x4A6B PUSH2 0x42A0 JUMP JUMPDEST JUMPDEST DUP3 DUP3 SUB SWAP1 POP SWAP3 SWAP2 POP POP JUMP JUMPDEST PUSH32 0x6D6178204E465420706572206164647265737320657863656564656400000000 PUSH1 0x0 DUP3 ADD MSTORE POP JUMP JUMPDEST PUSH1 0x0 PUSH2 0x4AAD PUSH1 0x1C DUP4 PUSH2 0x37BD JUMP JUMPDEST SWAP2 POP PUSH2 0x4AB8 DUP3 PUSH2 0x4A77 JUMP JUMPDEST PUSH1 0x20 DUP3 ADD SWAP1 POP SWAP2 SWAP1 POP JUMP JUMPDEST PUSH1 0x0 PUSH1 0x20 DUP3 ADD SWAP1 POP DUP2 DUP2 SUB PUSH1 0x0 DUP4 ADD MSTORE PUSH2 0x4ADC DUP2 PUSH2 0x4AA0 JUMP JUMPDEST SWAP1 POP SWAP2 SWAP1 POP JUMP JUMPDEST PUSH1 0x0 PUSH2 0x4AEE DUP3 PUSH2 0x386D JUMP JUMPDEST SWAP2 POP PUSH2 0x4AF9 DUP4 PUSH2 0x386D JUMP JUMPDEST SWAP3 POP DUP2 PUSH32 0xFFFFFFFFFFFFFFFFFFFFFFFFFFFFFFFFFFFFFFFFFFFFFFFFFFFFFFFFFFFFFFFF DIV DUP4 GT DUP3 ISZERO ISZERO AND ISZERO PUSH2 0x4B32 JUMPI PUSH2 0x4B31 PUSH2 0x42A0 JUMP JUMPDEST JUMPDEST DUP3 DUP3 MUL SWAP1 POP SWAP3 SWAP2 POP POP JUMP JUMPDEST PUSH32 0x696E73756666696369656E742066756E64730000000000000000000000000000 PUSH1 0x0 DUP3 ADD MSTORE POP JUMP JUMPDEST PUSH1 0x0 PUSH2 0x4B73 PUSH1 0x12 DUP4 PUSH2 0x37BD JUMP JUMPDEST SWAP2 POP PUSH2 0x4B7E DUP3 PUSH2 0x4B3D JUMP JUMPDEST PUSH1 0x20 DUP3 ADD SWAP1 POP SWAP2 SWAP1 POP JUMP JUMPDEST PUSH1 0x0 PUSH1 0x20 DUP3 ADD SWAP1 POP DUP2 DUP2 SUB PUSH1 0x0 DUP4 ADD MSTORE PUSH2 0x4BA2 DUP2 PUSH2 0x4B66 JUMP JUMPDEST SWAP1 POP SWAP2 SWAP1 POP JUMP JUMPDEST PUSH32 0x6D6178206D696E7420616D6F756E7420706572207472616E73616374696F6E20 PUSH1 0x0 DUP3 ADD MSTORE PUSH32 0x6578636565646564000000000000000000000000000000000000000000000000 PUSH1 0x20 DUP3 ADD MSTORE POP JUMP JUMPDEST PUSH1 0x0 PUSH2 0x4C05 PUSH1 0x28 DUP4 PUSH2 0x37BD JUMP JUMPDEST SWAP2 POP PUSH2 0x4C10 DUP3 PUSH2 0x4BA9 JUMP JUMPDEST PUSH1 0x40 DUP3 ADD SWAP1 POP SWAP2 SWAP1 POP JUMP JUMPDEST PUSH1 0x0 PUSH1 0x20 DUP3 ADD SWAP1 POP DUP2 DUP2 SUB PUSH1 0x0 DUP4 ADD MSTORE PUSH2 0x4C34 DUP2 PUSH2 0x4BF8 JUMP JUMPDEST SWAP1 POP SWAP2 SWAP1 POP JUMP JUMPDEST PUSH32 0x4552433732313A20617070726F766520746F2063616C6C657200000000000000 PUSH1 0x0 DUP3 ADD MSTORE POP JUMP JUMPDEST PUSH1 0x0 PUSH2 0x4C71 PUSH1 0x19 DUP4 PUSH2 0x37BD JUMP JUMPDEST SWAP2 POP PUSH2 0x4C7C DUP3 PUSH2 0x4C3B JUMP JUMPDEST PUSH1 0x20 DUP3 ADD SWAP1 POP SWAP2 SWAP1 POP JUMP JUMPDEST PUSH1 0x0 PUSH1 0x20 DUP3 ADD SWAP1 POP DUP2 DUP2 SUB PUSH1 0x0 DUP4 ADD MSTORE PUSH2 0x4CA0 DUP2 PUSH2 0x4C64 JUMP JUMPDEST SWAP1 POP SWAP2 SWAP1 POP JUMP JUMPDEST PUSH32 0x4552433732313A207472616E7366657220746F206E6F6E204552433732315265 PUSH1 0x0 DUP3 ADD MSTORE PUSH32 0x63656976657220696D706C656D656E7465720000000000000000000000000000 PUSH1 0x20 DUP3 ADD MSTORE POP JUMP JUMPDEST PUSH1 0x0 PUSH2 0x4D03 PUSH1 0x32 DUP4 PUSH2 0x37BD JUMP JUMPDEST SWAP2 POP PUSH2 0x4D0E DUP3 PUSH2 0x4CA7 JUMP JUMPDEST PUSH1 0x40 DUP3 ADD SWAP1 POP SWAP2 SWAP1 POP JUMP JUMPDEST PUSH1 0x0 PUSH1 0x20 DUP3 ADD SWAP1 POP DUP2 DUP2 SUB PUSH1 0x0 DUP4 ADD MSTORE PUSH2 0x4D32 DUP2 PUSH2 0x4CF6 JUMP JUMPDEST SWAP1 POP SWAP2 SWAP1 POP JUMP JUMPDEST PUSH32 0x4E487B7100000000000000000000000000000000000000000000000000000000 PUSH1 0x0 MSTORE PUSH1 0x12 PUSH1 0x4 MSTORE PUSH1 0x24 PUSH1 0x0 REVERT JUMPDEST PUSH1 0x0 PUSH2 0x4D73 DUP3 PUSH2 0x386D JUMP JUMPDEST SWAP2 POP PUSH2 0x4D7E DUP4 PUSH2 0x386D JUMP JUMPDEST SWAP3 POP DUP3 PUSH2 0x4D8E JUMPI PUSH2 0x4D8D PUSH2 0x4D39 JUMP JUMPDEST JUMPDEST DUP3 DUP3 DIV SWAP1 POP SWAP3 SWAP2 POP POP JUMP JUMPDEST PUSH1 0x0 PUSH2 0x4DA4 DUP3 PUSH2 0x386D JUMP JUMPDEST SWAP2 POP PUSH2 0x4DAF DUP4 PUSH2 0x386D JUMP JUMPDEST SWAP3 POP DUP3 PUSH2 0x4DBF JUMPI PUSH2 0x4DBE PUSH2 0x4D39 JUMP JUMPDEST JUMPDEST DUP3 DUP3 MOD SWAP1 POP SWAP3 SWAP2 POP POP JUMP JUMPDEST PUSH1 0x0 DUP2 MLOAD SWAP1 POP SWAP2 SWAP1 POP JUMP JUMPDEST PUSH1 0x0 DUP3 DUP3 MSTORE PUSH1 0x20 DUP3 ADD SWAP1 POP SWAP3 SWAP2 POP POP JUMP JUMPDEST PUSH1 0x0 PUSH2 0x4DF1 DUP3 PUSH2 0x4DCA JUMP JUMPDEST PUSH2 0x4DFB DUP2 DUP6 PUSH2 0x4DD5 JUMP JUMPDEST SWAP4 POP PUSH2 0x4E0B DUP2 DUP6 PUSH1 0x20 DUP7 ADD PUSH2 0x37CE JUMP JUMPDEST PUSH2 0x4E14 DUP2 PUSH2 0x3801 JUMP JUMPDEST DUP5 ADD SWAP2 POP POP SWAP3 SWAP2 POP POP JUMP JUMPDEST PUSH1 0x0 PUSH1 0x80 DUP3 ADD SWAP1 POP PUSH2 0x4E34 PUSH1 0x0 DUP4 ADD DUP8 PUSH2 0x3902 JUMP JUMPDEST PUSH2 0x4E41 PUSH1 0x20 DUP4 ADD DUP7 PUSH2 0x3902 JUMP JUMPDEST PUSH2 0x4E4E PUSH1 0x40 DUP4 ADD DUP6 PUSH2 0x3998 JUMP JUMPDEST DUP2 DUP2 SUB PUSH1 0x60 DUP4 ADD MSTORE PUSH2 0x4E60 DUP2 DUP5 PUSH2 0x4DE6 JUMP JUMPDEST SWAP1 POP SWAP6 SWAP5 POP POP POP POP POP JUMP JUMPDEST PUSH1 0x0 DUP2 MLOAD SWAP1 POP PUSH2 0x4E7A DUP2 PUSH2 0x36CA JUMP JUMPDEST SWAP3 SWAP2 POP POP JUMP JUMPDEST PUSH1 0x0 PUSH1 0x20 DUP3 DUP5 SUB SLT ISZERO PUSH2 0x4E96 JUMPI PUSH2 0x4E95 PUSH2 0x3694 JUMP JUMPDEST JUMPDEST PUSH1 0x0 PUSH2 0x4EA4 DUP5 DUP3 DUP6 ADD PUSH2 0x4E6B JUMP JUMPDEST SWAP2 POP POP SWAP3 SWAP2 POP POP JUMP JUMPDEST PUSH32 0x4E487B7100000000000000000000000000000000000000000000000000000000 PUSH1 0x0 MSTORE PUSH1 0x31 PUSH1 0x4 MSTORE PUSH1 0x24 PUSH1 0x0 REVERT JUMPDEST PUSH32 0x4552433732313A206D696E7420746F20746865207A65726F2061646472657373 PUSH1 0x0 DUP3 ADD MSTORE POP JUMP JUMPDEST PUSH1 0x0 PUSH2 0x4F12 PUSH1 0x20 DUP4 PUSH2 0x37BD JUMP JUMPDEST SWAP2 POP PUSH2 0x4F1D DUP3 PUSH2 0x4EDC JUMP JUMPDEST PUSH1 0x20 DUP3 ADD SWAP1 POP SWAP2 SWAP1 POP JUMP JUMPDEST PUSH1 0x0 PUSH1 0x20 DUP3 ADD SWAP1 POP DUP2 DUP2 SUB PUSH1 0x0 DUP4 ADD MSTORE PUSH2 0x4F41 DUP2 PUSH2 0x4F05 JUMP JUMPDEST SWAP1 POP SWAP2 SWAP1 POP JUMP JUMPDEST PUSH32 0x4552433732313A20746F6B656E20616C7265616479206D696E74656400000000 PUSH1 0x0 DUP3 ADD MSTORE POP JUMP JUMPDEST PUSH1 0x0 PUSH2 0x4F7E PUSH1 0x1C DUP4 PUSH2 0x37BD JUMP JUMPDEST SWAP2 POP PUSH2 0x4F89 DUP3 PUSH2 0x4F48 JUMP JUMPDEST PUSH1 0x20 DUP3 ADD SWAP1 POP SWAP2 SWAP1 POP JUMP JUMPDEST PUSH1 0x0 PUSH1 0x20 DUP3 ADD SWAP1 POP DUP2 DUP2 SUB PUSH1 0x0 DUP4 ADD MSTORE PUSH2 0x4FAD DUP2 PUSH2 0x4F71 JUMP JUMPDEST SWAP1 POP SWAP2 SWAP1 POP JUMP INVALID LOG2 PUSH5 0x6970667358 0x22 SLT KECCAK256 EXTCODESIZE ADDRESS PUSH24 0x9C6FF3DC3635868FF91FE98776B2AE25C6D879BD827462C6 REVERT CALLVALUE DUP13 0xAE 0x25 PUSH5 0x736F6C6343 STOP ADDMOD SIGNEXTEND STOP CALLER "
		},
		"gasEstimates": {
			"creation": {
				"codeDepositCost": "4091600",
				"executionCost": "infinite",
				"totalCost": "infinite"
			},
			"external": {
				"MAX_MULTIMINT()": "2518",
				"MAX_SUPPLY()": "2497",
				"addressMintedBalance(address)": "2926",
				"approve(address,uint256)": "infinite",
				"balanceOf(address)": "2947",
				"baseExtension()": "infinite",
				"getApproved(uint256)": "5273",
				"getBaseURI()": "infinite",
				"getContractBalance()": "2722",
				"getCurrentCost()": "2593",
				"gift(uint256,address)": "infinite",
				"isApprovedForAll(address,address)": "infinite",
				"mint(uint256)": "infinite",
				"name()": "infinite",
				"nftPerAddressLimit()": "2540",
				"nftPerAddressLimitPresale()": "2585",
				"notRevealedUri()": "infinite",
				"owner()": "2589",
				"ownerOf(uint256)": "3110",
				"pause(bool)": "26988",
				"paused()": "2582",
				"price()": "2540",
				"publicSaleDate()": "2539",
				"renounceOwnership()": "30486",
				"reveal()": "26746",
				"revealed()": "2588",
				"safeTransferFrom(address,address,uint256)": "infinite",
				"safeTransferFrom(address,address,uint256,bytes)": "infinite",
				"setApprovalForAll(address,bool)": "infinite",
				"setBaseExtension(string)": "infinite",
				"setBaseURI(string)": "infinite",
				"setCost(uint256)": "24916",
				"setMaxSupply(uint256)": "24915",
				"setNftPerAddressLimit(uint256)": "24804",
				"setNotRevealedURI(string)": "infinite",
				"setPublicSaleDate(uint256)": "24828",
				"setmaxMintAmount(uint256)": "24894",
				"supportsInterface(bytes4)": "909",
				"symbol()": "infinite",
				"tokenByIndex(uint256)": "infinite",
				"tokenOfOwnerByIndex(address,uint256)": "infinite",
				"tokenURI(uint256)": "infinite",
				"totalSupply()": "2535",
				"transferFrom(address,address,uint256)": "infinite",
				"transferOwnership(address)": "30877",
				"walletOfOwner(address)": "infinite",
				"withdraw()": "infinite"
			},
			"internal": {
				"_baseURI()": "infinite",
				"publicsaleValidations(uint256,uint256)": "infinite"
			}
		},
		"methodIdentifiers": {
			"MAX_MULTIMINT()": "b8fc1051",
			"MAX_SUPPLY()": "32cb6b0c",
			"addressMintedBalance(address)": "18cae269",
			"approve(address,uint256)": "095ea7b3",
			"balanceOf(address)": "70a08231",
			"baseExtension()": "c6682862",
			"getApproved(uint256)": "081812fc",
			"getBaseURI()": "714c5398",
			"getContractBalance()": "6f9fb98a",
			"getCurrentCost()": "831e60de",
			"gift(uint256,address)": "83a076be",
			"isApprovedForAll(address,address)": "e985e9c5",
			"mint(uint256)": "a0712d68",
			"name()": "06fdde03",
			"nftPerAddressLimit()": "ba7d2c76",
			"nftPerAddressLimitPresale()": "2e09282e",
			"notRevealedUri()": "081c8c44",
			"owner()": "8da5cb5b",
			"ownerOf(uint256)": "6352211e",
			"pause(bool)": "02329a29",
			"paused()": "5c975abb",
			"price()": "a035b1fe",
			"publicSaleDate()": "eced3873",
			"renounceOwnership()": "715018a6",
			"reveal()": "a475b5dd",
			"revealed()": "51830227",
			"safeTransferFrom(address,address,uint256)": "42842e0e",
			"safeTransferFrom(address,address,uint256,bytes)": "b88d4fde",
			"setApprovalForAll(address,bool)": "a22cb465",
			"setBaseExtension(string)": "da3ef23f",
			"setBaseURI(string)": "55f804b3",
			"setCost(uint256)": "44a0d68a",
			"setMaxSupply(uint256)": "6f8b44b0",
			"setNftPerAddressLimit(uint256)": "d0eb26b0",
			"setNotRevealedURI(string)": "f2c4ce1e",
			"setPublicSaleDate(uint256)": "0e54a883",
			"setmaxMintAmount(uint256)": "7f00c7a6",
			"supportsInterface(bytes4)": "01ffc9a7",
			"symbol()": "95d89b41",
			"tokenByIndex(uint256)": "4f6ccce7",
			"tokenOfOwnerByIndex(address,uint256)": "2f745c59",
			"tokenURI(uint256)": "c87b56dd",
			"totalSupply()": "18160ddd",
			"transferFrom(address,address,uint256)": "23b872dd",
			"transferOwnership(address)": "f2fde38b",
			"walletOfOwner(address)": "438b6300",
			"withdraw()": "3ccfd60b"
		}
	},
	"abi": [
		{
			"inputs": [
				{
					"internalType": "string",
					"name": "_name",
					"type": "string"
				},
				{
					"internalType": "string",
					"name": "_symbol",
					"type": "string"
				},
				{
					"internalType": "string",
					"name": "_initNotRevealedUri",
					"type": "string"
				}
			],
			"stateMutability": "nonpayable",
			"type": "constructor"
		},
		{
			"anonymous": false,
			"inputs": [
				{
					"indexed": true,
					"internalType": "address",
					"name": "owner",
					"type": "address"
				},
				{
					"indexed": true,
					"internalType": "address",
					"name": "approved",
					"type": "address"
				},
				{
					"indexed": true,
					"internalType": "uint256",
					"name": "tokenId",
					"type": "uint256"
				}
			],
			"name": "Approval",
			"type": "event"
		},
		{
			"anonymous": false,
			"inputs": [
				{
					"indexed": true,
					"internalType": "address",
					"name": "owner",
					"type": "address"
				},
				{
					"indexed": true,
					"internalType": "address",
					"name": "operator",
					"type": "address"
				},
				{
					"indexed": false,
					"internalType": "bool",
					"name": "approved",
					"type": "bool"
				}
			],
			"name": "ApprovalForAll",
			"type": "event"
		},
		{
			"anonymous": false,
			"inputs": [
				{
					"indexed": true,
					"internalType": "address",
					"name": "previousOwner",
					"type": "address"
				},
				{
					"indexed": true,
					"internalType": "address",
					"name": "newOwner",
					"type": "address"
				}
			],
			"name": "OwnershipTransferred",
			"type": "event"
		},
		{
			"anonymous": false,
			"inputs": [
				{
					"indexed": true,
					"internalType": "address",
					"name": "from",
					"type": "address"
				},
				{
					"indexed": true,
					"internalType": "address",
					"name": "to",
					"type": "address"
				},
				{
					"indexed": true,
					"internalType": "uint256",
					"name": "tokenId",
					"type": "uint256"
				}
			],
			"name": "Transfer",
			"type": "event"
		},
		{
			"inputs": [],
			"name": "MAX_MULTIMINT",
			"outputs": [
				{
					"internalType": "uint256",
					"name": "",
					"type": "uint256"
				}
			],
			"stateMutability": "view",
			"type": "function"
		},
		{
			"inputs": [],
			"name": "MAX_SUPPLY",
			"outputs": [
				{
					"internalType": "uint256",
					"name": "",
					"type": "uint256"
				}
			],
			"stateMutability": "view",
			"type": "function"
		},
		{
			"inputs": [
				{
					"internalType": "address",
					"name": "",
					"type": "address"
				}
			],
			"name": "addressMintedBalance",
			"outputs": [
				{
					"internalType": "uint256",
					"name": "",
					"type": "uint256"
				}
			],
			"stateMutability": "view",
			"type": "function"
		},
		{
			"inputs": [
				{
					"internalType": "address",
					"name": "to",
					"type": "address"
				},
				{
					"internalType": "uint256",
					"name": "tokenId",
					"type": "uint256"
				}
			],
			"name": "approve",
			"outputs": [],
			"stateMutability": "nonpayable",
			"type": "function"
		},
		{
			"inputs": [
				{
					"internalType": "address",
					"name": "owner",
					"type": "address"
				}
			],
			"name": "balanceOf",
			"outputs": [
				{
					"internalType": "uint256",
					"name": "",
					"type": "uint256"
				}
			],
			"stateMutability": "view",
			"type": "function"
		},
		{
			"inputs": [],
			"name": "baseExtension",
			"outputs": [
				{
					"internalType": "string",
					"name": "",
					"type": "string"
				}
			],
			"stateMutability": "view",
			"type": "function"
		},
		{
			"inputs": [
				{
					"internalType": "uint256",
					"name": "tokenId",
					"type": "uint256"
				}
			],
			"name": "getApproved",
			"outputs": [
				{
					"internalType": "address",
					"name": "",
					"type": "address"
				}
			],
			"stateMutability": "view",
			"type": "function"
		},
		{
			"inputs": [],
			"name": "getBaseURI",
			"outputs": [
				{
					"internalType": "string",
					"name": "",
					"type": "string"
				}
			],
			"stateMutability": "view",
			"type": "function"
		},
		{
			"inputs": [],
			"name": "getContractBalance",
			"outputs": [
				{
					"internalType": "uint256",
					"name": "",
					"type": "uint256"
				}
			],
			"stateMutability": "view",
			"type": "function"
		},
		{
			"inputs": [],
			"name": "getCurrentCost",
			"outputs": [
				{
					"internalType": "uint256",
					"name": "",
					"type": "uint256"
				}
			],
			"stateMutability": "view",
			"type": "function"
		},
		{
			"inputs": [
				{
					"internalType": "uint256",
					"name": "count",
					"type": "uint256"
				},
				{
					"internalType": "address",
					"name": "destination",
					"type": "address"
				}
			],
			"name": "gift",
			"outputs": [],
			"stateMutability": "nonpayable",
			"type": "function"
		},
		{
			"inputs": [
				{
					"internalType": "address",
					"name": "owner",
					"type": "address"
				},
				{
					"internalType": "address",
					"name": "operator",
					"type": "address"
				}
			],
			"name": "isApprovedForAll",
			"outputs": [
				{
					"internalType": "bool",
					"name": "",
					"type": "bool"
				}
			],
			"stateMutability": "view",
			"type": "function"
		},
		{
			"inputs": [
				{
					"internalType": "uint256",
					"name": "count",
					"type": "uint256"
				}
			],
			"name": "mint",
			"outputs": [],
			"stateMutability": "payable",
			"type": "function"
		},
		{
			"inputs": [],
			"name": "name",
			"outputs": [
				{
					"internalType": "string",
					"name": "",
					"type": "string"
				}
			],
			"stateMutability": "view",
			"type": "function"
		},
		{
			"inputs": [],
			"name": "nftPerAddressLimit",
			"outputs": [
				{
					"internalType": "uint256",
					"name": "",
					"type": "uint256"
				}
			],
			"stateMutability": "view",
			"type": "function"
		},
		{
			"inputs": [],
			"name": "nftPerAddressLimitPresale",
			"outputs": [
				{
					"internalType": "uint256",
					"name": "",
					"type": "uint256"
				}
			],
			"stateMutability": "view",
			"type": "function"
		},
		{
			"inputs": [],
			"name": "notRevealedUri",
			"outputs": [
				{
					"internalType": "string",
					"name": "",
					"type": "string"
				}
			],
			"stateMutability": "view",
			"type": "function"
		},
		{
			"inputs": [],
			"name": "owner",
			"outputs": [
				{
					"internalType": "address",
					"name": "",
					"type": "address"
				}
			],
			"stateMutability": "view",
			"type": "function"
		},
		{
			"inputs": [
				{
					"internalType": "uint256",
					"name": "tokenId",
					"type": "uint256"
				}
			],
			"name": "ownerOf",
			"outputs": [
				{
					"internalType": "address",
					"name": "",
					"type": "address"
				}
			],
			"stateMutability": "view",
			"type": "function"
		},
		{
			"inputs": [
				{
					"internalType": "bool",
					"name": "_state",
					"type": "bool"
				}
			],
			"name": "pause",
			"outputs": [],
			"stateMutability": "nonpayable",
			"type": "function"
		},
		{
			"inputs": [],
			"name": "paused",
			"outputs": [
				{
					"internalType": "bool",
					"name": "",
					"type": "bool"
				}
			],
			"stateMutability": "view",
			"type": "function"
		},
		{
			"inputs": [],
			"name": "price",
			"outputs": [
				{
					"internalType": "uint256",
					"name": "",
					"type": "uint256"
				}
			],
			"stateMutability": "view",
			"type": "function"
		},
		{
			"inputs": [],
			"name": "publicSaleDate",
			"outputs": [
				{
					"internalType": "uint256",
					"name": "",
					"type": "uint256"
				}
			],
			"stateMutability": "view",
			"type": "function"
		},
		{
			"inputs": [],
			"name": "renounceOwnership",
			"outputs": [],
			"stateMutability": "nonpayable",
			"type": "function"
		},
		{
			"inputs": [],
			"name": "reveal",
			"outputs": [],
			"stateMutability": "nonpayable",
			"type": "function"
		},
		{
			"inputs": [],
			"name": "revealed",
			"outputs": [
				{
					"internalType": "bool",
					"name": "",
					"type": "bool"
				}
			],
			"stateMutability": "view",
			"type": "function"
		},
		{
			"inputs": [
				{
					"internalType": "address",
					"name": "from",
					"type": "address"
				},
				{
					"internalType": "address",
					"name": "to",
					"type": "address"
				},
				{
					"internalType": "uint256",
					"name": "tokenId",
					"type": "uint256"
				}
			],
			"name": "safeTransferFrom",
			"outputs": [],
			"stateMutability": "nonpayable",
			"type": "function"
		},
		{
			"inputs": [
				{
					"internalType": "address",
					"name": "from",
					"type": "address"
				},
				{
					"internalType": "address",
					"name": "to",
					"type": "address"
				},
				{
					"internalType": "uint256",
					"name": "tokenId",
					"type": "uint256"
				},
				{
					"internalType": "bytes",
					"name": "_data",
					"type": "bytes"
				}
			],
			"name": "safeTransferFrom",
			"outputs": [],
			"stateMutability": "nonpayable",
			"type": "function"
		},
		{
			"inputs": [
				{
					"internalType": "address",
					"name": "operator",
					"type": "address"
				},
				{
					"internalType": "bool",
					"name": "approved",
					"type": "bool"
				}
			],
			"name": "setApprovalForAll",
			"outputs": [],
			"stateMutability": "nonpayable",
			"type": "function"
		},
		{
			"inputs": [
				{
					"internalType": "string",
					"name": "_newBaseExtension",
					"type": "string"
				}
			],
			"name": "setBaseExtension",
			"outputs": [],
			"stateMutability": "nonpayable",
			"type": "function"
		},
		{
			"inputs": [
				{
					"internalType": "string",
					"name": "_newBaseURI",
					"type": "string"
				}
			],
			"name": "setBaseURI",
			"outputs": [],
			"stateMutability": "nonpayable",
			"type": "function"
		},
		{
			"inputs": [
				{
					"internalType": "uint256",
					"name": "_newCost",
					"type": "uint256"
				}
			],
			"name": "setCost",
			"outputs": [],
			"stateMutability": "nonpayable",
			"type": "function"
		},
		{
			"inputs": [
				{
					"internalType": "uint256",
					"name": "_maxSupply",
					"type": "uint256"
				}
			],
			"name": "setMaxSupply",
			"outputs": [],
			"stateMutability": "nonpayable",
			"type": "function"
		},
		{
			"inputs": [
				{
					"internalType": "uint256",
					"name": "_limit",
					"type": "uint256"
				}
			],
			"name": "setNftPerAddressLimit",
			"outputs": [],
			"stateMutability": "nonpayable",
			"type": "function"
		},
		{
			"inputs": [
				{
					"internalType": "string",
					"name": "_notRevealedURI",
					"type": "string"
				}
			],
			"name": "setNotRevealedURI",
			"outputs": [],
			"stateMutability": "nonpayable",
			"type": "function"
		},
		{
			"inputs": [
				{
					"internalType": "uint256",
					"name": "_publicSaleDate",
					"type": "uint256"
				}
			],
			"name": "setPublicSaleDate",
			"outputs": [],
			"stateMutability": "nonpayable",
			"type": "function"
		},
		{
			"inputs": [
				{
					"internalType": "uint256",
					"name": "_newmaxMintAmount",
					"type": "uint256"
				}
			],
			"name": "setmaxMintAmount",
			"outputs": [],
			"stateMutability": "nonpayable",
			"type": "function"
		},
		{
			"inputs": [
				{
					"internalType": "bytes4",
					"name": "interfaceId",
					"type": "bytes4"
				}
			],
			"name": "supportsInterface",
			"outputs": [
				{
					"internalType": "bool",
					"name": "",
					"type": "bool"
				}
			],
			"stateMutability": "view",
			"type": "function"
		},
		{
			"inputs": [],
			"name": "symbol",
			"outputs": [
				{
					"internalType": "string",
					"name": "",
					"type": "string"
				}
			],
			"stateMutability": "view",
			"type": "function"
		},
		{
			"inputs": [
				{
					"internalType": "uint256",
					"name": "index",
					"type": "uint256"
				}
			],
			"name": "tokenByIndex",
			"outputs": [
				{
					"internalType": "uint256",
					"name": "",
					"type": "uint256"
				}
			],
			"stateMutability": "view",
			"type": "function"
		},
		{
			"inputs": [
				{
					"internalType": "address",
					"name": "owner",
					"type": "address"
				},
				{
					"internalType": "uint256",
					"name": "index",
					"type": "uint256"
				}
			],
			"name": "tokenOfOwnerByIndex",
			"outputs": [
				{
					"internalType": "uint256",
					"name": "",
					"type": "uint256"
				}
			],
			"stateMutability": "view",
			"type": "function"
		},
		{
			"inputs": [
				{
					"internalType": "uint256",
					"name": "tokenId",
					"type": "uint256"
				}
			],
			"name": "tokenURI",
			"outputs": [
				{
					"internalType": "string",
					"name": "",
					"type": "string"
				}
			],
			"stateMutability": "view",
			"type": "function"
		},
		{
			"inputs": [],
			"name": "totalSupply",
			"outputs": [
				{
					"internalType": "uint256",
					"name": "",
					"type": "uint256"
				}
			],
			"stateMutability": "view",
			"type": "function"
		},
		{
			"inputs": [
				{
					"internalType": "address",
					"name": "from",
					"type": "address"
				},
				{
					"internalType": "address",
					"name": "to",
					"type": "address"
				},
				{
					"internalType": "uint256",
					"name": "tokenId",
					"type": "uint256"
				}
			],
			"name": "transferFrom",
			"outputs": [],
			"stateMutability": "nonpayable",
			"type": "function"
		},
		{
			"inputs": [
				{
					"internalType": "address",
					"name": "newOwner",
					"type": "address"
				}
			],
			"name": "transferOwnership",
			"outputs": [],
			"stateMutability": "nonpayable",
			"type": "function"
		},
		{
			"inputs": [
				{
					"internalType": "address",
					"name": "_owner",
					"type": "address"
				}
			],
			"name": "walletOfOwner",
			"outputs": [
				{
					"internalType": "uint256[]",
					"name": "",
					"type": "uint256[]"
				}
			],
			"stateMutability": "view",
			"type": "function"
		},
		{
			"inputs": [],
			"name": "withdraw",
			"outputs": [],
			"stateMutability": "payable",
			"type": "function"
		}
	]
}